{
	"contracts/Etherise_DApp.sol": {
		"Etherise": {
			"abi": [
				{
					"inputs": [
						{
							"internalType": "string",
							"name": "_campaignTitle",
							"type": "string"
						},
						{
							"internalType": "string",
							"name": "_aboutCampaign",
							"type": "string"
						},
						{
							"internalType": "uint256",
							"name": "_ethGoal",
							"type": "uint256"
						},
						{
							"internalType": "string",
							"name": "_businessName",
							"type": "string"
						},
						{
							"internalType": "bool",
							"name": "_isActive",
							"type": "bool"
						},
						{
							"internalType": "string",
							"name": "_coverImage",
							"type": "string"
						}
					],
					"name": "addCampaign",
					"outputs": [],
					"stateMutability": "nonpayable",
					"type": "function"
				},
				{
					"inputs": [],
					"name": "campaignCounter",
					"outputs": [
						{
							"internalType": "uint256",
							"name": "",
							"type": "uint256"
						}
					],
					"stateMutability": "view",
					"type": "function"
				},
				{
					"inputs": [
						{
							"internalType": "uint256",
							"name": "",
							"type": "uint256"
						}
					],
					"name": "campaigns",
					"outputs": [
						{
							"internalType": "uint256",
							"name": "campaignID",
							"type": "uint256"
						},
						{
							"internalType": "string",
							"name": "campaignTitle",
							"type": "string"
						},
						{
							"internalType": "string",
							"name": "aboutCampaign",
							"type": "string"
						},
						{
							"internalType": "uint256",
							"name": "ethGoal",
							"type": "uint256"
						},
						{
							"internalType": "uint256",
							"name": "ethRaised",
							"type": "uint256"
						},
						{
							"internalType": "string",
							"name": "businessName",
							"type": "string"
						},
						{
							"internalType": "address",
							"name": "creatorWallet",
							"type": "address"
						},
						{
							"internalType": "bool",
							"name": "isActive",
							"type": "bool"
						},
						{
							"internalType": "string",
							"name": "coverImage",
							"type": "string"
						}
					],
					"stateMutability": "view",
					"type": "function"
				},
				{
					"inputs": [
						{
							"internalType": "uint256",
							"name": "_campaignID",
							"type": "uint256"
						}
					],
					"name": "contributeToCampaign",
					"outputs": [],
					"stateMutability": "payable",
					"type": "function"
				},
				{
					"inputs": [
						{
							"internalType": "uint256",
							"name": "_campaignID",
							"type": "uint256"
						}
					],
					"name": "deleteCampaign",
					"outputs": [],
					"stateMutability": "nonpayable",
					"type": "function"
				},
				{
					"inputs": [],
					"name": "getAllCampaigns",
					"outputs": [
						{
							"components": [
								{
									"internalType": "uint256",
									"name": "campaignID",
									"type": "uint256"
								},
								{
									"internalType": "string",
									"name": "campaignTitle",
									"type": "string"
								},
								{
									"internalType": "string",
									"name": "aboutCampaign",
									"type": "string"
								},
								{
									"internalType": "uint256",
									"name": "ethGoal",
									"type": "uint256"
								},
								{
									"internalType": "uint256",
									"name": "ethRaised",
									"type": "uint256"
								},
								{
									"internalType": "string",
									"name": "businessName",
									"type": "string"
								},
								{
									"internalType": "address",
									"name": "creatorWallet",
									"type": "address"
								},
								{
									"internalType": "bool",
									"name": "isActive",
									"type": "bool"
								},
								{
									"internalType": "string",
									"name": "coverImage",
									"type": "string"
								}
							],
							"internalType": "struct Etherise.Campaign[]",
							"name": "",
							"type": "tuple[]"
						}
					],
					"stateMutability": "view",
					"type": "function"
				},
				{
					"inputs": [
						{
							"internalType": "uint256",
							"name": "_campaignID",
							"type": "uint256"
						}
					],
					"name": "getCampaign",
					"outputs": [
						{
							"components": [
								{
									"internalType": "uint256",
									"name": "campaignID",
									"type": "uint256"
								},
								{
									"internalType": "string",
									"name": "campaignTitle",
									"type": "string"
								},
								{
									"internalType": "string",
									"name": "aboutCampaign",
									"type": "string"
								},
								{
									"internalType": "uint256",
									"name": "ethGoal",
									"type": "uint256"
								},
								{
									"internalType": "uint256",
									"name": "ethRaised",
									"type": "uint256"
								},
								{
									"internalType": "string",
									"name": "businessName",
									"type": "string"
								},
								{
									"internalType": "address",
									"name": "creatorWallet",
									"type": "address"
								},
								{
									"internalType": "bool",
									"name": "isActive",
									"type": "bool"
								},
								{
									"internalType": "string",
									"name": "coverImage",
									"type": "string"
								}
							],
							"internalType": "struct Etherise.Campaign",
							"name": "",
							"type": "tuple"
						}
					],
					"stateMutability": "view",
					"type": "function"
				},
				{
					"inputs": [
						{
							"internalType": "uint256",
							"name": "_campaignID",
							"type": "uint256"
						}
					],
					"name": "getTransactionsByCampaign",
					"outputs": [
						{
							"components": [
								{
									"internalType": "uint256",
									"name": "transactionID",
									"type": "uint256"
								},
								{
									"internalType": "uint256",
									"name": "amount",
									"type": "uint256"
								},
								{
									"internalType": "address",
									"name": "contractAddress",
									"type": "address"
								},
								{
									"internalType": "address",
									"name": "transactor",
									"type": "address"
								},
								{
									"internalType": "uint256",
									"name": "campaignID",
									"type": "uint256"
								},
								{
									"internalType": "bool",
									"name": "isDeposit",
									"type": "bool"
								}
							],
							"internalType": "struct Etherise.Transaction[]",
							"name": "",
							"type": "tuple[]"
						}
					],
					"stateMutability": "view",
					"type": "function"
				},
				{
					"inputs": [
						{
							"internalType": "uint256",
							"name": "",
							"type": "uint256"
						},
						{
							"internalType": "uint256",
							"name": "",
							"type": "uint256"
						}
					],
					"name": "transactionsByCampaign",
					"outputs": [
						{
							"internalType": "uint256",
							"name": "transactionID",
							"type": "uint256"
						},
						{
							"internalType": "uint256",
							"name": "amount",
							"type": "uint256"
						},
						{
							"internalType": "address",
							"name": "contractAddress",
							"type": "address"
						},
						{
							"internalType": "address",
							"name": "transactor",
							"type": "address"
						},
						{
							"internalType": "uint256",
							"name": "campaignID",
							"type": "uint256"
						},
						{
							"internalType": "bool",
							"name": "isDeposit",
							"type": "bool"
						}
					],
					"stateMutability": "view",
					"type": "function"
				},
				{
					"inputs": [
						{
							"internalType": "uint256",
							"name": "_campaignID",
							"type": "uint256"
						},
						{
							"internalType": "uint256",
							"name": "_amount",
							"type": "uint256"
						}
					],
					"name": "withdrawFromCampaign",
					"outputs": [],
					"stateMutability": "nonpayable",
					"type": "function"
				}
			],
			"devdoc": {
				"kind": "dev",
				"methods": {},
				"version": 1
			},
			"evm": {
				"assembly": "    /* \"contracts/Etherise_DApp.sol\":57:3748  contract Etherise {... */\n  mstore(0x40, 0x80)\n  callvalue\n  dup1\n  iszero\n  tag_1\n  jumpi\n  0x00\n  dup1\n  revert\ntag_1:\n  pop\n  dataSize(sub_0)\n  dup1\n  dataOffset(sub_0)\n  0x00\n  codecopy\n  0x00\n  return\nstop\n\nsub_0: assembly {\n        /* \"contracts/Etherise_DApp.sol\":57:3748  contract Etherise {... */\n      mstore(0x40, 0x80)\n      jumpi(tag_1, lt(calldatasize, 0x04))\n      shr(0xe0, calldataload(0x00))\n      dup1\n      0x75970193\n      gt\n      tag_12\n      jumpi\n      dup1\n      0x75970193\n      eq\n      tag_7\n      jumpi\n      dup1\n      0x86cdf604\n      eq\n      tag_8\n      jumpi\n      dup1\n      0xaf3db180\n      eq\n      tag_9\n      jumpi\n      dup1\n      0xfca604d7\n      eq\n      tag_10\n      jumpi\n      dup1\n      0xfe7aacf1\n      eq\n      tag_11\n      jumpi\n      jump(tag_1)\n    tag_12:\n      dup1\n      0x0b7ef89b\n      eq\n      tag_2\n      jumpi\n      dup1\n      0x141961bc\n      eq\n      tag_3\n      jumpi\n      dup1\n      0x2fe797f9\n      eq\n      tag_4\n      jumpi\n      dup1\n      0x5598f8cc\n      eq\n      tag_5\n      jumpi\n      dup1\n      0x6dcbcfc2\n      eq\n      tag_6\n      jumpi\n    tag_1:\n      0x00\n      dup1\n      revert\n        /* \"contracts/Etherise_DApp.sol\":3290:3746  function contributeToCampaign(uint256 _campaignID) external payable {... */\n    tag_2:\n      tag_13\n      0x04\n      dup1\n      calldatasize\n      sub\n      dup2\n      add\n      swap1\n      tag_14\n      swap2\n      swap1\n      tag_15\n      jump\t// in\n    tag_14:\n      tag_16\n      jump\t// in\n    tag_13:\n      stop\n        /* \"contracts/Etherise_DApp.sol\":744:789  mapping(uint256 => Campaign) public campaigns */\n    tag_3:\n      callvalue\n      dup1\n      iszero\n      tag_17\n      jumpi\n      0x00\n      dup1\n      revert\n    tag_17:\n      pop\n      tag_18\n      0x04\n      dup1\n      calldatasize\n      sub\n      dup2\n      add\n      swap1\n      tag_19\n      swap2\n      swap1\n      tag_15\n      jump\t// in\n    tag_19:\n      tag_20\n      jump\t// in\n    tag_18:\n      mload(0x40)\n      tag_21\n      swap10\n      swap9\n      swap8\n      swap7\n      swap6\n      swap5\n      swap4\n      swap3\n      swap2\n      swap1\n      tag_22\n      jump\t// in\n    tag_21:\n      mload(0x40)\n      dup1\n      swap2\n      sub\n      swap1\n      return\n        /* \"contracts/Etherise_DApp.sol\":865:928  mapping(uint256 => Transaction[]) public transactionsByCampaign */\n    tag_4:\n      callvalue\n      dup1\n      iszero\n      tag_23\n      jumpi\n      0x00\n      dup1\n      revert\n    tag_23:\n      pop\n      tag_24\n      0x04\n      dup1\n      calldatasize\n      sub\n      dup2\n      add\n      swap1\n      tag_25\n      swap2\n      swap1\n      tag_26\n      jump\t// in\n    tag_25:\n      tag_27\n      jump\t// in\n    tag_24:\n      mload(0x40)\n      tag_28\n      swap7\n      swap6\n      swap5\n      swap4\n      swap3\n      swap2\n      swap1\n      tag_29\n      jump\t// in\n    tag_28:\n      mload(0x40)\n      dup1\n      swap2\n      sub\n      swap1\n      return\n        /* \"contracts/Etherise_DApp.sol\":1726:1854  function getCampaign(uint256 _campaignID) external view returns (Campaign memory) {... */\n    tag_5:\n      callvalue\n      dup1\n      iszero\n      tag_30\n      jumpi\n      0x00\n      dup1\n      revert\n    tag_30:\n      pop\n      tag_31\n      0x04\n      dup1\n      calldatasize\n      sub\n      dup2\n      add\n      swap1\n      tag_32\n      swap2\n      swap1\n      tag_15\n      jump\t// in\n    tag_32:\n      tag_33\n      jump\t// in\n    tag_31:\n      mload(0x40)\n      tag_34\n      swap2\n      swap1\n      tag_35\n      jump\t// in\n    tag_34:\n      mload(0x40)\n      dup1\n      swap2\n      sub\n      swap1\n      return\n        /* \"contracts/Etherise_DApp.sol\":2593:3001  function withdrawFromCampaign(uint256 _campaignID, uint256 _amount) external {... */\n    tag_6:\n      callvalue\n      dup1\n      iszero\n      tag_36\n      jumpi\n      0x00\n      dup1\n      revert\n    tag_36:\n      pop\n      tag_37\n      0x04\n      dup1\n      calldatasize\n      sub\n      dup2\n      add\n      swap1\n      tag_38\n      swap2\n      swap1\n      tag_26\n      jump\t// in\n    tag_38:\n      tag_39\n      jump\t// in\n    tag_37:\n      stop\n        /* \"contracts/Etherise_DApp.sol\":2288:2501  function deleteCampaign(uint256 _campaignID) external {... */\n    tag_7:\n      callvalue\n      dup1\n      iszero\n      tag_40\n      jumpi\n      0x00\n      dup1\n      revert\n    tag_40:\n      pop\n      tag_41\n      0x04\n      dup1\n      calldatasize\n      sub\n      dup2\n      add\n      swap1\n      tag_42\n      swap2\n      swap1\n      tag_15\n      jump\t// in\n    tag_42:\n      tag_43\n      jump\t// in\n    tag_41:\n      stop\n        /* \"contracts/Etherise_DApp.sol\":1900:2194  function getAllCampaigns() external view returns (Campaign[] memory) {... */\n    tag_8:\n      callvalue\n      dup1\n      iszero\n      tag_44\n      jumpi\n      0x00\n      dup1\n      revert\n    tag_44:\n      pop\n      tag_45\n      tag_46\n      jump\t// in\n    tag_45:\n      mload(0x40)\n      tag_47\n      swap2\n      swap1\n      tag_48\n      jump\t// in\n    tag_47:\n      mload(0x40)\n      dup1\n      swap2\n      sub\n      swap1\n      return\n        /* \"contracts/Etherise_DApp.sol\":1113:1659  function addCampaign(... */\n    tag_9:\n      callvalue\n      dup1\n      iszero\n      tag_49\n      jumpi\n      0x00\n      dup1\n      revert\n    tag_49:\n      pop\n      tag_50\n      0x04\n      dup1\n      calldatasize\n      sub\n      dup2\n      add\n      swap1\n      tag_51\n      swap2\n      swap1\n      tag_52\n      jump\t// in\n    tag_51:\n      tag_53\n      jump\t// in\n    tag_50:\n      stop\n        /* \"contracts/Etherise_DApp.sol\":972:1002  uint256 public campaignCounter */\n    tag_10:\n      callvalue\n      dup1\n      iszero\n      tag_54\n      jumpi\n      0x00\n      dup1\n      revert\n    tag_54:\n      pop\n      tag_55\n      tag_56\n      jump\t// in\n    tag_55:\n      mload(0x40)\n      tag_57\n      swap2\n      swap1\n      tag_58\n      jump\t// in\n    tag_57:\n      mload(0x40)\n      dup1\n      swap2\n      sub\n      swap1\n      return\n        /* \"contracts/Etherise_DApp.sol\":3074:3234  function getTransactionsByCampaign(uint256 _campaignID) external view returns (Transaction[] memory) {... */\n    tag_11:\n      callvalue\n      dup1\n      iszero\n      tag_59\n      jumpi\n      0x00\n      dup1\n      revert\n    tag_59:\n      pop\n      tag_60\n      0x04\n      dup1\n      calldatasize\n      sub\n      dup2\n      add\n      swap1\n      tag_61\n      swap2\n      swap1\n      tag_15\n      jump\t// in\n    tag_61:\n      tag_62\n      jump\t// in\n    tag_60:\n      mload(0x40)\n      tag_63\n      swap2\n      swap1\n      tag_64\n      jump\t// in\n    tag_63:\n      mload(0x40)\n      dup1\n      swap2\n      sub\n      swap1\n      return\n        /* \"contracts/Etherise_DApp.sol\":3290:3746  function contributeToCampaign(uint256 _campaignID) external payable {... */\n    tag_16:\n        /* \"contracts/Etherise_DApp.sol\":3376:3385  campaigns */\n      0x00\n        /* \"contracts/Etherise_DApp.sol\":3376:3398  campaigns[_campaignID] */\n      dup1\n        /* \"contracts/Etherise_DApp.sol\":3386:3397  _campaignID */\n      dup3\n        /* \"contracts/Etherise_DApp.sol\":3376:3398  campaigns[_campaignID] */\n      dup2\n      mstore\n      0x20\n      add\n      swap1\n      dup2\n      mstore\n      0x20\n      add\n      0x00\n      keccak256\n        /* \"contracts/Etherise_DApp.sol\":3376:3407  campaigns[_campaignID].isActive */\n      0x06\n      add\n      0x14\n      swap1\n      sload\n      swap1\n      0x0100\n      exp\n      swap1\n      div\n      0xff\n      and\n        /* \"contracts/Etherise_DApp.sol\":3368:3434  require(campaigns[_campaignID].isActive, \"Campaign is not active\") */\n      tag_66\n      jumpi\n      mload(0x40)\n      0x08c379a000000000000000000000000000000000000000000000000000000000\n      dup2\n      mstore\n      0x04\n      add\n      tag_67\n      swap1\n      tag_68\n      jump\t// in\n    tag_67:\n      mload(0x40)\n      dup1\n      swap2\n      sub\n      swap1\n      revert\n    tag_66:\n        /* \"contracts/Etherise_DApp.sol\":3480:3489  msg.value */\n      callvalue\n        /* \"contracts/Etherise_DApp.sol\":3444:3453  campaigns */\n      0x00\n        /* \"contracts/Etherise_DApp.sol\":3444:3466  campaigns[_campaignID] */\n      dup1\n        /* \"contracts/Etherise_DApp.sol\":3454:3465  _campaignID */\n      dup4\n        /* \"contracts/Etherise_DApp.sol\":3444:3466  campaigns[_campaignID] */\n      dup2\n      mstore\n      0x20\n      add\n      swap1\n      dup2\n      mstore\n      0x20\n      add\n      0x00\n      keccak256\n        /* \"contracts/Etherise_DApp.sol\":3444:3476  campaigns[_campaignID].ethRaised */\n      0x04\n      add\n      0x00\n        /* \"contracts/Etherise_DApp.sol\":3444:3489  campaigns[_campaignID].ethRaised += msg.value */\n      dup3\n      dup3\n      sload\n      tag_69\n      swap2\n      swap1\n      tag_70\n      jump\t// in\n    tag_69:\n      swap3\n      pop\n      pop\n      dup2\n      swap1\n      sstore\n      pop\n        /* \"contracts/Etherise_DApp.sol\":3499:3521  transactionsByCampaign */\n      0x01\n        /* \"contracts/Etherise_DApp.sol\":3499:3534  transactionsByCampaign[_campaignID] */\n      0x00\n        /* \"contracts/Etherise_DApp.sol\":3522:3533  _campaignID */\n      dup3\n        /* \"contracts/Etherise_DApp.sol\":3499:3534  transactionsByCampaign[_campaignID] */\n      dup2\n      mstore\n      0x20\n      add\n      swap1\n      dup2\n      mstore\n      0x20\n      add\n      0x00\n      keccak256\n        /* \"contracts/Etherise_DApp.sol\":3540:3738  Transaction(... */\n      mload(0x40)\n      dup1\n      0xc0\n      add\n      0x40\n      mstore\n      dup1\n        /* \"contracts/Etherise_DApp.sol\":3610:3611  1 */\n      0x01\n        /* \"contracts/Etherise_DApp.sol\":3565:3587  transactionsByCampaign */\n      dup1\n        /* \"contracts/Etherise_DApp.sol\":3565:3600  transactionsByCampaign[_campaignID] */\n      0x00\n        /* \"contracts/Etherise_DApp.sol\":3588:3599  _campaignID */\n      dup7\n        /* \"contracts/Etherise_DApp.sol\":3565:3600  transactionsByCampaign[_campaignID] */\n      dup2\n      mstore\n      0x20\n      add\n      swap1\n      dup2\n      mstore\n      0x20\n      add\n      0x00\n      keccak256\n        /* \"contracts/Etherise_DApp.sol\":3565:3607  transactionsByCampaign[_campaignID].length */\n      dup1\n      sload\n      swap1\n      pop\n        /* \"contracts/Etherise_DApp.sol\":3565:3611  transactionsByCampaign[_campaignID].length + 1 */\n      tag_71\n      swap2\n      swap1\n      tag_70\n      jump\t// in\n    tag_71:\n        /* \"contracts/Etherise_DApp.sol\":3540:3738  Transaction(... */\n      dup2\n      mstore\n      0x20\n      add\n        /* \"contracts/Etherise_DApp.sol\":3625:3634  msg.value */\n      callvalue\n        /* \"contracts/Etherise_DApp.sol\":3540:3738  Transaction(... */\n      dup2\n      mstore\n      0x20\n      add\n        /* \"contracts/Etherise_DApp.sol\":3656:3660  this */\n      address\n        /* \"contracts/Etherise_DApp.sol\":3540:3738  Transaction(... */\n      0xffffffffffffffffffffffffffffffffffffffff\n      and\n      dup2\n      mstore\n      0x20\n      add\n        /* \"contracts/Etherise_DApp.sol\":3675:3685  msg.sender */\n      caller\n        /* \"contracts/Etherise_DApp.sol\":3540:3738  Transaction(... */\n      0xffffffffffffffffffffffffffffffffffffffff\n      and\n      dup2\n      mstore\n      0x20\n      add\n        /* \"contracts/Etherise_DApp.sol\":3699:3710  _campaignID */\n      dup4\n        /* \"contracts/Etherise_DApp.sol\":3540:3738  Transaction(... */\n      dup2\n      mstore\n      0x20\n      add\n        /* \"contracts/Etherise_DApp.sol\":3724:3728  true */\n      0x01\n        /* \"contracts/Etherise_DApp.sol\":3540:3738  Transaction(... */\n      iszero\n      iszero\n      dup2\n      mstore\n      pop\n        /* \"contracts/Etherise_DApp.sol\":3499:3739  transactionsByCampaign[_campaignID].push(Transaction(... */\n      swap1\n      dup1\n      0x01\n      dup2\n      sload\n      add\n      dup1\n      dup3\n      sstore\n      dup1\n      swap2\n      pop\n      pop\n      0x01\n      swap1\n      sub\n      swap1\n      0x00\n      mstore\n      keccak256(0x00, 0x20)\n      swap1\n      0x06\n      mul\n      add\n      0x00\n      swap1\n      swap2\n      swap1\n      swap2\n      swap1\n      swap2\n      pop\n      0x00\n      dup3\n      add\n      mload\n      dup2\n      0x00\n      add\n      sstore\n      0x20\n      dup3\n      add\n      mload\n      dup2\n      0x01\n      add\n      sstore\n      0x40\n      dup3\n      add\n      mload\n      dup2\n      0x02\n      add\n      exp(0x0100, 0x00)\n      dup2\n      sload\n      dup2\n      0xffffffffffffffffffffffffffffffffffffffff\n      mul\n      not\n      and\n      swap1\n      dup4\n      0xffffffffffffffffffffffffffffffffffffffff\n      and\n      mul\n      or\n      swap1\n      sstore\n      pop\n      0x60\n      dup3\n      add\n      mload\n      dup2\n      0x03\n      add\n      exp(0x0100, 0x00)\n      dup2\n      sload\n      dup2\n      0xffffffffffffffffffffffffffffffffffffffff\n      mul\n      not\n      and\n      swap1\n      dup4\n      0xffffffffffffffffffffffffffffffffffffffff\n      and\n      mul\n      or\n      swap1\n      sstore\n      pop\n      0x80\n      dup3\n      add\n      mload\n      dup2\n      0x04\n      add\n      sstore\n      0xa0\n      dup3\n      add\n      mload\n      dup2\n      0x05\n      add\n      exp(0x0100, 0x00)\n      dup2\n      sload\n      dup2\n      0xff\n      mul\n      not\n      and\n      swap1\n      dup4\n      iszero\n      iszero\n      mul\n      or\n      swap1\n      sstore\n      pop\n      pop\n      pop\n        /* \"contracts/Etherise_DApp.sol\":3290:3746  function contributeToCampaign(uint256 _campaignID) external payable {... */\n      pop\n      jump\t// out\n        /* \"contracts/Etherise_DApp.sol\":744:789  mapping(uint256 => Campaign) public campaigns */\n    tag_20:\n      mstore(0x20, 0x00)\n      dup1\n      0x00\n      mstore\n      keccak256(0x00, 0x40)\n      0x00\n      swap2\n      pop\n      swap1\n      pop\n      dup1\n      0x00\n      add\n      sload\n      swap1\n      dup1\n      0x01\n      add\n      dup1\n      sload\n      tag_73\n      swap1\n      tag_74\n      jump\t// in\n    tag_73:\n      dup1\n      0x1f\n      add\n      0x20\n      dup1\n      swap2\n      div\n      mul\n      0x20\n      add\n      mload(0x40)\n      swap1\n      dup2\n      add\n      0x40\n      mstore\n      dup1\n      swap3\n      swap2\n      swap1\n      dup2\n      dup2\n      mstore\n      0x20\n      add\n      dup3\n      dup1\n      sload\n      tag_75\n      swap1\n      tag_74\n      jump\t// in\n    tag_75:\n      dup1\n      iszero\n      tag_76\n      jumpi\n      dup1\n      0x1f\n      lt\n      tag_77\n      jumpi\n      0x0100\n      dup1\n      dup4\n      sload\n      div\n      mul\n      dup4\n      mstore\n      swap2\n      0x20\n      add\n      swap2\n      jump(tag_76)\n    tag_77:\n      dup3\n      add\n      swap2\n      swap1\n      0x00\n      mstore\n      keccak256(0x00, 0x20)\n      swap1\n    tag_78:\n      dup2\n      sload\n      dup2\n      mstore\n      swap1\n      0x01\n      add\n      swap1\n      0x20\n      add\n      dup1\n      dup4\n      gt\n      tag_78\n      jumpi\n      dup3\n      swap1\n      sub\n      0x1f\n      and\n      dup3\n      add\n      swap2\n    tag_76:\n      pop\n      pop\n      pop\n      pop\n      pop\n      swap1\n      dup1\n      0x02\n      add\n      dup1\n      sload\n      tag_79\n      swap1\n      tag_74\n      jump\t// in\n    tag_79:\n      dup1\n      0x1f\n      add\n      0x20\n      dup1\n      swap2\n      div\n      mul\n      0x20\n      add\n      mload(0x40)\n      swap1\n      dup2\n      add\n      0x40\n      mstore\n      dup1\n      swap3\n      swap2\n      swap1\n      dup2\n      dup2\n      mstore\n      0x20\n      add\n      dup3\n      dup1\n      sload\n      tag_80\n      swap1\n      tag_74\n      jump\t// in\n    tag_80:\n      dup1\n      iszero\n      tag_81\n      jumpi\n      dup1\n      0x1f\n      lt\n      tag_82\n      jumpi\n      0x0100\n      dup1\n      dup4\n      sload\n      div\n      mul\n      dup4\n      mstore\n      swap2\n      0x20\n      add\n      swap2\n      jump(tag_81)\n    tag_82:\n      dup3\n      add\n      swap2\n      swap1\n      0x00\n      mstore\n      keccak256(0x00, 0x20)\n      swap1\n    tag_83:\n      dup2\n      sload\n      dup2\n      mstore\n      swap1\n      0x01\n      add\n      swap1\n      0x20\n      add\n      dup1\n      dup4\n      gt\n      tag_83\n      jumpi\n      dup3\n      swap1\n      sub\n      0x1f\n      and\n      dup3\n      add\n      swap2\n    tag_81:\n      pop\n      pop\n      pop\n      pop\n      pop\n      swap1\n      dup1\n      0x03\n      add\n      sload\n      swap1\n      dup1\n      0x04\n      add\n      sload\n      swap1\n      dup1\n      0x05\n      add\n      dup1\n      sload\n      tag_84\n      swap1\n      tag_74\n      jump\t// in\n    tag_84:\n      dup1\n      0x1f\n      add\n      0x20\n      dup1\n      swap2\n      div\n      mul\n      0x20\n      add\n      mload(0x40)\n      swap1\n      dup2\n      add\n      0x40\n      mstore\n      dup1\n      swap3\n      swap2\n      swap1\n      dup2\n      dup2\n      mstore\n      0x20\n      add\n      dup3\n      dup1\n      sload\n      tag_85\n      swap1\n      tag_74\n      jump\t// in\n    tag_85:\n      dup1\n      iszero\n      tag_86\n      jumpi\n      dup1\n      0x1f\n      lt\n      tag_87\n      jumpi\n      0x0100\n      dup1\n      dup4\n      sload\n      div\n      mul\n      dup4\n      mstore\n      swap2\n      0x20\n      add\n      swap2\n      jump(tag_86)\n    tag_87:\n      dup3\n      add\n      swap2\n      swap1\n      0x00\n      mstore\n      keccak256(0x00, 0x20)\n      swap1\n    tag_88:\n      dup2\n      sload\n      dup2\n      mstore\n      swap1\n      0x01\n      add\n      swap1\n      0x20\n      add\n      dup1\n      dup4\n      gt\n      tag_88\n      jumpi\n      dup3\n      swap1\n      sub\n      0x1f\n      and\n      dup3\n      add\n      swap2\n    tag_86:\n      pop\n      pop\n      pop\n      pop\n      pop\n      swap1\n      dup1\n      0x06\n      add\n      0x00\n      swap1\n      sload\n      swap1\n      0x0100\n      exp\n      swap1\n      div\n      0xffffffffffffffffffffffffffffffffffffffff\n      and\n      swap1\n      dup1\n      0x06\n      add\n      0x14\n      swap1\n      sload\n      swap1\n      0x0100\n      exp\n      swap1\n      div\n      0xff\n      and\n      swap1\n      dup1\n      0x07\n      add\n      dup1\n      sload\n      tag_89\n      swap1\n      tag_74\n      jump\t// in\n    tag_89:\n      dup1\n      0x1f\n      add\n      0x20\n      dup1\n      swap2\n      div\n      mul\n      0x20\n      add\n      mload(0x40)\n      swap1\n      dup2\n      add\n      0x40\n      mstore\n      dup1\n      swap3\n      swap2\n      swap1\n      dup2\n      dup2\n      mstore\n      0x20\n      add\n      dup3\n      dup1\n      sload\n      tag_90\n      swap1\n      tag_74\n      jump\t// in\n    tag_90:\n      dup1\n      iszero\n      tag_91\n      jumpi\n      dup1\n      0x1f\n      lt\n      tag_92\n      jumpi\n      0x0100\n      dup1\n      dup4\n      sload\n      div\n      mul\n      dup4\n      mstore\n      swap2\n      0x20\n      add\n      swap2\n      jump(tag_91)\n    tag_92:\n      dup3\n      add\n      swap2\n      swap1\n      0x00\n      mstore\n      keccak256(0x00, 0x20)\n      swap1\n    tag_93:\n      dup2\n      sload\n      dup2\n      mstore\n      swap1\n      0x01\n      add\n      swap1\n      0x20\n      add\n      dup1\n      dup4\n      gt\n      tag_93\n      jumpi\n      dup3\n      swap1\n      sub\n      0x1f\n      and\n      dup3\n      add\n      swap2\n    tag_91:\n      pop\n      pop\n      pop\n      pop\n      pop\n      swap1\n      pop\n      dup10\n      jump\t// out\n        /* \"contracts/Etherise_DApp.sol\":865:928  mapping(uint256 => Transaction[]) public transactionsByCampaign */\n    tag_27:\n      mstore(0x20, 0x01)\n      dup2\n      0x00\n      mstore\n      keccak256(0x00, 0x40)\n      dup2\n      dup2\n      sload\n      dup2\n      lt\n      tag_94\n      jumpi\n      0x00\n      dup1\n      revert\n    tag_94:\n      swap1\n      0x00\n      mstore\n      keccak256(0x00, 0x20)\n      swap1\n      0x06\n      mul\n      add\n      0x00\n      swap2\n      pop\n      swap2\n      pop\n      pop\n      dup1\n      0x00\n      add\n      sload\n      swap1\n      dup1\n      0x01\n      add\n      sload\n      swap1\n      dup1\n      0x02\n      add\n      0x00\n      swap1\n      sload\n      swap1\n      0x0100\n      exp\n      swap1\n      div\n      0xffffffffffffffffffffffffffffffffffffffff\n      and\n      swap1\n      dup1\n      0x03\n      add\n      0x00\n      swap1\n      sload\n      swap1\n      0x0100\n      exp\n      swap1\n      div\n      0xffffffffffffffffffffffffffffffffffffffff\n      and\n      swap1\n      dup1\n      0x04\n      add\n      sload\n      swap1\n      dup1\n      0x05\n      add\n      0x00\n      swap1\n      sload\n      swap1\n      0x0100\n      exp\n      swap1\n      div\n      0xff\n      and\n      swap1\n      pop\n      dup7\n      jump\t// out\n        /* \"contracts/Etherise_DApp.sol\":1726:1854  function getCampaign(uint256 _campaignID) external view returns (Campaign memory) {... */\n    tag_33:\n        /* \"contracts/Etherise_DApp.sol\":1791:1806  Campaign memory */\n      tag_96\n      tag_97\n      jump\t// in\n    tag_96:\n        /* \"contracts/Etherise_DApp.sol\":1825:1834  campaigns */\n      0x00\n        /* \"contracts/Etherise_DApp.sol\":1825:1847  campaigns[_campaignID] */\n      dup1\n        /* \"contracts/Etherise_DApp.sol\":1835:1846  _campaignID */\n      dup4\n        /* \"contracts/Etherise_DApp.sol\":1825:1847  campaigns[_campaignID] */\n      dup2\n      mstore\n      0x20\n      add\n      swap1\n      dup2\n      mstore\n      0x20\n      add\n      0x00\n      keccak256\n        /* \"contracts/Etherise_DApp.sol\":1818:1847  return campaigns[_campaignID] */\n      mload(0x40)\n      dup1\n      0x0120\n      add\n      0x40\n      mstore\n      swap1\n      dup2\n      0x00\n      dup3\n      add\n      sload\n      dup2\n      mstore\n      0x20\n      add\n      0x01\n      dup3\n      add\n      dup1\n      sload\n      tag_99\n      swap1\n      tag_74\n      jump\t// in\n    tag_99:\n      dup1\n      0x1f\n      add\n      0x20\n      dup1\n      swap2\n      div\n      mul\n      0x20\n      add\n      mload(0x40)\n      swap1\n      dup2\n      add\n      0x40\n      mstore\n      dup1\n      swap3\n      swap2\n      swap1\n      dup2\n      dup2\n      mstore\n      0x20\n      add\n      dup3\n      dup1\n      sload\n      tag_100\n      swap1\n      tag_74\n      jump\t// in\n    tag_100:\n      dup1\n      iszero\n      tag_101\n      jumpi\n      dup1\n      0x1f\n      lt\n      tag_102\n      jumpi\n      0x0100\n      dup1\n      dup4\n      sload\n      div\n      mul\n      dup4\n      mstore\n      swap2\n      0x20\n      add\n      swap2\n      jump(tag_101)\n    tag_102:\n      dup3\n      add\n      swap2\n      swap1\n      0x00\n      mstore\n      keccak256(0x00, 0x20)\n      swap1\n    tag_103:\n      dup2\n      sload\n      dup2\n      mstore\n      swap1\n      0x01\n      add\n      swap1\n      0x20\n      add\n      dup1\n      dup4\n      gt\n      tag_103\n      jumpi\n      dup3\n      swap1\n      sub\n      0x1f\n      and\n      dup3\n      add\n      swap2\n    tag_101:\n      pop\n      pop\n      pop\n      pop\n      pop\n      dup2\n      mstore\n      0x20\n      add\n      0x02\n      dup3\n      add\n      dup1\n      sload\n      tag_104\n      swap1\n      tag_74\n      jump\t// in\n    tag_104:\n      dup1\n      0x1f\n      add\n      0x20\n      dup1\n      swap2\n      div\n      mul\n      0x20\n      add\n      mload(0x40)\n      swap1\n      dup2\n      add\n      0x40\n      mstore\n      dup1\n      swap3\n      swap2\n      swap1\n      dup2\n      dup2\n      mstore\n      0x20\n      add\n      dup3\n      dup1\n      sload\n      tag_105\n      swap1\n      tag_74\n      jump\t// in\n    tag_105:\n      dup1\n      iszero\n      tag_106\n      jumpi\n      dup1\n      0x1f\n      lt\n      tag_107\n      jumpi\n      0x0100\n      dup1\n      dup4\n      sload\n      div\n      mul\n      dup4\n      mstore\n      swap2\n      0x20\n      add\n      swap2\n      jump(tag_106)\n    tag_107:\n      dup3\n      add\n      swap2\n      swap1\n      0x00\n      mstore\n      keccak256(0x00, 0x20)\n      swap1\n    tag_108:\n      dup2\n      sload\n      dup2\n      mstore\n      swap1\n      0x01\n      add\n      swap1\n      0x20\n      add\n      dup1\n      dup4\n      gt\n      tag_108\n      jumpi\n      dup3\n      swap1\n      sub\n      0x1f\n      and\n      dup3\n      add\n      swap2\n    tag_106:\n      pop\n      pop\n      pop\n      pop\n      pop\n      dup2\n      mstore\n      0x20\n      add\n      0x03\n      dup3\n      add\n      sload\n      dup2\n      mstore\n      0x20\n      add\n      0x04\n      dup3\n      add\n      sload\n      dup2\n      mstore\n      0x20\n      add\n      0x05\n      dup3\n      add\n      dup1\n      sload\n      tag_109\n      swap1\n      tag_74\n      jump\t// in\n    tag_109:\n      dup1\n      0x1f\n      add\n      0x20\n      dup1\n      swap2\n      div\n      mul\n      0x20\n      add\n      mload(0x40)\n      swap1\n      dup2\n      add\n      0x40\n      mstore\n      dup1\n      swap3\n      swap2\n      swap1\n      dup2\n      dup2\n      mstore\n      0x20\n      add\n      dup3\n      dup1\n      sload\n      tag_110\n      swap1\n      tag_74\n      jump\t// in\n    tag_110:\n      dup1\n      iszero\n      tag_111\n      jumpi\n      dup1\n      0x1f\n      lt\n      tag_112\n      jumpi\n      0x0100\n      dup1\n      dup4\n      sload\n      div\n      mul\n      dup4\n      mstore\n      swap2\n      0x20\n      add\n      swap2\n      jump(tag_111)\n    tag_112:\n      dup3\n      add\n      swap2\n      swap1\n      0x00\n      mstore\n      keccak256(0x00, 0x20)\n      swap1\n    tag_113:\n      dup2\n      sload\n      dup2\n      mstore\n      swap1\n      0x01\n      add\n      swap1\n      0x20\n      add\n      dup1\n      dup4\n      gt\n      tag_113\n      jumpi\n      dup3\n      swap1\n      sub\n      0x1f\n      and\n      dup3\n      add\n      swap2\n    tag_111:\n      pop\n      pop\n      pop\n      pop\n      pop\n      dup2\n      mstore\n      0x20\n      add\n      0x06\n      dup3\n      add\n      0x00\n      swap1\n      sload\n      swap1\n      0x0100\n      exp\n      swap1\n      div\n      0xffffffffffffffffffffffffffffffffffffffff\n      and\n      0xffffffffffffffffffffffffffffffffffffffff\n      and\n      0xffffffffffffffffffffffffffffffffffffffff\n      and\n      dup2\n      mstore\n      0x20\n      add\n      0x06\n      dup3\n      add\n      0x14\n      swap1\n      sload\n      swap1\n      0x0100\n      exp\n      swap1\n      div\n      0xff\n      and\n      iszero\n      iszero\n      iszero\n      iszero\n      dup2\n      mstore\n      0x20\n      add\n      0x07\n      dup3\n      add\n      dup1\n      sload\n      tag_114\n      swap1\n      tag_74\n      jump\t// in\n    tag_114:\n      dup1\n      0x1f\n      add\n      0x20\n      dup1\n      swap2\n      div\n      mul\n      0x20\n      add\n      mload(0x40)\n      swap1\n      dup2\n      add\n      0x40\n      mstore\n      dup1\n      swap3\n      swap2\n      swap1\n      dup2\n      dup2\n      mstore\n      0x20\n      add\n      dup3\n      dup1\n      sload\n      tag_115\n      swap1\n      tag_74\n      jump\t// in\n    tag_115:\n      dup1\n      iszero\n      tag_116\n      jumpi\n      dup1\n      0x1f\n      lt\n      tag_117\n      jumpi\n      0x0100\n      dup1\n      dup4\n      sload\n      div\n      mul\n      dup4\n      mstore\n      swap2\n      0x20\n      add\n      swap2\n      jump(tag_116)\n    tag_117:\n      dup3\n      add\n      swap2\n      swap1\n      0x00\n      mstore\n      keccak256(0x00, 0x20)\n      swap1\n    tag_118:\n      dup2\n      sload\n      dup2\n      mstore\n      swap1\n      0x01\n      add\n      swap1\n      0x20\n      add\n      dup1\n      dup4\n      gt\n      tag_118\n      jumpi\n      dup3\n      swap1\n      sub\n      0x1f\n      and\n      dup3\n      add\n      swap2\n    tag_116:\n      pop\n      pop\n      pop\n      pop\n      pop\n      dup2\n      mstore\n      pop\n      pop\n      swap1\n      pop\n        /* \"contracts/Etherise_DApp.sol\":1726:1854  function getCampaign(uint256 _campaignID) external view returns (Campaign memory) {... */\n      swap2\n      swap1\n      pop\n      jump\t// out\n        /* \"contracts/Etherise_DApp.sol\":2593:3001  function withdrawFromCampaign(uint256 _campaignID, uint256 _amount) external {... */\n    tag_39:\n        /* \"contracts/Etherise_DApp.sol\":2702:2711  campaigns */\n      0x00\n        /* \"contracts/Etherise_DApp.sol\":2702:2724  campaigns[_campaignID] */\n      dup1\n        /* \"contracts/Etherise_DApp.sol\":2712:2723  _campaignID */\n      dup4\n        /* \"contracts/Etherise_DApp.sol\":2702:2724  campaigns[_campaignID] */\n      dup2\n      mstore\n      0x20\n      add\n      swap1\n      dup2\n      mstore\n      0x20\n      add\n      0x00\n      keccak256\n        /* \"contracts/Etherise_DApp.sol\":2702:2738  campaigns[_campaignID].creatorWallet */\n      0x06\n      add\n      0x00\n      swap1\n      sload\n      swap1\n      0x0100\n      exp\n      swap1\n      div\n      0xffffffffffffffffffffffffffffffffffffffff\n      and\n        /* \"contracts/Etherise_DApp.sol\":2688:2738  msg.sender == campaigns[_campaignID].creatorWallet */\n      0xffffffffffffffffffffffffffffffffffffffff\n      and\n        /* \"contracts/Etherise_DApp.sol\":2688:2698  msg.sender */\n      caller\n        /* \"contracts/Etherise_DApp.sol\":2688:2738  msg.sender == campaigns[_campaignID].creatorWallet */\n      0xffffffffffffffffffffffffffffffffffffffff\n      and\n      eq\n        /* \"contracts/Etherise_DApp.sol\":2680:2790  require(msg.sender == campaigns[_campaignID].creatorWallet, \"Only the creator can withdraw from the campaign\") */\n      tag_120\n      jumpi\n      mload(0x40)\n      0x08c379a000000000000000000000000000000000000000000000000000000000\n      dup2\n      mstore\n      0x04\n      add\n      tag_121\n      swap1\n      tag_122\n      jump\t// in\n    tag_121:\n      mload(0x40)\n      dup1\n      swap2\n      sub\n      swap1\n      revert\n    tag_120:\n        /* \"contracts/Etherise_DApp.sol\":2819:2828  campaigns */\n      0x00\n        /* \"contracts/Etherise_DApp.sol\":2819:2841  campaigns[_campaignID] */\n      dup1\n        /* \"contracts/Etherise_DApp.sol\":2829:2840  _campaignID */\n      dup4\n        /* \"contracts/Etherise_DApp.sol\":2819:2841  campaigns[_campaignID] */\n      dup2\n      mstore\n      0x20\n      add\n      swap1\n      dup2\n      mstore\n      0x20\n      add\n      0x00\n      keccak256\n        /* \"contracts/Etherise_DApp.sol\":2819:2851  campaigns[_campaignID].ethRaised */\n      0x04\n      add\n      sload\n        /* \"contracts/Etherise_DApp.sol\":2808:2815  _amount */\n      dup2\n        /* \"contracts/Etherise_DApp.sol\":2808:2851  _amount <= campaigns[_campaignID].ethRaised */\n      gt\n      iszero\n        /* \"contracts/Etherise_DApp.sol\":2800:2894  require(_amount <= campaigns[_campaignID].ethRaised, \"Withdrawal amount exceeds raised funds\") */\n      tag_123\n      jumpi\n      mload(0x40)\n      0x08c379a000000000000000000000000000000000000000000000000000000000\n      dup2\n      mstore\n      0x04\n      add\n      tag_124\n      swap1\n      tag_125\n      jump\t// in\n    tag_124:\n      mload(0x40)\n      dup1\n      swap2\n      sub\n      swap1\n      revert\n    tag_123:\n        /* \"contracts/Etherise_DApp.sol\":2912:2922  msg.sender */\n      caller\n        /* \"contracts/Etherise_DApp.sol\":2904:2932  payable(msg.sender).transfer */\n      0xffffffffffffffffffffffffffffffffffffffff\n      and\n        /* \"contracts/Etherise_DApp.sol\":2904:2941  payable(msg.sender).transfer(_amount) */\n      0x08fc\n        /* \"contracts/Etherise_DApp.sol\":2933:2940  _amount */\n      dup3\n        /* \"contracts/Etherise_DApp.sol\":2904:2941  payable(msg.sender).transfer(_amount) */\n      swap1\n      dup2\n      iszero\n      mul\n      swap1\n      mload(0x40)\n      0x00\n      mload(0x40)\n      dup1\n      dup4\n      sub\n      dup2\n      dup6\n      dup9\n      dup9\n      call\n      swap4\n      pop\n      pop\n      pop\n      pop\n      iszero\n      dup1\n      iszero\n      tag_127\n      jumpi\n      returndatasize\n      0x00\n      dup1\n      returndatacopy\n      revert(0x00, returndatasize)\n    tag_127:\n      pop\n        /* \"contracts/Etherise_DApp.sol\":2987:2994  _amount */\n      dup1\n        /* \"contracts/Etherise_DApp.sol\":2951:2960  campaigns */\n      0x00\n        /* \"contracts/Etherise_DApp.sol\":2951:2973  campaigns[_campaignID] */\n      dup1\n        /* \"contracts/Etherise_DApp.sol\":2961:2972  _campaignID */\n      dup5\n        /* \"contracts/Etherise_DApp.sol\":2951:2973  campaigns[_campaignID] */\n      dup2\n      mstore\n      0x20\n      add\n      swap1\n      dup2\n      mstore\n      0x20\n      add\n      0x00\n      keccak256\n        /* \"contracts/Etherise_DApp.sol\":2951:2983  campaigns[_campaignID].ethRaised */\n      0x04\n      add\n      0x00\n        /* \"contracts/Etherise_DApp.sol\":2951:2994  campaigns[_campaignID].ethRaised -= _amount */\n      dup3\n      dup3\n      sload\n      tag_128\n      swap2\n      swap1\n      tag_129\n      jump\t// in\n    tag_128:\n      swap3\n      pop\n      pop\n      dup2\n      swap1\n      sstore\n      pop\n        /* \"contracts/Etherise_DApp.sol\":2593:3001  function withdrawFromCampaign(uint256 _campaignID, uint256 _amount) external {... */\n      pop\n      pop\n      jump\t// out\n        /* \"contracts/Etherise_DApp.sol\":2288:2501  function deleteCampaign(uint256 _campaignID) external {... */\n    tag_43:\n        /* \"contracts/Etherise_DApp.sol\":2374:2383  campaigns */\n      0x00\n        /* \"contracts/Etherise_DApp.sol\":2374:2396  campaigns[_campaignID] */\n      dup1\n        /* \"contracts/Etherise_DApp.sol\":2384:2395  _campaignID */\n      dup3\n        /* \"contracts/Etherise_DApp.sol\":2374:2396  campaigns[_campaignID] */\n      dup2\n      mstore\n      0x20\n      add\n      swap1\n      dup2\n      mstore\n      0x20\n      add\n      0x00\n      keccak256\n        /* \"contracts/Etherise_DApp.sol\":2374:2410  campaigns[_campaignID].creatorWallet */\n      0x06\n      add\n      0x00\n      swap1\n      sload\n      swap1\n      0x0100\n      exp\n      swap1\n      div\n      0xffffffffffffffffffffffffffffffffffffffff\n      and\n        /* \"contracts/Etherise_DApp.sol\":2360:2410  msg.sender == campaigns[_campaignID].creatorWallet */\n      0xffffffffffffffffffffffffffffffffffffffff\n      and\n        /* \"contracts/Etherise_DApp.sol\":2360:2370  msg.sender */\n      caller\n        /* \"contracts/Etherise_DApp.sol\":2360:2410  msg.sender == campaigns[_campaignID].creatorWallet */\n      0xffffffffffffffffffffffffffffffffffffffff\n      and\n      eq\n        /* \"contracts/Etherise_DApp.sol\":2352:2455  require(msg.sender == campaigns[_campaignID].creatorWallet, \"Only the creator can delete the campaign\") */\n      tag_131\n      jumpi\n      mload(0x40)\n      0x08c379a000000000000000000000000000000000000000000000000000000000\n      dup2\n      mstore\n      0x04\n      add\n      tag_132\n      swap1\n      tag_133\n      jump\t// in\n    tag_132:\n      mload(0x40)\n      dup1\n      swap2\n      sub\n      swap1\n      revert\n    tag_131:\n        /* \"contracts/Etherise_DApp.sol\":2472:2481  campaigns */\n      0x00\n        /* \"contracts/Etherise_DApp.sol\":2472:2494  campaigns[_campaignID] */\n      dup1\n        /* \"contracts/Etherise_DApp.sol\":2482:2493  _campaignID */\n      dup3\n        /* \"contracts/Etherise_DApp.sol\":2472:2494  campaigns[_campaignID] */\n      dup2\n      mstore\n      0x20\n      add\n      swap1\n      dup2\n      mstore\n      0x20\n      add\n      0x00\n      keccak256\n      0x00\n        /* \"contracts/Etherise_DApp.sol\":2465:2494  delete campaigns[_campaignID] */\n      dup1\n      dup3\n      add\n      0x00\n      swap1\n      sstore\n      0x01\n      dup3\n      add\n      0x00\n      tag_134\n      swap2\n      swap1\n      tag_135\n      jump\t// in\n    tag_134:\n      0x02\n      dup3\n      add\n      0x00\n      tag_136\n      swap2\n      swap1\n      tag_135\n      jump\t// in\n    tag_136:\n      0x03\n      dup3\n      add\n      0x00\n      swap1\n      sstore\n      0x04\n      dup3\n      add\n      0x00\n      swap1\n      sstore\n      0x05\n      dup3\n      add\n      0x00\n      tag_137\n      swap2\n      swap1\n      tag_135\n      jump\t// in\n    tag_137:\n      0x06\n      dup3\n      add\n      exp(0x0100, 0x00)\n      dup2\n      sload\n      swap1\n      0xffffffffffffffffffffffffffffffffffffffff\n      mul\n      not\n      and\n      swap1\n      sstore\n      0x06\n      dup3\n      add\n      exp(0x0100, 0x14)\n      dup2\n      sload\n      swap1\n      0xff\n      mul\n      not\n      and\n      swap1\n      sstore\n      0x07\n      dup3\n      add\n      0x00\n      tag_138\n      swap2\n      swap1\n      tag_135\n      jump\t// in\n    tag_138:\n      pop\n      pop\n        /* \"contracts/Etherise_DApp.sol\":2288:2501  function deleteCampaign(uint256 _campaignID) external {... */\n      pop\n      jump\t// out\n        /* \"contracts/Etherise_DApp.sol\":1900:2194  function getAllCampaigns() external view returns (Campaign[] memory) {... */\n    tag_46:\n        /* \"contracts/Etherise_DApp.sol\":1950:1967  Campaign[] memory */\n      0x60\n        /* \"contracts/Etherise_DApp.sol\":1979:2009  Campaign[] memory allCampaigns */\n      0x00\n        /* \"contracts/Etherise_DApp.sol\":2027:2042  campaignCounter */\n      sload(0x02)\n        /* \"contracts/Etherise_DApp.sol\":2012:2043  new Campaign[](campaignCounter) */\n      0xffffffffffffffff\n      dup2\n      gt\n      iszero\n      tag_140\n      jumpi\n      mstore(0x00, 0x4e487b7100000000000000000000000000000000000000000000000000000000)\n      mstore(0x04, 0x41)\n      revert(0x00, 0x24)\n    tag_140:\n      mload(0x40)\n      swap1\n      dup1\n      dup3\n      mstore\n      dup1\n      0x20\n      mul\n      0x20\n      add\n      dup3\n      add\n      0x40\n      mstore\n      dup1\n      iszero\n      tag_141\n      jumpi\n      dup2\n      0x20\n      add\n    tag_142:\n      tag_143\n      tag_97\n      jump\t// in\n    tag_143:\n      dup2\n      mstore\n      0x20\n      add\n      swap1\n      0x01\n      swap1\n      sub\n      swap1\n      dup2\n      tag_142\n      jumpi\n      swap1\n      pop\n    tag_141:\n      pop\n        /* \"contracts/Etherise_DApp.sol\":1979:2043  Campaign[] memory allCampaigns = new Campaign[](campaignCounter) */\n      swap1\n      pop\n        /* \"contracts/Etherise_DApp.sol\":2058:2067  uint256 i */\n      0x00\n        /* \"contracts/Etherise_DApp.sol\":2070:2071  1 */\n      0x01\n        /* \"contracts/Etherise_DApp.sol\":2058:2071  uint256 i = 1 */\n      swap1\n      pop\n        /* \"contracts/Etherise_DApp.sol\":2053:2159  for (uint256 i = 1; i <= campaignCounter; i++) {... */\n    tag_144:\n        /* \"contracts/Etherise_DApp.sol\":2078:2093  campaignCounter */\n      sload(0x02)\n        /* \"contracts/Etherise_DApp.sol\":2073:2074  i */\n      dup2\n        /* \"contracts/Etherise_DApp.sol\":2073:2093  i <= campaignCounter */\n      gt\n        /* \"contracts/Etherise_DApp.sol\":2053:2159  for (uint256 i = 1; i <= campaignCounter; i++) {... */\n      tag_145\n      jumpi\n        /* \"contracts/Etherise_DApp.sol\":2136:2145  campaigns */\n      0x00\n        /* \"contracts/Etherise_DApp.sol\":2136:2148  campaigns[i] */\n      dup1\n        /* \"contracts/Etherise_DApp.sol\":2146:2147  i */\n      dup3\n        /* \"contracts/Etherise_DApp.sol\":2136:2148  campaigns[i] */\n      dup2\n      mstore\n      0x20\n      add\n      swap1\n      dup2\n      mstore\n      0x20\n      add\n      0x00\n      keccak256\n        /* \"contracts/Etherise_DApp.sol\":2114:2148  allCampaigns[i - 1] = campaigns[i] */\n      mload(0x40)\n      dup1\n      0x0120\n      add\n      0x40\n      mstore\n      swap1\n      dup2\n      0x00\n      dup3\n      add\n      sload\n      dup2\n      mstore\n      0x20\n      add\n      0x01\n      dup3\n      add\n      dup1\n      sload\n      tag_147\n      swap1\n      tag_74\n      jump\t// in\n    tag_147:\n      dup1\n      0x1f\n      add\n      0x20\n      dup1\n      swap2\n      div\n      mul\n      0x20\n      add\n      mload(0x40)\n      swap1\n      dup2\n      add\n      0x40\n      mstore\n      dup1\n      swap3\n      swap2\n      swap1\n      dup2\n      dup2\n      mstore\n      0x20\n      add\n      dup3\n      dup1\n      sload\n      tag_148\n      swap1\n      tag_74\n      jump\t// in\n    tag_148:\n      dup1\n      iszero\n      tag_149\n      jumpi\n      dup1\n      0x1f\n      lt\n      tag_150\n      jumpi\n      0x0100\n      dup1\n      dup4\n      sload\n      div\n      mul\n      dup4\n      mstore\n      swap2\n      0x20\n      add\n      swap2\n      jump(tag_149)\n    tag_150:\n      dup3\n      add\n      swap2\n      swap1\n      0x00\n      mstore\n      keccak256(0x00, 0x20)\n      swap1\n    tag_151:\n      dup2\n      sload\n      dup2\n      mstore\n      swap1\n      0x01\n      add\n      swap1\n      0x20\n      add\n      dup1\n      dup4\n      gt\n      tag_151\n      jumpi\n      dup3\n      swap1\n      sub\n      0x1f\n      and\n      dup3\n      add\n      swap2\n    tag_149:\n      pop\n      pop\n      pop\n      pop\n      pop\n      dup2\n      mstore\n      0x20\n      add\n      0x02\n      dup3\n      add\n      dup1\n      sload\n      tag_152\n      swap1\n      tag_74\n      jump\t// in\n    tag_152:\n      dup1\n      0x1f\n      add\n      0x20\n      dup1\n      swap2\n      div\n      mul\n      0x20\n      add\n      mload(0x40)\n      swap1\n      dup2\n      add\n      0x40\n      mstore\n      dup1\n      swap3\n      swap2\n      swap1\n      dup2\n      dup2\n      mstore\n      0x20\n      add\n      dup3\n      dup1\n      sload\n      tag_153\n      swap1\n      tag_74\n      jump\t// in\n    tag_153:\n      dup1\n      iszero\n      tag_154\n      jumpi\n      dup1\n      0x1f\n      lt\n      tag_155\n      jumpi\n      0x0100\n      dup1\n      dup4\n      sload\n      div\n      mul\n      dup4\n      mstore\n      swap2\n      0x20\n      add\n      swap2\n      jump(tag_154)\n    tag_155:\n      dup3\n      add\n      swap2\n      swap1\n      0x00\n      mstore\n      keccak256(0x00, 0x20)\n      swap1\n    tag_156:\n      dup2\n      sload\n      dup2\n      mstore\n      swap1\n      0x01\n      add\n      swap1\n      0x20\n      add\n      dup1\n      dup4\n      gt\n      tag_156\n      jumpi\n      dup3\n      swap1\n      sub\n      0x1f\n      and\n      dup3\n      add\n      swap2\n    tag_154:\n      pop\n      pop\n      pop\n      pop\n      pop\n      dup2\n      mstore\n      0x20\n      add\n      0x03\n      dup3\n      add\n      sload\n      dup2\n      mstore\n      0x20\n      add\n      0x04\n      dup3\n      add\n      sload\n      dup2\n      mstore\n      0x20\n      add\n      0x05\n      dup3\n      add\n      dup1\n      sload\n      tag_157\n      swap1\n      tag_74\n      jump\t// in\n    tag_157:\n      dup1\n      0x1f\n      add\n      0x20\n      dup1\n      swap2\n      div\n      mul\n      0x20\n      add\n      mload(0x40)\n      swap1\n      dup2\n      add\n      0x40\n      mstore\n      dup1\n      swap3\n      swap2\n      swap1\n      dup2\n      dup2\n      mstore\n      0x20\n      add\n      dup3\n      dup1\n      sload\n      tag_158\n      swap1\n      tag_74\n      jump\t// in\n    tag_158:\n      dup1\n      iszero\n      tag_159\n      jumpi\n      dup1\n      0x1f\n      lt\n      tag_160\n      jumpi\n      0x0100\n      dup1\n      dup4\n      sload\n      div\n      mul\n      dup4\n      mstore\n      swap2\n      0x20\n      add\n      swap2\n      jump(tag_159)\n    tag_160:\n      dup3\n      add\n      swap2\n      swap1\n      0x00\n      mstore\n      keccak256(0x00, 0x20)\n      swap1\n    tag_161:\n      dup2\n      sload\n      dup2\n      mstore\n      swap1\n      0x01\n      add\n      swap1\n      0x20\n      add\n      dup1\n      dup4\n      gt\n      tag_161\n      jumpi\n      dup3\n      swap1\n      sub\n      0x1f\n      and\n      dup3\n      add\n      swap2\n    tag_159:\n      pop\n      pop\n      pop\n      pop\n      pop\n      dup2\n      mstore\n      0x20\n      add\n      0x06\n      dup3\n      add\n      0x00\n      swap1\n      sload\n      swap1\n      0x0100\n      exp\n      swap1\n      div\n      0xffffffffffffffffffffffffffffffffffffffff\n      and\n      0xffffffffffffffffffffffffffffffffffffffff\n      and\n      0xffffffffffffffffffffffffffffffffffffffff\n      and\n      dup2\n      mstore\n      0x20\n      add\n      0x06\n      dup3\n      add\n      0x14\n      swap1\n      sload\n      swap1\n      0x0100\n      exp\n      swap1\n      div\n      0xff\n      and\n      iszero\n      iszero\n      iszero\n      iszero\n      dup2\n      mstore\n      0x20\n      add\n      0x07\n      dup3\n      add\n      dup1\n      sload\n      tag_162\n      swap1\n      tag_74\n      jump\t// in\n    tag_162:\n      dup1\n      0x1f\n      add\n      0x20\n      dup1\n      swap2\n      div\n      mul\n      0x20\n      add\n      mload(0x40)\n      swap1\n      dup2\n      add\n      0x40\n      mstore\n      dup1\n      swap3\n      swap2\n      swap1\n      dup2\n      dup2\n      mstore\n      0x20\n      add\n      dup3\n      dup1\n      sload\n      tag_163\n      swap1\n      tag_74\n      jump\t// in\n    tag_163:\n      dup1\n      iszero\n      tag_164\n      jumpi\n      dup1\n      0x1f\n      lt\n      tag_165\n      jumpi\n      0x0100\n      dup1\n      dup4\n      sload\n      div\n      mul\n      dup4\n      mstore\n      swap2\n      0x20\n      add\n      swap2\n      jump(tag_164)\n    tag_165:\n      dup3\n      add\n      swap2\n      swap1\n      0x00\n      mstore\n      keccak256(0x00, 0x20)\n      swap1\n    tag_166:\n      dup2\n      sload\n      dup2\n      mstore\n      swap1\n      0x01\n      add\n      swap1\n      0x20\n      add\n      dup1\n      dup4\n      gt\n      tag_166\n      jumpi\n      dup3\n      swap1\n      sub\n      0x1f\n      and\n      dup3\n      add\n      swap2\n    tag_164:\n      pop\n      pop\n      pop\n      pop\n      pop\n      dup2\n      mstore\n      pop\n      pop\n        /* \"contracts/Etherise_DApp.sol\":2114:2126  allCampaigns */\n      dup3\n        /* \"contracts/Etherise_DApp.sol\":2131:2132  1 */\n      0x01\n        /* \"contracts/Etherise_DApp.sol\":2127:2128  i */\n      dup4\n        /* \"contracts/Etherise_DApp.sol\":2127:2132  i - 1 */\n      tag_167\n      swap2\n      swap1\n      tag_129\n      jump\t// in\n    tag_167:\n        /* \"contracts/Etherise_DApp.sol\":2114:2133  allCampaigns[i - 1] */\n      dup2\n      mload\n      dup2\n      lt\n      tag_168\n      jumpi\n      mstore(0x00, 0x4e487b7100000000000000000000000000000000000000000000000000000000)\n      mstore(0x04, 0x32)\n      revert(0x00, 0x24)\n    tag_168:\n      0x20\n      mul\n      0x20\n      add\n      add\n        /* \"contracts/Etherise_DApp.sol\":2114:2148  allCampaigns[i - 1] = campaigns[i] */\n      dup2\n      swap1\n      mstore\n      pop\n        /* \"contracts/Etherise_DApp.sol\":2095:2098  i++ */\n      dup1\n      dup1\n      tag_169\n      swap1\n      tag_170\n      jump\t// in\n    tag_169:\n      swap2\n      pop\n      pop\n        /* \"contracts/Etherise_DApp.sol\":2053:2159  for (uint256 i = 1; i <= campaignCounter; i++) {... */\n      jump(tag_144)\n    tag_145:\n      pop\n        /* \"contracts/Etherise_DApp.sol\":2175:2187  allCampaigns */\n      dup1\n        /* \"contracts/Etherise_DApp.sol\":2168:2187  return allCampaigns */\n      swap2\n      pop\n      pop\n        /* \"contracts/Etherise_DApp.sol\":1900:2194  function getAllCampaigns() external view returns (Campaign[] memory) {... */\n      swap1\n      jump\t// out\n        /* \"contracts/Etherise_DApp.sol\":1113:1659  function addCampaign(... */\n    tag_53:\n        /* \"contracts/Etherise_DApp.sol\":1357:1372  campaignCounter */\n      0x02\n      0x00\n        /* \"contracts/Etherise_DApp.sol\":1357:1374  campaignCounter++ */\n      dup2\n      sload\n      dup1\n      swap3\n      swap2\n      swap1\n      tag_172\n      swap1\n      tag_170\n      jump\t// in\n    tag_172:\n      swap2\n      swap1\n      pop\n      sstore\n      pop\n        /* \"contracts/Etherise_DApp.sol\":1413:1652  Campaign(... */\n      mload(0x40)\n      dup1\n      0x0120\n      add\n      0x40\n      mstore\n      dup1\n        /* \"contracts/Etherise_DApp.sol\":1435:1450  campaignCounter */\n      sload(0x02)\n        /* \"contracts/Etherise_DApp.sol\":1413:1652  Campaign(... */\n      dup2\n      mstore\n      0x20\n      add\n        /* \"contracts/Etherise_DApp.sol\":1464:1478  _campaignTitle */\n      dup8\n        /* \"contracts/Etherise_DApp.sol\":1413:1652  Campaign(... */\n      dup2\n      mstore\n      0x20\n      add\n        /* \"contracts/Etherise_DApp.sol\":1492:1506  _aboutCampaign */\n      dup7\n        /* \"contracts/Etherise_DApp.sol\":1413:1652  Campaign(... */\n      dup2\n      mstore\n      0x20\n      add\n        /* \"contracts/Etherise_DApp.sol\":1520:1528  _ethGoal */\n      dup6\n        /* \"contracts/Etherise_DApp.sol\":1413:1652  Campaign(... */\n      dup2\n      mstore\n      0x20\n      add\n        /* \"contracts/Etherise_DApp.sol\":1542:1543  0 */\n      0x00\n        /* \"contracts/Etherise_DApp.sol\":1413:1652  Campaign(... */\n      dup2\n      mstore\n      0x20\n      add\n        /* \"contracts/Etherise_DApp.sol\":1557:1570  _businessName */\n      dup5\n        /* \"contracts/Etherise_DApp.sol\":1413:1652  Campaign(... */\n      dup2\n      mstore\n      0x20\n      add\n        /* \"contracts/Etherise_DApp.sol\":1584:1594  msg.sender */\n      caller\n        /* \"contracts/Etherise_DApp.sol\":1413:1652  Campaign(... */\n      0xffffffffffffffffffffffffffffffffffffffff\n      and\n      dup2\n      mstore\n      0x20\n      add\n        /* \"contracts/Etherise_DApp.sol\":1608:1617  _isActive */\n      dup4\n        /* \"contracts/Etherise_DApp.sol\":1413:1652  Campaign(... */\n      iszero\n      iszero\n      dup2\n      mstore\n      0x20\n      add\n        /* \"contracts/Etherise_DApp.sol\":1631:1642  _coverImage */\n      dup3\n        /* \"contracts/Etherise_DApp.sol\":1413:1652  Campaign(... */\n      dup2\n      mstore\n      pop\n        /* \"contracts/Etherise_DApp.sol\":1384:1393  campaigns */\n      0x00\n        /* \"contracts/Etherise_DApp.sol\":1384:1410  campaigns[campaignCounter] */\n      dup1\n        /* \"contracts/Etherise_DApp.sol\":1394:1409  campaignCounter */\n      sload(0x02)\n        /* \"contracts/Etherise_DApp.sol\":1384:1410  campaigns[campaignCounter] */\n      dup2\n      mstore\n      0x20\n      add\n      swap1\n      dup2\n      mstore\n      0x20\n      add\n      0x00\n      keccak256\n        /* \"contracts/Etherise_DApp.sol\":1384:1652  campaigns[campaignCounter] = Campaign(... */\n      0x00\n      dup3\n      add\n      mload\n      dup2\n      0x00\n      add\n      sstore\n      0x20\n      dup3\n      add\n      mload\n      dup2\n      0x01\n      add\n      swap1\n      dup1\n      mload\n      swap1\n      0x20\n      add\n      swap1\n      tag_173\n      swap3\n      swap2\n      swap1\n      tag_174\n      jump\t// in\n    tag_173:\n      pop\n      0x40\n      dup3\n      add\n      mload\n      dup2\n      0x02\n      add\n      swap1\n      dup1\n      mload\n      swap1\n      0x20\n      add\n      swap1\n      tag_175\n      swap3\n      swap2\n      swap1\n      tag_174\n      jump\t// in\n    tag_175:\n      pop\n      0x60\n      dup3\n      add\n      mload\n      dup2\n      0x03\n      add\n      sstore\n      0x80\n      dup3\n      add\n      mload\n      dup2\n      0x04\n      add\n      sstore\n      0xa0\n      dup3\n      add\n      mload\n      dup2\n      0x05\n      add\n      swap1\n      dup1\n      mload\n      swap1\n      0x20\n      add\n      swap1\n      tag_176\n      swap3\n      swap2\n      swap1\n      tag_174\n      jump\t// in\n    tag_176:\n      pop\n      0xc0\n      dup3\n      add\n      mload\n      dup2\n      0x06\n      add\n      exp(0x0100, 0x00)\n      dup2\n      sload\n      dup2\n      0xffffffffffffffffffffffffffffffffffffffff\n      mul\n      not\n      and\n      swap1\n      dup4\n      0xffffffffffffffffffffffffffffffffffffffff\n      and\n      mul\n      or\n      swap1\n      sstore\n      pop\n      0xe0\n      dup3\n      add\n      mload\n      dup2\n      0x06\n      add\n      exp(0x0100, 0x14)\n      dup2\n      sload\n      dup2\n      0xff\n      mul\n      not\n      and\n      swap1\n      dup4\n      iszero\n      iszero\n      mul\n      or\n      swap1\n      sstore\n      pop\n      0x0100\n      dup3\n      add\n      mload\n      dup2\n      0x07\n      add\n      swap1\n      dup1\n      mload\n      swap1\n      0x20\n      add\n      swap1\n      tag_177\n      swap3\n      swap2\n      swap1\n      tag_174\n      jump\t// in\n    tag_177:\n      pop\n      swap1\n      pop\n      pop\n        /* \"contracts/Etherise_DApp.sol\":1113:1659  function addCampaign(... */\n      pop\n      pop\n      pop\n      pop\n      pop\n      pop\n      jump\t// out\n        /* \"contracts/Etherise_DApp.sol\":972:1002  uint256 public campaignCounter */\n    tag_56:\n      sload(0x02)\n      dup2\n      jump\t// out\n        /* \"contracts/Etherise_DApp.sol\":3074:3234  function getTransactionsByCampaign(uint256 _campaignID) external view returns (Transaction[] memory) {... */\n    tag_62:\n        /* \"contracts/Etherise_DApp.sol\":3153:3173  Transaction[] memory */\n      0x60\n        /* \"contracts/Etherise_DApp.sol\":3192:3214  transactionsByCampaign */\n      0x01\n        /* \"contracts/Etherise_DApp.sol\":3192:3227  transactionsByCampaign[_campaignID] */\n      0x00\n        /* \"contracts/Etherise_DApp.sol\":3215:3226  _campaignID */\n      dup4\n        /* \"contracts/Etherise_DApp.sol\":3192:3227  transactionsByCampaign[_campaignID] */\n      dup2\n      mstore\n      0x20\n      add\n      swap1\n      dup2\n      mstore\n      0x20\n      add\n      0x00\n      keccak256\n        /* \"contracts/Etherise_DApp.sol\":3185:3227  return transactionsByCampaign[_campaignID] */\n      dup1\n      sload\n      dup1\n      0x20\n      mul\n      0x20\n      add\n      mload(0x40)\n      swap1\n      dup2\n      add\n      0x40\n      mstore\n      dup1\n      swap3\n      swap2\n      swap1\n      dup2\n      dup2\n      mstore\n      0x20\n      add\n      0x00\n      swap1\n    tag_179:\n      dup3\n      dup3\n      lt\n      iszero\n      tag_180\n      jumpi\n      dup4\n      dup3\n      swap1\n      0x00\n      mstore\n      keccak256(0x00, 0x20)\n      swap1\n      0x06\n      mul\n      add\n      mload(0x40)\n      dup1\n      0xc0\n      add\n      0x40\n      mstore\n      swap1\n      dup2\n      0x00\n      dup3\n      add\n      sload\n      dup2\n      mstore\n      0x20\n      add\n      0x01\n      dup3\n      add\n      sload\n      dup2\n      mstore\n      0x20\n      add\n      0x02\n      dup3\n      add\n      0x00\n      swap1\n      sload\n      swap1\n      0x0100\n      exp\n      swap1\n      div\n      0xffffffffffffffffffffffffffffffffffffffff\n      and\n      0xffffffffffffffffffffffffffffffffffffffff\n      and\n      0xffffffffffffffffffffffffffffffffffffffff\n      and\n      dup2\n      mstore\n      0x20\n      add\n      0x03\n      dup3\n      add\n      0x00\n      swap1\n      sload\n      swap1\n      0x0100\n      exp\n      swap1\n      div\n      0xffffffffffffffffffffffffffffffffffffffff\n      and\n      0xffffffffffffffffffffffffffffffffffffffff\n      and\n      0xffffffffffffffffffffffffffffffffffffffff\n      and\n      dup2\n      mstore\n      0x20\n      add\n      0x04\n      dup3\n      add\n      sload\n      dup2\n      mstore\n      0x20\n      add\n      0x05\n      dup3\n      add\n      0x00\n      swap1\n      sload\n      swap1\n      0x0100\n      exp\n      swap1\n      div\n      0xff\n      and\n      iszero\n      iszero\n      iszero\n      iszero\n      dup2\n      mstore\n      pop\n      pop\n      dup2\n      mstore\n      0x20\n      add\n      swap1\n      0x01\n      add\n      swap1\n      jump(tag_179)\n    tag_180:\n      pop\n      pop\n      pop\n      pop\n      swap1\n      pop\n        /* \"contracts/Etherise_DApp.sol\":3074:3234  function getTransactionsByCampaign(uint256 _campaignID) external view returns (Transaction[] memory) {... */\n      swap2\n      swap1\n      pop\n      jump\t// out\n    tag_97:\n      mload(0x40)\n      dup1\n      0x0120\n      add\n      0x40\n      mstore\n      dup1\n      0x00\n      dup2\n      mstore\n      0x20\n      add\n      0x60\n      dup2\n      mstore\n      0x20\n      add\n      0x60\n      dup2\n      mstore\n      0x20\n      add\n      0x00\n      dup2\n      mstore\n      0x20\n      add\n      0x00\n      dup2\n      mstore\n      0x20\n      add\n      0x60\n      dup2\n      mstore\n      0x20\n      add\n      and(0xffffffffffffffffffffffffffffffffffffffff, 0x00)\n      dup2\n      mstore\n      0x20\n      add\n      iszero(iszero(0x00))\n      dup2\n      mstore\n      0x20\n      add\n      0x60\n      dup2\n      mstore\n      pop\n      swap1\n      jump\t// out\n    tag_135:\n      pop\n      dup1\n      sload\n      tag_182\n      swap1\n      tag_74\n      jump\t// in\n    tag_182:\n      0x00\n      dup3\n      sstore\n      dup1\n      0x1f\n      lt\n      tag_184\n      jumpi\n      pop\n      jump(tag_183)\n    tag_184:\n      0x1f\n      add\n      0x20\n      swap1\n      div\n      swap1\n      0x00\n      mstore\n      keccak256(0x00, 0x20)\n      swap1\n      dup2\n      add\n      swap1\n      tag_185\n      swap2\n      swap1\n      tag_186\n      jump\t// in\n    tag_185:\n    tag_183:\n      pop\n      jump\t// out\n    tag_174:\n      dup3\n      dup1\n      sload\n      tag_187\n      swap1\n      tag_74\n      jump\t// in\n    tag_187:\n      swap1\n      0x00\n      mstore\n      keccak256(0x00, 0x20)\n      swap1\n      0x1f\n      add\n      0x20\n      swap1\n      div\n      dup2\n      add\n      swap3\n      dup3\n      tag_189\n      jumpi\n      0x00\n      dup6\n      sstore\n      jump(tag_188)\n    tag_189:\n      dup3\n      0x1f\n      lt\n      tag_190\n      jumpi\n      dup1\n      mload\n      not(0xff)\n      and\n      dup4\n      dup1\n      add\n      or\n      dup6\n      sstore\n      jump(tag_188)\n    tag_190:\n      dup3\n      dup1\n      add\n      0x01\n      add\n      dup6\n      sstore\n      dup3\n      iszero\n      tag_188\n      jumpi\n      swap2\n      dup3\n      add\n    tag_191:\n      dup3\n      dup2\n      gt\n      iszero\n      tag_192\n      jumpi\n      dup3\n      mload\n      dup3\n      sstore\n      swap2\n      0x20\n      add\n      swap2\n      swap1\n      0x01\n      add\n      swap1\n      jump(tag_191)\n    tag_192:\n    tag_188:\n      pop\n      swap1\n      pop\n      tag_193\n      swap2\n      swap1\n      tag_186\n      jump\t// in\n    tag_193:\n      pop\n      swap1\n      jump\t// out\n    tag_186:\n    tag_194:\n      dup1\n      dup3\n      gt\n      iszero\n      tag_195\n      jumpi\n      0x00\n      dup2\n      0x00\n      swap1\n      sstore\n      pop\n      0x01\n      add\n      jump(tag_194)\n    tag_195:\n      pop\n      swap1\n      jump\t// out\n        /* \"#utility.yul\":7:351   */\n    tag_197:\n      0x00\n        /* \"#utility.yul\":110:175   */\n      tag_199\n        /* \"#utility.yul\":125:174   */\n      tag_200\n        /* \"#utility.yul\":167:173   */\n      dup5\n        /* \"#utility.yul\":125:174   */\n      tag_201\n      jump\t// in\n    tag_200:\n        /* \"#utility.yul\":110:175   */\n      tag_202\n      jump\t// in\n    tag_199:\n        /* \"#utility.yul\":101:175   */\n      swap1\n      pop\n        /* \"#utility.yul\":198:204   */\n      dup3\n        /* \"#utility.yul\":191:196   */\n      dup2\n        /* \"#utility.yul\":184:205   */\n      mstore\n        /* \"#utility.yul\":236:240   */\n      0x20\n        /* \"#utility.yul\":229:234   */\n      dup2\n        /* \"#utility.yul\":225:241   */\n      add\n        /* \"#utility.yul\":274:277   */\n      dup5\n        /* \"#utility.yul\":265:271   */\n      dup5\n        /* \"#utility.yul\":260:263   */\n      dup5\n        /* \"#utility.yul\":256:272   */\n      add\n        /* \"#utility.yul\":253:278   */\n      gt\n        /* \"#utility.yul\":250:252   */\n      iszero\n      tag_203\n      jumpi\n        /* \"#utility.yul\":291:292   */\n      0x00\n        /* \"#utility.yul\":288:289   */\n      dup1\n        /* \"#utility.yul\":281:293   */\n      revert\n        /* \"#utility.yul\":250:252   */\n    tag_203:\n        /* \"#utility.yul\":304:345   */\n      tag_204\n        /* \"#utility.yul\":338:344   */\n      dup5\n        /* \"#utility.yul\":333:336   */\n      dup3\n        /* \"#utility.yul\":328:331   */\n      dup6\n        /* \"#utility.yul\":304:345   */\n      tag_205\n      jump\t// in\n    tag_204:\n        /* \"#utility.yul\":91:351   */\n      pop\n      swap4\n      swap3\n      pop\n      pop\n      pop\n      jump\t// out\n        /* \"#utility.yul\":357:490   */\n    tag_206:\n      0x00\n        /* \"#utility.yul\":438:444   */\n      dup2\n        /* \"#utility.yul\":425:445   */\n      calldataload\n        /* \"#utility.yul\":416:445   */\n      swap1\n      pop\n        /* \"#utility.yul\":454:484   */\n      tag_208\n        /* \"#utility.yul\":478:483   */\n      dup2\n        /* \"#utility.yul\":454:484   */\n      tag_209\n      jump\t// in\n    tag_208:\n        /* \"#utility.yul\":406:490   */\n      swap3\n      swap2\n      pop\n      pop\n      jump\t// out\n        /* \"#utility.yul\":510:783   */\n    tag_210:\n      0x00\n        /* \"#utility.yul\":615:618   */\n      dup3\n        /* \"#utility.yul\":608:612   */\n      0x1f\n        /* \"#utility.yul\":600:606   */\n      dup4\n        /* \"#utility.yul\":596:613   */\n      add\n        /* \"#utility.yul\":592:619   */\n      slt\n        /* \"#utility.yul\":582:584   */\n      tag_212\n      jumpi\n        /* \"#utility.yul\":633:634   */\n      0x00\n        /* \"#utility.yul\":630:631   */\n      dup1\n        /* \"#utility.yul\":623:635   */\n      revert\n        /* \"#utility.yul\":582:584   */\n    tag_212:\n        /* \"#utility.yul\":673:679   */\n      dup2\n        /* \"#utility.yul\":660:680   */\n      calldataload\n        /* \"#utility.yul\":698:777   */\n      tag_213\n        /* \"#utility.yul\":773:776   */\n      dup5\n        /* \"#utility.yul\":765:771   */\n      dup3\n        /* \"#utility.yul\":758:762   */\n      0x20\n        /* \"#utility.yul\":750:756   */\n      dup7\n        /* \"#utility.yul\":746:763   */\n      add\n        /* \"#utility.yul\":698:777   */\n      tag_197\n      jump\t// in\n    tag_213:\n        /* \"#utility.yul\":689:777   */\n      swap2\n      pop\n        /* \"#utility.yul\":572:783   */\n      pop\n      swap3\n      swap2\n      pop\n      pop\n      jump\t// out\n        /* \"#utility.yul\":789:928   */\n    tag_214:\n      0x00\n        /* \"#utility.yul\":873:879   */\n      dup2\n        /* \"#utility.yul\":860:880   */\n      calldataload\n        /* \"#utility.yul\":851:880   */\n      swap1\n      pop\n        /* \"#utility.yul\":889:922   */\n      tag_216\n        /* \"#utility.yul\":916:921   */\n      dup2\n        /* \"#utility.yul\":889:922   */\n      tag_217\n      jump\t// in\n    tag_216:\n        /* \"#utility.yul\":841:928   */\n      swap3\n      swap2\n      pop\n      pop\n      jump\t// out\n        /* \"#utility.yul\":934:2370   */\n    tag_52:\n      0x00\n      dup1\n      0x00\n      dup1\n      0x00\n      dup1\n        /* \"#utility.yul\":1164:1167   */\n      0xc0\n        /* \"#utility.yul\":1152:1161   */\n      dup8\n        /* \"#utility.yul\":1143:1150   */\n      dup10\n        /* \"#utility.yul\":1139:1162   */\n      sub\n        /* \"#utility.yul\":1135:1168   */\n      slt\n        /* \"#utility.yul\":1132:1134   */\n      iszero\n      tag_219\n      jumpi\n        /* \"#utility.yul\":1181:1182   */\n      0x00\n        /* \"#utility.yul\":1178:1179   */\n      dup1\n        /* \"#utility.yul\":1171:1183   */\n      revert\n        /* \"#utility.yul\":1132:1134   */\n    tag_219:\n        /* \"#utility.yul\":1252:1253   */\n      0x00\n        /* \"#utility.yul\":1241:1250   */\n      dup8\n        /* \"#utility.yul\":1237:1254   */\n      add\n        /* \"#utility.yul\":1224:1255   */\n      calldataload\n        /* \"#utility.yul\":1282:1300   */\n      0xffffffffffffffff\n        /* \"#utility.yul\":1274:1280   */\n      dup2\n        /* \"#utility.yul\":1271:1301   */\n      gt\n        /* \"#utility.yul\":1268:1270   */\n      iszero\n      tag_220\n      jumpi\n        /* \"#utility.yul\":1314:1315   */\n      0x00\n        /* \"#utility.yul\":1311:1312   */\n      dup1\n        /* \"#utility.yul\":1304:1316   */\n      revert\n        /* \"#utility.yul\":1268:1270   */\n    tag_220:\n        /* \"#utility.yul\":1342:1405   */\n      tag_221\n        /* \"#utility.yul\":1397:1404   */\n      dup10\n        /* \"#utility.yul\":1388:1394   */\n      dup3\n        /* \"#utility.yul\":1377:1386   */\n      dup11\n        /* \"#utility.yul\":1373:1395   */\n      add\n        /* \"#utility.yul\":1342:1405   */\n      tag_210\n      jump\t// in\n    tag_221:\n        /* \"#utility.yul\":1332:1405   */\n      swap7\n      pop\n        /* \"#utility.yul\":1195:1415   */\n      pop\n        /* \"#utility.yul\":1482:1484   */\n      0x20\n        /* \"#utility.yul\":1471:1480   */\n      dup8\n        /* \"#utility.yul\":1467:1485   */\n      add\n        /* \"#utility.yul\":1454:1486   */\n      calldataload\n        /* \"#utility.yul\":1513:1531   */\n      0xffffffffffffffff\n        /* \"#utility.yul\":1505:1511   */\n      dup2\n        /* \"#utility.yul\":1502:1532   */\n      gt\n        /* \"#utility.yul\":1499:1501   */\n      iszero\n      tag_222\n      jumpi\n        /* \"#utility.yul\":1545:1546   */\n      0x00\n        /* \"#utility.yul\":1542:1543   */\n      dup1\n        /* \"#utility.yul\":1535:1547   */\n      revert\n        /* \"#utility.yul\":1499:1501   */\n    tag_222:\n        /* \"#utility.yul\":1573:1636   */\n      tag_223\n        /* \"#utility.yul\":1628:1635   */\n      dup10\n        /* \"#utility.yul\":1619:1625   */\n      dup3\n        /* \"#utility.yul\":1608:1617   */\n      dup11\n        /* \"#utility.yul\":1604:1626   */\n      add\n        /* \"#utility.yul\":1573:1636   */\n      tag_210\n      jump\t// in\n    tag_223:\n        /* \"#utility.yul\":1563:1636   */\n      swap6\n      pop\n        /* \"#utility.yul\":1425:1646   */\n      pop\n        /* \"#utility.yul\":1685:1687   */\n      0x40\n        /* \"#utility.yul\":1711:1764   */\n      tag_224\n        /* \"#utility.yul\":1756:1763   */\n      dup10\n        /* \"#utility.yul\":1747:1753   */\n      dup3\n        /* \"#utility.yul\":1736:1745   */\n      dup11\n        /* \"#utility.yul\":1732:1754   */\n      add\n        /* \"#utility.yul\":1711:1764   */\n      tag_214\n      jump\t// in\n    tag_224:\n        /* \"#utility.yul\":1701:1764   */\n      swap5\n      pop\n        /* \"#utility.yul\":1656:1774   */\n      pop\n        /* \"#utility.yul\":1841:1843   */\n      0x60\n        /* \"#utility.yul\":1830:1839   */\n      dup8\n        /* \"#utility.yul\":1826:1844   */\n      add\n        /* \"#utility.yul\":1813:1845   */\n      calldataload\n        /* \"#utility.yul\":1872:1890   */\n      0xffffffffffffffff\n        /* \"#utility.yul\":1864:1870   */\n      dup2\n        /* \"#utility.yul\":1861:1891   */\n      gt\n        /* \"#utility.yul\":1858:1860   */\n      iszero\n      tag_225\n      jumpi\n        /* \"#utility.yul\":1904:1905   */\n      0x00\n        /* \"#utility.yul\":1901:1902   */\n      dup1\n        /* \"#utility.yul\":1894:1906   */\n      revert\n        /* \"#utility.yul\":1858:1860   */\n    tag_225:\n        /* \"#utility.yul\":1932:1995   */\n      tag_226\n        /* \"#utility.yul\":1987:1994   */\n      dup10\n        /* \"#utility.yul\":1978:1984   */\n      dup3\n        /* \"#utility.yul\":1967:1976   */\n      dup11\n        /* \"#utility.yul\":1963:1985   */\n      add\n        /* \"#utility.yul\":1932:1995   */\n      tag_210\n      jump\t// in\n    tag_226:\n        /* \"#utility.yul\":1922:1995   */\n      swap4\n      pop\n        /* \"#utility.yul\":1784:2005   */\n      pop\n        /* \"#utility.yul\":2044:2047   */\n      0x80\n        /* \"#utility.yul\":2071:2121   */\n      tag_227\n        /* \"#utility.yul\":2113:2120   */\n      dup10\n        /* \"#utility.yul\":2104:2110   */\n      dup3\n        /* \"#utility.yul\":2093:2102   */\n      dup11\n        /* \"#utility.yul\":2089:2111   */\n      add\n        /* \"#utility.yul\":2071:2121   */\n      tag_206\n      jump\t// in\n    tag_227:\n        /* \"#utility.yul\":2061:2121   */\n      swap3\n      pop\n        /* \"#utility.yul\":2015:2131   */\n      pop\n        /* \"#utility.yul\":2198:2201   */\n      0xa0\n        /* \"#utility.yul\":2187:2196   */\n      dup8\n        /* \"#utility.yul\":2183:2202   */\n      add\n        /* \"#utility.yul\":2170:2203   */\n      calldataload\n        /* \"#utility.yul\":2230:2248   */\n      0xffffffffffffffff\n        /* \"#utility.yul\":2222:2228   */\n      dup2\n        /* \"#utility.yul\":2219:2249   */\n      gt\n        /* \"#utility.yul\":2216:2218   */\n      iszero\n      tag_228\n      jumpi\n        /* \"#utility.yul\":2262:2263   */\n      0x00\n        /* \"#utility.yul\":2259:2260   */\n      dup1\n        /* \"#utility.yul\":2252:2264   */\n      revert\n        /* \"#utility.yul\":2216:2218   */\n    tag_228:\n        /* \"#utility.yul\":2290:2353   */\n      tag_229\n        /* \"#utility.yul\":2345:2352   */\n      dup10\n        /* \"#utility.yul\":2336:2342   */\n      dup3\n        /* \"#utility.yul\":2325:2334   */\n      dup11\n        /* \"#utility.yul\":2321:2343   */\n      add\n        /* \"#utility.yul\":2290:2353   */\n      tag_210\n      jump\t// in\n    tag_229:\n        /* \"#utility.yul\":2280:2353   */\n      swap2\n      pop\n        /* \"#utility.yul\":2141:2363   */\n      pop\n        /* \"#utility.yul\":1122:2370   */\n      swap3\n      swap6\n      pop\n      swap3\n      swap6\n      pop\n      swap3\n      swap6\n      jump\t// out\n        /* \"#utility.yul\":2376:2638   */\n    tag_15:\n      0x00\n        /* \"#utility.yul\":2484:2486   */\n      0x20\n        /* \"#utility.yul\":2472:2481   */\n      dup3\n        /* \"#utility.yul\":2463:2470   */\n      dup5\n        /* \"#utility.yul\":2459:2482   */\n      sub\n        /* \"#utility.yul\":2455:2487   */\n      slt\n        /* \"#utility.yul\":2452:2454   */\n      iszero\n      tag_231\n      jumpi\n        /* \"#utility.yul\":2500:2501   */\n      0x00\n        /* \"#utility.yul\":2497:2498   */\n      dup1\n        /* \"#utility.yul\":2490:2502   */\n      revert\n        /* \"#utility.yul\":2452:2454   */\n    tag_231:\n        /* \"#utility.yul\":2543:2544   */\n      0x00\n        /* \"#utility.yul\":2568:2621   */\n      tag_232\n        /* \"#utility.yul\":2613:2620   */\n      dup5\n        /* \"#utility.yul\":2604:2610   */\n      dup3\n        /* \"#utility.yul\":2593:2602   */\n      dup6\n        /* \"#utility.yul\":2589:2611   */\n      add\n        /* \"#utility.yul\":2568:2621   */\n      tag_214\n      jump\t// in\n    tag_232:\n        /* \"#utility.yul\":2558:2621   */\n      swap2\n      pop\n        /* \"#utility.yul\":2514:2631   */\n      pop\n        /* \"#utility.yul\":2442:2638   */\n      swap3\n      swap2\n      pop\n      pop\n      jump\t// out\n        /* \"#utility.yul\":2644:3051   */\n    tag_26:\n      0x00\n      dup1\n        /* \"#utility.yul\":2769:2771   */\n      0x40\n        /* \"#utility.yul\":2757:2766   */\n      dup4\n        /* \"#utility.yul\":2748:2755   */\n      dup6\n        /* \"#utility.yul\":2744:2767   */\n      sub\n        /* \"#utility.yul\":2740:2772   */\n      slt\n        /* \"#utility.yul\":2737:2739   */\n      iszero\n      tag_234\n      jumpi\n        /* \"#utility.yul\":2785:2786   */\n      0x00\n        /* \"#utility.yul\":2782:2783   */\n      dup1\n        /* \"#utility.yul\":2775:2787   */\n      revert\n        /* \"#utility.yul\":2737:2739   */\n    tag_234:\n        /* \"#utility.yul\":2828:2829   */\n      0x00\n        /* \"#utility.yul\":2853:2906   */\n      tag_235\n        /* \"#utility.yul\":2898:2905   */\n      dup6\n        /* \"#utility.yul\":2889:2895   */\n      dup3\n        /* \"#utility.yul\":2878:2887   */\n      dup7\n        /* \"#utility.yul\":2874:2896   */\n      add\n        /* \"#utility.yul\":2853:2906   */\n      tag_214\n      jump\t// in\n    tag_235:\n        /* \"#utility.yul\":2843:2906   */\n      swap3\n      pop\n        /* \"#utility.yul\":2799:2916   */\n      pop\n        /* \"#utility.yul\":2955:2957   */\n      0x20\n        /* \"#utility.yul\":2981:3034   */\n      tag_236\n        /* \"#utility.yul\":3026:3033   */\n      dup6\n        /* \"#utility.yul\":3017:3023   */\n      dup3\n        /* \"#utility.yul\":3006:3015   */\n      dup7\n        /* \"#utility.yul\":3002:3024   */\n      add\n        /* \"#utility.yul\":2981:3034   */\n      tag_214\n      jump\t// in\n    tag_236:\n        /* \"#utility.yul\":2971:3034   */\n      swap2\n      pop\n        /* \"#utility.yul\":2926:3044   */\n      pop\n        /* \"#utility.yul\":2727:3051   */\n      swap3\n      pop\n      swap3\n      swap1\n      pop\n      jump\t// out\n        /* \"#utility.yul\":3057:3309   */\n    tag_237:\n      0x00\n        /* \"#utility.yul\":3209:3303   */\n      tag_239\n        /* \"#utility.yul\":3299:3302   */\n      dup4\n        /* \"#utility.yul\":3291:3297   */\n      dup4\n        /* \"#utility.yul\":3209:3303   */\n      tag_240\n      jump\t// in\n    tag_239:\n        /* \"#utility.yul\":3195:3303   */\n      swap1\n      pop\n        /* \"#utility.yul\":3185:3309   */\n      swap3\n      swap2\n      pop\n      pop\n      jump\t// out\n        /* \"#utility.yul\":3315:3602   */\n    tag_241:\n      0x00\n        /* \"#utility.yul\":3459:3559   */\n      tag_243\n        /* \"#utility.yul\":3555:3558   */\n      dup4\n        /* \"#utility.yul\":3547:3553   */\n      dup4\n        /* \"#utility.yul\":3459:3559   */\n      tag_244\n      jump\t// in\n    tag_243:\n        /* \"#utility.yul\":3591:3595   */\n      0xc0\n        /* \"#utility.yul\":3586:3589   */\n      dup4\n        /* \"#utility.yul\":3582:3596   */\n      add\n        /* \"#utility.yul\":3568:3596   */\n      swap1\n      pop\n        /* \"#utility.yul\":3449:3602   */\n      swap3\n      swap2\n      pop\n      pop\n      jump\t// out\n        /* \"#utility.yul\":3608:3716   */\n    tag_245:\n        /* \"#utility.yul\":3685:3709   */\n      tag_247\n        /* \"#utility.yul\":3703:3708   */\n      dup2\n        /* \"#utility.yul\":3685:3709   */\n      tag_248\n      jump\t// in\n    tag_247:\n        /* \"#utility.yul\":3680:3683   */\n      dup3\n        /* \"#utility.yul\":3673:3710   */\n      mstore\n        /* \"#utility.yul\":3663:3716   */\n      pop\n      pop\n      jump\t// out\n        /* \"#utility.yul\":3722:3840   */\n    tag_249:\n        /* \"#utility.yul\":3809:3833   */\n      tag_251\n        /* \"#utility.yul\":3827:3832   */\n      dup2\n        /* \"#utility.yul\":3809:3833   */\n      tag_248\n      jump\t// in\n    tag_251:\n        /* \"#utility.yul\":3804:3807   */\n      dup3\n        /* \"#utility.yul\":3797:3834   */\n      mstore\n        /* \"#utility.yul\":3787:3840   */\n      pop\n      pop\n      jump\t// out\n        /* \"#utility.yul\":3910:5013   */\n    tag_252:\n      0x00\n        /* \"#utility.yul\":4106:4184   */\n      tag_254\n        /* \"#utility.yul\":4178:4183   */\n      dup3\n        /* \"#utility.yul\":4106:4184   */\n      tag_255\n      jump\t// in\n    tag_254:\n        /* \"#utility.yul\":4200:4310   */\n      tag_256\n        /* \"#utility.yul\":4303:4309   */\n      dup2\n        /* \"#utility.yul\":4298:4301   */\n      dup6\n        /* \"#utility.yul\":4200:4310   */\n      tag_257\n      jump\t// in\n    tag_256:\n        /* \"#utility.yul\":4193:4310   */\n      swap4\n      pop\n        /* \"#utility.yul\":4336:4339   */\n      dup4\n        /* \"#utility.yul\":4381:4385   */\n      0x20\n        /* \"#utility.yul\":4373:4379   */\n      dup3\n        /* \"#utility.yul\":4369:4386   */\n      mul\n        /* \"#utility.yul\":4364:4367   */\n      dup6\n        /* \"#utility.yul\":4360:4387   */\n      add\n        /* \"#utility.yul\":4411:4491   */\n      tag_258\n        /* \"#utility.yul\":4485:4490   */\n      dup6\n        /* \"#utility.yul\":4411:4491   */\n      tag_259\n      jump\t// in\n    tag_258:\n        /* \"#utility.yul\":4514:4521   */\n      dup1\n        /* \"#utility.yul\":4545:4546   */\n      0x00\n        /* \"#utility.yul\":4530:4968   */\n    tag_260:\n        /* \"#utility.yul\":4555:4561   */\n      dup6\n        /* \"#utility.yul\":4552:4553   */\n      dup2\n        /* \"#utility.yul\":4549:4562   */\n      lt\n        /* \"#utility.yul\":4530:4968   */\n      iszero\n      tag_262\n      jumpi\n        /* \"#utility.yul\":4626:4635   */\n      dup5\n        /* \"#utility.yul\":4620:4624   */\n      dup5\n        /* \"#utility.yul\":4616:4636   */\n      sub\n        /* \"#utility.yul\":4611:4614   */\n      dup10\n        /* \"#utility.yul\":4604:4637   */\n      mstore\n        /* \"#utility.yul\":4677:4683   */\n      dup2\n        /* \"#utility.yul\":4671:4684   */\n      mload\n        /* \"#utility.yul\":4705:4817   */\n      tag_263\n        /* \"#utility.yul\":4812:4816   */\n      dup6\n        /* \"#utility.yul\":4797:4810   */\n      dup3\n        /* \"#utility.yul\":4705:4817   */\n      tag_237\n      jump\t// in\n    tag_263:\n        /* \"#utility.yul\":4697:4817   */\n      swap5\n      pop\n        /* \"#utility.yul\":4840:4924   */\n      tag_264\n        /* \"#utility.yul\":4917:4923   */\n      dup4\n        /* \"#utility.yul\":4840:4924   */\n      tag_265\n      jump\t// in\n    tag_264:\n        /* \"#utility.yul\":4830:4924   */\n      swap3\n      pop\n        /* \"#utility.yul\":4953:4957   */\n      0x20\n        /* \"#utility.yul\":4948:4951   */\n      dup11\n        /* \"#utility.yul\":4944:4958   */\n      add\n        /* \"#utility.yul\":4937:4958   */\n      swap10\n      pop\n        /* \"#utility.yul\":4590:4968   */\n      pop\n        /* \"#utility.yul\":4577:4578   */\n      0x01\n        /* \"#utility.yul\":4574:4575   */\n      dup2\n        /* \"#utility.yul\":4570:4579   */\n      add\n        /* \"#utility.yul\":4565:4579   */\n      swap1\n      pop\n        /* \"#utility.yul\":4530:4968   */\n      jump(tag_260)\n    tag_262:\n        /* \"#utility.yul\":4534:4548   */\n      pop\n        /* \"#utility.yul\":4984:4988   */\n      dup3\n        /* \"#utility.yul\":4977:4988   */\n      swap8\n      pop\n        /* \"#utility.yul\":5004:5007   */\n      dup8\n        /* \"#utility.yul\":4997:5007   */\n      swap6\n      pop\n        /* \"#utility.yul\":4082:5013   */\n      pop\n      pop\n      pop\n      pop\n      pop\n      swap3\n      swap2\n      pop\n      pop\n      jump\t// out\n        /* \"#utility.yul\":5089:6037   */\n    tag_266:\n      0x00\n        /* \"#utility.yul\":5291:5372   */\n      tag_268\n        /* \"#utility.yul\":5366:5371   */\n      dup3\n        /* \"#utility.yul\":5291:5372   */\n      tag_269\n      jump\t// in\n    tag_268:\n        /* \"#utility.yul\":5388:5501   */\n      tag_270\n        /* \"#utility.yul\":5494:5500   */\n      dup2\n        /* \"#utility.yul\":5489:5492   */\n      dup6\n        /* \"#utility.yul\":5388:5501   */\n      tag_271\n      jump\t// in\n    tag_270:\n        /* \"#utility.yul\":5381:5501   */\n      swap4\n      pop\n        /* \"#utility.yul\":5525:5608   */\n      tag_272\n        /* \"#utility.yul\":5602:5607   */\n      dup4\n        /* \"#utility.yul\":5525:5608   */\n      tag_273\n      jump\t// in\n    tag_272:\n        /* \"#utility.yul\":5631:5638   */\n      dup1\n        /* \"#utility.yul\":5662:5663   */\n      0x00\n        /* \"#utility.yul\":5647:6012   */\n    tag_274:\n        /* \"#utility.yul\":5672:5678   */\n      dup4\n        /* \"#utility.yul\":5669:5670   */\n      dup2\n        /* \"#utility.yul\":5666:5679   */\n      lt\n        /* \"#utility.yul\":5647:6012   */\n      iszero\n      tag_276\n      jumpi\n        /* \"#utility.yul\":5748:5754   */\n      dup2\n        /* \"#utility.yul\":5742:5755   */\n      mload\n        /* \"#utility.yul\":5775:5892   */\n      tag_277\n        /* \"#utility.yul\":5888:5891   */\n      dup9\n        /* \"#utility.yul\":5873:5886   */\n      dup3\n        /* \"#utility.yul\":5775:5892   */\n      tag_241\n      jump\t// in\n    tag_277:\n        /* \"#utility.yul\":5768:5892   */\n      swap8\n      pop\n        /* \"#utility.yul\":5915:6002   */\n      tag_278\n        /* \"#utility.yul\":5995:6001   */\n      dup4\n        /* \"#utility.yul\":5915:6002   */\n      tag_279\n      jump\t// in\n    tag_278:\n        /* \"#utility.yul\":5905:6002   */\n      swap3\n      pop\n        /* \"#utility.yul\":5707:6012   */\n      pop\n        /* \"#utility.yul\":5694:5695   */\n      0x01\n        /* \"#utility.yul\":5691:5692   */\n      dup2\n        /* \"#utility.yul\":5687:5696   */\n      add\n        /* \"#utility.yul\":5682:5696   */\n      swap1\n      pop\n        /* \"#utility.yul\":5647:6012   */\n      jump(tag_274)\n    tag_276:\n        /* \"#utility.yul\":5651:5665   */\n      pop\n        /* \"#utility.yul\":6028:6031   */\n      dup6\n        /* \"#utility.yul\":6021:6031   */\n      swap4\n      pop\n        /* \"#utility.yul\":5267:6037   */\n      pop\n      pop\n      pop\n      swap3\n      swap2\n      pop\n      pop\n      jump\t// out\n        /* \"#utility.yul\":6043:6142   */\n    tag_280:\n        /* \"#utility.yul\":6114:6135   */\n      tag_282\n        /* \"#utility.yul\":6129:6134   */\n      dup2\n        /* \"#utility.yul\":6114:6135   */\n      tag_283\n      jump\t// in\n    tag_282:\n        /* \"#utility.yul\":6109:6112   */\n      dup3\n        /* \"#utility.yul\":6102:6136   */\n      mstore\n        /* \"#utility.yul\":6092:6142   */\n      pop\n      pop\n      jump\t// out\n        /* \"#utility.yul\":6148:6257   */\n    tag_284:\n        /* \"#utility.yul\":6229:6250   */\n      tag_286\n        /* \"#utility.yul\":6244:6249   */\n      dup2\n        /* \"#utility.yul\":6229:6250   */\n      tag_283\n      jump\t// in\n    tag_286:\n        /* \"#utility.yul\":6224:6227   */\n      dup3\n        /* \"#utility.yul\":6217:6251   */\n      mstore\n        /* \"#utility.yul\":6207:6257   */\n      pop\n      pop\n      jump\t// out\n        /* \"#utility.yul\":6263:6607   */\n    tag_287:\n      0x00\n        /* \"#utility.yul\":6369:6408   */\n      tag_289\n        /* \"#utility.yul\":6402:6407   */\n      dup3\n        /* \"#utility.yul\":6369:6408   */\n      tag_290\n      jump\t// in\n    tag_289:\n        /* \"#utility.yul\":6424:6485   */\n      tag_291\n        /* \"#utility.yul\":6478:6484   */\n      dup2\n        /* \"#utility.yul\":6473:6476   */\n      dup6\n        /* \"#utility.yul\":6424:6485   */\n      tag_292\n      jump\t// in\n    tag_291:\n        /* \"#utility.yul\":6417:6485   */\n      swap4\n      pop\n        /* \"#utility.yul\":6494:6546   */\n      tag_293\n        /* \"#utility.yul\":6539:6545   */\n      dup2\n        /* \"#utility.yul\":6534:6537   */\n      dup6\n        /* \"#utility.yul\":6527:6531   */\n      0x20\n        /* \"#utility.yul\":6520:6525   */\n      dup7\n        /* \"#utility.yul\":6516:6532   */\n      add\n        /* \"#utility.yul\":6494:6546   */\n      tag_294\n      jump\t// in\n    tag_293:\n        /* \"#utility.yul\":6571:6600   */\n      tag_295\n        /* \"#utility.yul\":6593:6599   */\n      dup2\n        /* \"#utility.yul\":6571:6600   */\n      tag_296\n      jump\t// in\n    tag_295:\n        /* \"#utility.yul\":6566:6569   */\n      dup5\n        /* \"#utility.yul\":6562:6601   */\n      add\n        /* \"#utility.yul\":6555:6601   */\n      swap2\n      pop\n        /* \"#utility.yul\":6345:6607   */\n      pop\n      swap3\n      swap2\n      pop\n      pop\n      jump\t// out\n        /* \"#utility.yul\":6613:6977   */\n    tag_297:\n      0x00\n        /* \"#utility.yul\":6729:6768   */\n      tag_299\n        /* \"#utility.yul\":6762:6767   */\n      dup3\n        /* \"#utility.yul\":6729:6768   */\n      tag_290\n      jump\t// in\n    tag_299:\n        /* \"#utility.yul\":6784:6855   */\n      tag_300\n        /* \"#utility.yul\":6848:6854   */\n      dup2\n        /* \"#utility.yul\":6843:6846   */\n      dup6\n        /* \"#utility.yul\":6784:6855   */\n      tag_301\n      jump\t// in\n    tag_300:\n        /* \"#utility.yul\":6777:6855   */\n      swap4\n      pop\n        /* \"#utility.yul\":6864:6916   */\n      tag_302\n        /* \"#utility.yul\":6909:6915   */\n      dup2\n        /* \"#utility.yul\":6904:6907   */\n      dup6\n        /* \"#utility.yul\":6897:6901   */\n      0x20\n        /* \"#utility.yul\":6890:6895   */\n      dup7\n        /* \"#utility.yul\":6886:6902   */\n      add\n        /* \"#utility.yul\":6864:6916   */\n      tag_294\n      jump\t// in\n    tag_302:\n        /* \"#utility.yul\":6941:6970   */\n      tag_303\n        /* \"#utility.yul\":6963:6969   */\n      dup2\n        /* \"#utility.yul\":6941:6970   */\n      tag_296\n      jump\t// in\n    tag_303:\n        /* \"#utility.yul\":6936:6939   */\n      dup5\n        /* \"#utility.yul\":6932:6971   */\n      add\n        /* \"#utility.yul\":6925:6971   */\n      swap2\n      pop\n        /* \"#utility.yul\":6705:6977   */\n      pop\n      swap3\n      swap2\n      pop\n      pop\n      jump\t// out\n        /* \"#utility.yul\":6983:7353   */\n    tag_304:\n      0x00\n        /* \"#utility.yul\":7146:7213   */\n      tag_306\n        /* \"#utility.yul\":7210:7212   */\n      0x26\n        /* \"#utility.yul\":7205:7208   */\n      dup4\n        /* \"#utility.yul\":7146:7213   */\n      tag_301\n      jump\t// in\n    tag_306:\n        /* \"#utility.yul\":7139:7213   */\n      swap2\n      pop\n        /* \"#utility.yul\":7243:7277   */\n      0x5769746864726177616c20616d6f756e74206578636565647320726169736564\n        /* \"#utility.yul\":7239:7240   */\n      0x00\n        /* \"#utility.yul\":7234:7237   */\n      dup4\n        /* \"#utility.yul\":7230:7241   */\n      add\n        /* \"#utility.yul\":7223:7278   */\n      mstore\n        /* \"#utility.yul\":7309:7317   */\n      0x2066756e64730000000000000000000000000000000000000000000000000000\n        /* \"#utility.yul\":7304:7306   */\n      0x20\n        /* \"#utility.yul\":7299:7302   */\n      dup4\n        /* \"#utility.yul\":7295:7307   */\n      add\n        /* \"#utility.yul\":7288:7318   */\n      mstore\n        /* \"#utility.yul\":7344:7346   */\n      0x40\n        /* \"#utility.yul\":7339:7342   */\n      dup3\n        /* \"#utility.yul\":7335:7347   */\n      add\n        /* \"#utility.yul\":7328:7347   */\n      swap1\n      pop\n        /* \"#utility.yul\":7129:7353   */\n      swap2\n      swap1\n      pop\n      jump\t// out\n        /* \"#utility.yul\":7359:7738   */\n    tag_307:\n      0x00\n        /* \"#utility.yul\":7522:7589   */\n      tag_309\n        /* \"#utility.yul\":7586:7588   */\n      0x2f\n        /* \"#utility.yul\":7581:7584   */\n      dup4\n        /* \"#utility.yul\":7522:7589   */\n      tag_301\n      jump\t// in\n    tag_309:\n        /* \"#utility.yul\":7515:7589   */\n      swap2\n      pop\n        /* \"#utility.yul\":7619:7653   */\n      0x4f6e6c79207468652063726561746f722063616e207769746864726177206672\n        /* \"#utility.yul\":7615:7616   */\n      0x00\n        /* \"#utility.yul\":7610:7613   */\n      dup4\n        /* \"#utility.yul\":7606:7617   */\n      add\n        /* \"#utility.yul\":7599:7654   */\n      mstore\n        /* \"#utility.yul\":7685:7702   */\n      0x6f6d207468652063616d706169676e0000000000000000000000000000000000\n        /* \"#utility.yul\":7680:7682   */\n      0x20\n        /* \"#utility.yul\":7675:7678   */\n      dup4\n        /* \"#utility.yul\":7671:7683   */\n      add\n        /* \"#utility.yul\":7664:7703   */\n      mstore\n        /* \"#utility.yul\":7729:7731   */\n      0x40\n        /* \"#utility.yul\":7724:7727   */\n      dup3\n        /* \"#utility.yul\":7720:7732   */\n      add\n        /* \"#utility.yul\":7713:7732   */\n      swap1\n      pop\n        /* \"#utility.yul\":7505:7738   */\n      swap2\n      swap1\n      pop\n      jump\t// out\n        /* \"#utility.yul\":7744:8116   */\n    tag_310:\n      0x00\n        /* \"#utility.yul\":7907:7974   */\n      tag_312\n        /* \"#utility.yul\":7971:7973   */\n      0x28\n        /* \"#utility.yul\":7966:7969   */\n      dup4\n        /* \"#utility.yul\":7907:7974   */\n      tag_301\n      jump\t// in\n    tag_312:\n        /* \"#utility.yul\":7900:7974   */\n      swap2\n      pop\n        /* \"#utility.yul\":8004:8038   */\n      0x4f6e6c79207468652063726561746f722063616e2064656c6574652074686520\n        /* \"#utility.yul\":8000:8001   */\n      0x00\n        /* \"#utility.yul\":7995:7998   */\n      dup4\n        /* \"#utility.yul\":7991:8002   */\n      add\n        /* \"#utility.yul\":7984:8039   */\n      mstore\n        /* \"#utility.yul\":8070:8080   */\n      0x63616d706169676e000000000000000000000000000000000000000000000000\n        /* \"#utility.yul\":8065:8067   */\n      0x20\n        /* \"#utility.yul\":8060:8063   */\n      dup4\n        /* \"#utility.yul\":8056:8068   */\n      add\n        /* \"#utility.yul\":8049:8081   */\n      mstore\n        /* \"#utility.yul\":8107:8109   */\n      0x40\n        /* \"#utility.yul\":8102:8105   */\n      dup3\n        /* \"#utility.yul\":8098:8110   */\n      add\n        /* \"#utility.yul\":8091:8110   */\n      swap1\n      pop\n        /* \"#utility.yul\":7890:8116   */\n      swap2\n      swap1\n      pop\n      jump\t// out\n        /* \"#utility.yul\":8122:8442   */\n    tag_313:\n      0x00\n        /* \"#utility.yul\":8285:8352   */\n      tag_315\n        /* \"#utility.yul\":8349:8351   */\n      0x16\n        /* \"#utility.yul\":8344:8347   */\n      dup4\n        /* \"#utility.yul\":8285:8352   */\n      tag_301\n      jump\t// in\n    tag_315:\n        /* \"#utility.yul\":8278:8352   */\n      swap2\n      pop\n        /* \"#utility.yul\":8382:8406   */\n      0x43616d706169676e206973206e6f742061637469766500000000000000000000\n        /* \"#utility.yul\":8378:8379   */\n      0x00\n        /* \"#utility.yul\":8373:8376   */\n      dup4\n        /* \"#utility.yul\":8369:8380   */\n      add\n        /* \"#utility.yul\":8362:8407   */\n      mstore\n        /* \"#utility.yul\":8433:8435   */\n      0x20\n        /* \"#utility.yul\":8428:8431   */\n      dup3\n        /* \"#utility.yul\":8424:8436   */\n      add\n        /* \"#utility.yul\":8417:8436   */\n      swap1\n      pop\n        /* \"#utility.yul\":8268:8442   */\n      swap2\n      swap1\n      pop\n      jump\t// out\n        /* \"#utility.yul\":8508:10592   */\n    tag_240:\n      0x00\n        /* \"#utility.yul\":8651:8657   */\n      0x0120\n        /* \"#utility.yul\":8646:8649   */\n      dup4\n        /* \"#utility.yul\":8642:8658   */\n      add\n        /* \"#utility.yul\":8746:8750   */\n      0x00\n        /* \"#utility.yul\":8739:8744   */\n      dup4\n        /* \"#utility.yul\":8735:8751   */\n      add\n        /* \"#utility.yul\":8729:8752   */\n      mload\n        /* \"#utility.yul\":8765:8828   */\n      tag_317\n        /* \"#utility.yul\":8822:8826   */\n      0x00\n        /* \"#utility.yul\":8817:8820   */\n      dup7\n        /* \"#utility.yul\":8813:8827   */\n      add\n        /* \"#utility.yul\":8799:8811   */\n      dup3\n        /* \"#utility.yul\":8765:8828   */\n      tag_318\n      jump\t// in\n    tag_317:\n        /* \"#utility.yul\":8668:8838   */\n      pop\n        /* \"#utility.yul\":8929:8933   */\n      0x20\n        /* \"#utility.yul\":8922:8927   */\n      dup4\n        /* \"#utility.yul\":8918:8934   */\n      add\n        /* \"#utility.yul\":8912:8935   */\n      mload\n        /* \"#utility.yul\":8982:8985   */\n      dup5\n        /* \"#utility.yul\":8976:8980   */\n      dup3\n        /* \"#utility.yul\":8972:8986   */\n      sub\n        /* \"#utility.yul\":8965:8969   */\n      0x20\n        /* \"#utility.yul\":8960:8963   */\n      dup7\n        /* \"#utility.yul\":8956:8970   */\n      add\n        /* \"#utility.yul\":8949:8987   */\n      mstore\n        /* \"#utility.yul\":9008:9081   */\n      tag_319\n        /* \"#utility.yul\":9076:9080   */\n      dup3\n        /* \"#utility.yul\":9062:9074   */\n      dup3\n        /* \"#utility.yul\":9008:9081   */\n      tag_287\n      jump\t// in\n    tag_319:\n        /* \"#utility.yul\":9000:9081   */\n      swap2\n      pop\n        /* \"#utility.yul\":8848:9092   */\n      pop\n        /* \"#utility.yul\":9183:9187   */\n      0x40\n        /* \"#utility.yul\":9176:9181   */\n      dup4\n        /* \"#utility.yul\":9172:9188   */\n      add\n        /* \"#utility.yul\":9166:9189   */\n      mload\n        /* \"#utility.yul\":9236:9239   */\n      dup5\n        /* \"#utility.yul\":9230:9234   */\n      dup3\n        /* \"#utility.yul\":9226:9240   */\n      sub\n        /* \"#utility.yul\":9219:9223   */\n      0x40\n        /* \"#utility.yul\":9214:9217   */\n      dup7\n        /* \"#utility.yul\":9210:9224   */\n      add\n        /* \"#utility.yul\":9203:9241   */\n      mstore\n        /* \"#utility.yul\":9262:9335   */\n      tag_320\n        /* \"#utility.yul\":9330:9334   */\n      dup3\n        /* \"#utility.yul\":9316:9328   */\n      dup3\n        /* \"#utility.yul\":9262:9335   */\n      tag_287\n      jump\t// in\n    tag_320:\n        /* \"#utility.yul\":9254:9335   */\n      swap2\n      pop\n        /* \"#utility.yul\":9102:9346   */\n      pop\n        /* \"#utility.yul\":9431:9435   */\n      0x60\n        /* \"#utility.yul\":9424:9429   */\n      dup4\n        /* \"#utility.yul\":9420:9436   */\n      add\n        /* \"#utility.yul\":9414:9437   */\n      mload\n        /* \"#utility.yul\":9450:9513   */\n      tag_321\n        /* \"#utility.yul\":9507:9511   */\n      0x60\n        /* \"#utility.yul\":9502:9505   */\n      dup7\n        /* \"#utility.yul\":9498:9512   */\n      add\n        /* \"#utility.yul\":9484:9496   */\n      dup3\n        /* \"#utility.yul\":9450:9513   */\n      tag_318\n      jump\t// in\n    tag_321:\n        /* \"#utility.yul\":9356:9523   */\n      pop\n        /* \"#utility.yul\":9610:9614   */\n      0x80\n        /* \"#utility.yul\":9603:9608   */\n      dup4\n        /* \"#utility.yul\":9599:9615   */\n      add\n        /* \"#utility.yul\":9593:9616   */\n      mload\n        /* \"#utility.yul\":9629:9692   */\n      tag_322\n        /* \"#utility.yul\":9686:9690   */\n      0x80\n        /* \"#utility.yul\":9681:9684   */\n      dup7\n        /* \"#utility.yul\":9677:9691   */\n      add\n        /* \"#utility.yul\":9663:9675   */\n      dup3\n        /* \"#utility.yul\":9629:9692   */\n      tag_318\n      jump\t// in\n    tag_322:\n        /* \"#utility.yul\":9533:9702   */\n      pop\n        /* \"#utility.yul\":9792:9796   */\n      0xa0\n        /* \"#utility.yul\":9785:9790   */\n      dup4\n        /* \"#utility.yul\":9781:9797   */\n      add\n        /* \"#utility.yul\":9775:9798   */\n      mload\n        /* \"#utility.yul\":9845:9848   */\n      dup5\n        /* \"#utility.yul\":9839:9843   */\n      dup3\n        /* \"#utility.yul\":9835:9849   */\n      sub\n        /* \"#utility.yul\":9828:9832   */\n      0xa0\n        /* \"#utility.yul\":9823:9826   */\n      dup7\n        /* \"#utility.yul\":9819:9833   */\n      add\n        /* \"#utility.yul\":9812:9850   */\n      mstore\n        /* \"#utility.yul\":9871:9944   */\n      tag_323\n        /* \"#utility.yul\":9939:9943   */\n      dup3\n        /* \"#utility.yul\":9925:9937   */\n      dup3\n        /* \"#utility.yul\":9871:9944   */\n      tag_287\n      jump\t// in\n    tag_323:\n        /* \"#utility.yul\":9863:9944   */\n      swap2\n      pop\n        /* \"#utility.yul\":9712:9955   */\n      pop\n        /* \"#utility.yul\":10046:10050   */\n      0xc0\n        /* \"#utility.yul\":10039:10044   */\n      dup4\n        /* \"#utility.yul\":10035:10051   */\n      add\n        /* \"#utility.yul\":10029:10052   */\n      mload\n        /* \"#utility.yul\":10065:10128   */\n      tag_324\n        /* \"#utility.yul\":10122:10126   */\n      0xc0\n        /* \"#utility.yul\":10117:10120   */\n      dup7\n        /* \"#utility.yul\":10113:10127   */\n      add\n        /* \"#utility.yul\":10099:10111   */\n      dup3\n        /* \"#utility.yul\":10065:10128   */\n      tag_245\n      jump\t// in\n    tag_324:\n        /* \"#utility.yul\":9965:10138   */\n      pop\n        /* \"#utility.yul\":10224:10228   */\n      0xe0\n        /* \"#utility.yul\":10217:10222   */\n      dup4\n        /* \"#utility.yul\":10213:10229   */\n      add\n        /* \"#utility.yul\":10207:10230   */\n      mload\n        /* \"#utility.yul\":10243:10300   */\n      tag_325\n        /* \"#utility.yul\":10294:10298   */\n      0xe0\n        /* \"#utility.yul\":10289:10292   */\n      dup7\n        /* \"#utility.yul\":10285:10299   */\n      add\n        /* \"#utility.yul\":10271:10283   */\n      dup3\n        /* \"#utility.yul\":10243:10300   */\n      tag_280\n      jump\t// in\n    tag_325:\n        /* \"#utility.yul\":10148:10310   */\n      pop\n        /* \"#utility.yul\":10398:10404   */\n      0x0100\n        /* \"#utility.yul\":10391:10396   */\n      dup4\n        /* \"#utility.yul\":10387:10405   */\n      add\n        /* \"#utility.yul\":10381:10406   */\n      mload\n        /* \"#utility.yul\":10455:10458   */\n      dup5\n        /* \"#utility.yul\":10449:10453   */\n      dup3\n        /* \"#utility.yul\":10445:10459   */\n      sub\n        /* \"#utility.yul\":10436:10442   */\n      0x0100\n        /* \"#utility.yul\":10431:10434   */\n      dup7\n        /* \"#utility.yul\":10427:10443   */\n      add\n        /* \"#utility.yul\":10420:10460   */\n      mstore\n        /* \"#utility.yul\":10481:10554   */\n      tag_326\n        /* \"#utility.yul\":10549:10553   */\n      dup3\n        /* \"#utility.yul\":10535:10547   */\n      dup3\n        /* \"#utility.yul\":10481:10554   */\n      tag_287\n      jump\t// in\n    tag_326:\n        /* \"#utility.yul\":10473:10554   */\n      swap2\n      pop\n        /* \"#utility.yul\":10320:10565   */\n      pop\n        /* \"#utility.yul\":10582:10586   */\n      dup1\n        /* \"#utility.yul\":10575:10586   */\n      swap2\n      pop\n        /* \"#utility.yul\":8620:10592   */\n      pop\n      swap3\n      swap2\n      pop\n      pop\n      jump\t// out\n        /* \"#utility.yul\":10658:12752   */\n    tag_327:\n      0x00\n        /* \"#utility.yul\":10811:10817   */\n      0x0120\n        /* \"#utility.yul\":10806:10809   */\n      dup4\n        /* \"#utility.yul\":10802:10818   */\n      add\n        /* \"#utility.yul\":10906:10910   */\n      0x00\n        /* \"#utility.yul\":10899:10904   */\n      dup4\n        /* \"#utility.yul\":10895:10911   */\n      add\n        /* \"#utility.yul\":10889:10912   */\n      mload\n        /* \"#utility.yul\":10925:10988   */\n      tag_329\n        /* \"#utility.yul\":10982:10986   */\n      0x00\n        /* \"#utility.yul\":10977:10980   */\n      dup7\n        /* \"#utility.yul\":10973:10987   */\n      add\n        /* \"#utility.yul\":10959:10971   */\n      dup3\n        /* \"#utility.yul\":10925:10988   */\n      tag_318\n      jump\t// in\n    tag_329:\n        /* \"#utility.yul\":10828:10998   */\n      pop\n        /* \"#utility.yul\":11089:11093   */\n      0x20\n        /* \"#utility.yul\":11082:11087   */\n      dup4\n        /* \"#utility.yul\":11078:11094   */\n      add\n        /* \"#utility.yul\":11072:11095   */\n      mload\n        /* \"#utility.yul\":11142:11145   */\n      dup5\n        /* \"#utility.yul\":11136:11140   */\n      dup3\n        /* \"#utility.yul\":11132:11146   */\n      sub\n        /* \"#utility.yul\":11125:11129   */\n      0x20\n        /* \"#utility.yul\":11120:11123   */\n      dup7\n        /* \"#utility.yul\":11116:11130   */\n      add\n        /* \"#utility.yul\":11109:11147   */\n      mstore\n        /* \"#utility.yul\":11168:11241   */\n      tag_330\n        /* \"#utility.yul\":11236:11240   */\n      dup3\n        /* \"#utility.yul\":11222:11234   */\n      dup3\n        /* \"#utility.yul\":11168:11241   */\n      tag_287\n      jump\t// in\n    tag_330:\n        /* \"#utility.yul\":11160:11241   */\n      swap2\n      pop\n        /* \"#utility.yul\":11008:11252   */\n      pop\n        /* \"#utility.yul\":11343:11347   */\n      0x40\n        /* \"#utility.yul\":11336:11341   */\n      dup4\n        /* \"#utility.yul\":11332:11348   */\n      add\n        /* \"#utility.yul\":11326:11349   */\n      mload\n        /* \"#utility.yul\":11396:11399   */\n      dup5\n        /* \"#utility.yul\":11390:11394   */\n      dup3\n        /* \"#utility.yul\":11386:11400   */\n      sub\n        /* \"#utility.yul\":11379:11383   */\n      0x40\n        /* \"#utility.yul\":11374:11377   */\n      dup7\n        /* \"#utility.yul\":11370:11384   */\n      add\n        /* \"#utility.yul\":11363:11401   */\n      mstore\n        /* \"#utility.yul\":11422:11495   */\n      tag_331\n        /* \"#utility.yul\":11490:11494   */\n      dup3\n        /* \"#utility.yul\":11476:11488   */\n      dup3\n        /* \"#utility.yul\":11422:11495   */\n      tag_287\n      jump\t// in\n    tag_331:\n        /* \"#utility.yul\":11414:11495   */\n      swap2\n      pop\n        /* \"#utility.yul\":11262:11506   */\n      pop\n        /* \"#utility.yul\":11591:11595   */\n      0x60\n        /* \"#utility.yul\":11584:11589   */\n      dup4\n        /* \"#utility.yul\":11580:11596   */\n      add\n        /* \"#utility.yul\":11574:11597   */\n      mload\n        /* \"#utility.yul\":11610:11673   */\n      tag_332\n        /* \"#utility.yul\":11667:11671   */\n      0x60\n        /* \"#utility.yul\":11662:11665   */\n      dup7\n        /* \"#utility.yul\":11658:11672   */\n      add\n        /* \"#utility.yul\":11644:11656   */\n      dup3\n        /* \"#utility.yul\":11610:11673   */\n      tag_318\n      jump\t// in\n    tag_332:\n        /* \"#utility.yul\":11516:11683   */\n      pop\n        /* \"#utility.yul\":11770:11774   */\n      0x80\n        /* \"#utility.yul\":11763:11768   */\n      dup4\n        /* \"#utility.yul\":11759:11775   */\n      add\n        /* \"#utility.yul\":11753:11776   */\n      mload\n        /* \"#utility.yul\":11789:11852   */\n      tag_333\n        /* \"#utility.yul\":11846:11850   */\n      0x80\n        /* \"#utility.yul\":11841:11844   */\n      dup7\n        /* \"#utility.yul\":11837:11851   */\n      add\n        /* \"#utility.yul\":11823:11835   */\n      dup3\n        /* \"#utility.yul\":11789:11852   */\n      tag_318\n      jump\t// in\n    tag_333:\n        /* \"#utility.yul\":11693:11862   */\n      pop\n        /* \"#utility.yul\":11952:11956   */\n      0xa0\n        /* \"#utility.yul\":11945:11950   */\n      dup4\n        /* \"#utility.yul\":11941:11957   */\n      add\n        /* \"#utility.yul\":11935:11958   */\n      mload\n        /* \"#utility.yul\":12005:12008   */\n      dup5\n        /* \"#utility.yul\":11999:12003   */\n      dup3\n        /* \"#utility.yul\":11995:12009   */\n      sub\n        /* \"#utility.yul\":11988:11992   */\n      0xa0\n        /* \"#utility.yul\":11983:11986   */\n      dup7\n        /* \"#utility.yul\":11979:11993   */\n      add\n        /* \"#utility.yul\":11972:12010   */\n      mstore\n        /* \"#utility.yul\":12031:12104   */\n      tag_334\n        /* \"#utility.yul\":12099:12103   */\n      dup3\n        /* \"#utility.yul\":12085:12097   */\n      dup3\n        /* \"#utility.yul\":12031:12104   */\n      tag_287\n      jump\t// in\n    tag_334:\n        /* \"#utility.yul\":12023:12104   */\n      swap2\n      pop\n        /* \"#utility.yul\":11872:12115   */\n      pop\n        /* \"#utility.yul\":12206:12210   */\n      0xc0\n        /* \"#utility.yul\":12199:12204   */\n      dup4\n        /* \"#utility.yul\":12195:12211   */\n      add\n        /* \"#utility.yul\":12189:12212   */\n      mload\n        /* \"#utility.yul\":12225:12288   */\n      tag_335\n        /* \"#utility.yul\":12282:12286   */\n      0xc0\n        /* \"#utility.yul\":12277:12280   */\n      dup7\n        /* \"#utility.yul\":12273:12287   */\n      add\n        /* \"#utility.yul\":12259:12271   */\n      dup3\n        /* \"#utility.yul\":12225:12288   */\n      tag_245\n      jump\t// in\n    tag_335:\n        /* \"#utility.yul\":12125:12298   */\n      pop\n        /* \"#utility.yul\":12384:12388   */\n      0xe0\n        /* \"#utility.yul\":12377:12382   */\n      dup4\n        /* \"#utility.yul\":12373:12389   */\n      add\n        /* \"#utility.yul\":12367:12390   */\n      mload\n        /* \"#utility.yul\":12403:12460   */\n      tag_336\n        /* \"#utility.yul\":12454:12458   */\n      0xe0\n        /* \"#utility.yul\":12449:12452   */\n      dup7\n        /* \"#utility.yul\":12445:12459   */\n      add\n        /* \"#utility.yul\":12431:12443   */\n      dup3\n        /* \"#utility.yul\":12403:12460   */\n      tag_280\n      jump\t// in\n    tag_336:\n        /* \"#utility.yul\":12308:12470   */\n      pop\n        /* \"#utility.yul\":12558:12564   */\n      0x0100\n        /* \"#utility.yul\":12551:12556   */\n      dup4\n        /* \"#utility.yul\":12547:12565   */\n      add\n        /* \"#utility.yul\":12541:12566   */\n      mload\n        /* \"#utility.yul\":12615:12618   */\n      dup5\n        /* \"#utility.yul\":12609:12613   */\n      dup3\n        /* \"#utility.yul\":12605:12619   */\n      sub\n        /* \"#utility.yul\":12596:12602   */\n      0x0100\n        /* \"#utility.yul\":12591:12594   */\n      dup7\n        /* \"#utility.yul\":12587:12603   */\n      add\n        /* \"#utility.yul\":12580:12620   */\n      mstore\n        /* \"#utility.yul\":12641:12714   */\n      tag_337\n        /* \"#utility.yul\":12709:12713   */\n      dup3\n        /* \"#utility.yul\":12695:12707   */\n      dup3\n        /* \"#utility.yul\":12641:12714   */\n      tag_287\n      jump\t// in\n    tag_337:\n        /* \"#utility.yul\":12633:12714   */\n      swap2\n      pop\n        /* \"#utility.yul\":12480:12725   */\n      pop\n        /* \"#utility.yul\":12742:12746   */\n      dup1\n        /* \"#utility.yul\":12735:12746   */\n      swap2\n      pop\n        /* \"#utility.yul\":10780:12752   */\n      pop\n      swap3\n      swap2\n      pop\n      pop\n      jump\t// out\n        /* \"#utility.yul\":12824:14054   */\n    tag_244:\n        /* \"#utility.yul\":12965:12969   */\n      0xc0\n        /* \"#utility.yul\":12960:12963   */\n      dup3\n        /* \"#utility.yul\":12956:12970   */\n      add\n        /* \"#utility.yul\":13061:13065   */\n      0x00\n        /* \"#utility.yul\":13054:13059   */\n      dup3\n        /* \"#utility.yul\":13050:13066   */\n      add\n        /* \"#utility.yul\":13044:13067   */\n      mload\n        /* \"#utility.yul\":13080:13143   */\n      tag_339\n        /* \"#utility.yul\":13137:13141   */\n      0x00\n        /* \"#utility.yul\":13132:13135   */\n      dup6\n        /* \"#utility.yul\":13128:13142   */\n      add\n        /* \"#utility.yul\":13114:13126   */\n      dup3\n        /* \"#utility.yul\":13080:13143   */\n      tag_318\n      jump\t// in\n    tag_339:\n        /* \"#utility.yul\":12980:13153   */\n      pop\n        /* \"#utility.yul\":13237:13241   */\n      0x20\n        /* \"#utility.yul\":13230:13235   */\n      dup3\n        /* \"#utility.yul\":13226:13242   */\n      add\n        /* \"#utility.yul\":13220:13243   */\n      mload\n        /* \"#utility.yul\":13256:13319   */\n      tag_340\n        /* \"#utility.yul\":13313:13317   */\n      0x20\n        /* \"#utility.yul\":13308:13311   */\n      dup6\n        /* \"#utility.yul\":13304:13318   */\n      add\n        /* \"#utility.yul\":13290:13302   */\n      dup3\n        /* \"#utility.yul\":13256:13319   */\n      tag_318\n      jump\t// in\n    tag_340:\n        /* \"#utility.yul\":13163:13329   */\n      pop\n        /* \"#utility.yul\":13422:13426   */\n      0x40\n        /* \"#utility.yul\":13415:13420   */\n      dup3\n        /* \"#utility.yul\":13411:13427   */\n      add\n        /* \"#utility.yul\":13405:13428   */\n      mload\n        /* \"#utility.yul\":13441:13504   */\n      tag_341\n        /* \"#utility.yul\":13498:13502   */\n      0x40\n        /* \"#utility.yul\":13493:13496   */\n      dup6\n        /* \"#utility.yul\":13489:13503   */\n      add\n        /* \"#utility.yul\":13475:13487   */\n      dup3\n        /* \"#utility.yul\":13441:13504   */\n      tag_245\n      jump\t// in\n    tag_341:\n        /* \"#utility.yul\":13339:13514   */\n      pop\n        /* \"#utility.yul\":13602:13606   */\n      0x60\n        /* \"#utility.yul\":13595:13600   */\n      dup3\n        /* \"#utility.yul\":13591:13607   */\n      add\n        /* \"#utility.yul\":13585:13608   */\n      mload\n        /* \"#utility.yul\":13621:13684   */\n      tag_342\n        /* \"#utility.yul\":13678:13682   */\n      0x60\n        /* \"#utility.yul\":13673:13676   */\n      dup6\n        /* \"#utility.yul\":13669:13683   */\n      add\n        /* \"#utility.yul\":13655:13667   */\n      dup3\n        /* \"#utility.yul\":13621:13684   */\n      tag_245\n      jump\t// in\n    tag_342:\n        /* \"#utility.yul\":13524:13694   */\n      pop\n        /* \"#utility.yul\":13782:13786   */\n      0x80\n        /* \"#utility.yul\":13775:13780   */\n      dup3\n        /* \"#utility.yul\":13771:13787   */\n      add\n        /* \"#utility.yul\":13765:13788   */\n      mload\n        /* \"#utility.yul\":13801:13864   */\n      tag_343\n        /* \"#utility.yul\":13858:13862   */\n      0x80\n        /* \"#utility.yul\":13853:13856   */\n      dup6\n        /* \"#utility.yul\":13849:13863   */\n      add\n        /* \"#utility.yul\":13835:13847   */\n      dup3\n        /* \"#utility.yul\":13801:13864   */\n      tag_318\n      jump\t// in\n    tag_343:\n        /* \"#utility.yul\":13704:13874   */\n      pop\n        /* \"#utility.yul\":13961:13965   */\n      0xa0\n        /* \"#utility.yul\":13954:13959   */\n      dup3\n        /* \"#utility.yul\":13950:13966   */\n      add\n        /* \"#utility.yul\":13944:13967   */\n      mload\n        /* \"#utility.yul\":13980:14037   */\n      tag_344\n        /* \"#utility.yul\":14031:14035   */\n      0xa0\n        /* \"#utility.yul\":14026:14029   */\n      dup6\n        /* \"#utility.yul\":14022:14036   */\n      add\n        /* \"#utility.yul\":14008:14020   */\n      dup3\n        /* \"#utility.yul\":13980:14037   */\n      tag_280\n      jump\t// in\n    tag_344:\n        /* \"#utility.yul\":13884:14047   */\n      pop\n        /* \"#utility.yul\":12934:14054   */\n      pop\n      pop\n      pop\n      jump\t// out\n        /* \"#utility.yul\":14060:14168   */\n    tag_318:\n        /* \"#utility.yul\":14137:14161   */\n      tag_346\n        /* \"#utility.yul\":14155:14160   */\n      dup2\n        /* \"#utility.yul\":14137:14161   */\n      tag_347\n      jump\t// in\n    tag_346:\n        /* \"#utility.yul\":14132:14135   */\n      dup3\n        /* \"#utility.yul\":14125:14162   */\n      mstore\n        /* \"#utility.yul\":14115:14168   */\n      pop\n      pop\n      jump\t// out\n        /* \"#utility.yul\":14174:14292   */\n    tag_348:\n        /* \"#utility.yul\":14261:14285   */\n      tag_350\n        /* \"#utility.yul\":14279:14284   */\n      dup2\n        /* \"#utility.yul\":14261:14285   */\n      tag_347\n      jump\t// in\n    tag_350:\n        /* \"#utility.yul\":14256:14259   */\n      dup3\n        /* \"#utility.yul\":14249:14286   */\n      mstore\n        /* \"#utility.yul\":14239:14292   */\n      pop\n      pop\n      jump\t// out\n        /* \"#utility.yul\":14298:14767   */\n    tag_48:\n      0x00\n        /* \"#utility.yul\":14527:14529   */\n      0x20\n        /* \"#utility.yul\":14516:14525   */\n      dup3\n        /* \"#utility.yul\":14512:14530   */\n      add\n        /* \"#utility.yul\":14504:14530   */\n      swap1\n      pop\n        /* \"#utility.yul\":14576:14585   */\n      dup2\n        /* \"#utility.yul\":14570:14574   */\n      dup2\n        /* \"#utility.yul\":14566:14586   */\n      sub\n        /* \"#utility.yul\":14562:14563   */\n      0x00\n        /* \"#utility.yul\":14551:14560   */\n      dup4\n        /* \"#utility.yul\":14547:14564   */\n      add\n        /* \"#utility.yul\":14540:14587   */\n      mstore\n        /* \"#utility.yul\":14604:14760   */\n      tag_352\n        /* \"#utility.yul\":14755:14759   */\n      dup2\n        /* \"#utility.yul\":14746:14752   */\n      dup5\n        /* \"#utility.yul\":14604:14760   */\n      tag_252\n      jump\t// in\n    tag_352:\n        /* \"#utility.yul\":14596:14760   */\n      swap1\n      pop\n        /* \"#utility.yul\":14494:14767   */\n      swap3\n      swap2\n      pop\n      pop\n      jump\t// out\n        /* \"#utility.yul\":14773:15254   */\n    tag_64:\n      0x00\n        /* \"#utility.yul\":15008:15010   */\n      0x20\n        /* \"#utility.yul\":14997:15006   */\n      dup3\n        /* \"#utility.yul\":14993:15011   */\n      add\n        /* \"#utility.yul\":14985:15011   */\n      swap1\n      pop\n        /* \"#utility.yul\":15057:15066   */\n      dup2\n        /* \"#utility.yul\":15051:15055   */\n      dup2\n        /* \"#utility.yul\":15047:15067   */\n      sub\n        /* \"#utility.yul\":15043:15044   */\n      0x00\n        /* \"#utility.yul\":15032:15041   */\n      dup4\n        /* \"#utility.yul\":15028:15045   */\n      add\n        /* \"#utility.yul\":15021:15068   */\n      mstore\n        /* \"#utility.yul\":15085:15247   */\n      tag_354\n        /* \"#utility.yul\":15242:15246   */\n      dup2\n        /* \"#utility.yul\":15233:15239   */\n      dup5\n        /* \"#utility.yul\":15085:15247   */\n      tag_266\n      jump\t// in\n    tag_354:\n        /* \"#utility.yul\":15077:15247   */\n      swap1\n      pop\n        /* \"#utility.yul\":14975:15254   */\n      swap3\n      swap2\n      pop\n      pop\n      jump\t// out\n        /* \"#utility.yul\":15260:15679   */\n    tag_125:\n      0x00\n        /* \"#utility.yul\":15464:15466   */\n      0x20\n        /* \"#utility.yul\":15453:15462   */\n      dup3\n        /* \"#utility.yul\":15449:15467   */\n      add\n        /* \"#utility.yul\":15441:15467   */\n      swap1\n      pop\n        /* \"#utility.yul\":15513:15522   */\n      dup2\n        /* \"#utility.yul\":15507:15511   */\n      dup2\n        /* \"#utility.yul\":15503:15523   */\n      sub\n        /* \"#utility.yul\":15499:15500   */\n      0x00\n        /* \"#utility.yul\":15488:15497   */\n      dup4\n        /* \"#utility.yul\":15484:15501   */\n      add\n        /* \"#utility.yul\":15477:15524   */\n      mstore\n        /* \"#utility.yul\":15541:15672   */\n      tag_356\n        /* \"#utility.yul\":15667:15671   */\n      dup2\n        /* \"#utility.yul\":15541:15672   */\n      tag_304\n      jump\t// in\n    tag_356:\n        /* \"#utility.yul\":15533:15672   */\n      swap1\n      pop\n        /* \"#utility.yul\":15431:15679   */\n      swap2\n      swap1\n      pop\n      jump\t// out\n        /* \"#utility.yul\":15685:16104   */\n    tag_122:\n      0x00\n        /* \"#utility.yul\":15889:15891   */\n      0x20\n        /* \"#utility.yul\":15878:15887   */\n      dup3\n        /* \"#utility.yul\":15874:15892   */\n      add\n        /* \"#utility.yul\":15866:15892   */\n      swap1\n      pop\n        /* \"#utility.yul\":15938:15947   */\n      dup2\n        /* \"#utility.yul\":15932:15936   */\n      dup2\n        /* \"#utility.yul\":15928:15948   */\n      sub\n        /* \"#utility.yul\":15924:15925   */\n      0x00\n        /* \"#utility.yul\":15913:15922   */\n      dup4\n        /* \"#utility.yul\":15909:15926   */\n      add\n        /* \"#utility.yul\":15902:15949   */\n      mstore\n        /* \"#utility.yul\":15966:16097   */\n      tag_358\n        /* \"#utility.yul\":16092:16096   */\n      dup2\n        /* \"#utility.yul\":15966:16097   */\n      tag_307\n      jump\t// in\n    tag_358:\n        /* \"#utility.yul\":15958:16097   */\n      swap1\n      pop\n        /* \"#utility.yul\":15856:16104   */\n      swap2\n      swap1\n      pop\n      jump\t// out\n        /* \"#utility.yul\":16110:16529   */\n    tag_133:\n      0x00\n        /* \"#utility.yul\":16314:16316   */\n      0x20\n        /* \"#utility.yul\":16303:16312   */\n      dup3\n        /* \"#utility.yul\":16299:16317   */\n      add\n        /* \"#utility.yul\":16291:16317   */\n      swap1\n      pop\n        /* \"#utility.yul\":16363:16372   */\n      dup2\n        /* \"#utility.yul\":16357:16361   */\n      dup2\n        /* \"#utility.yul\":16353:16373   */\n      sub\n        /* \"#utility.yul\":16349:16350   */\n      0x00\n        /* \"#utility.yul\":16338:16347   */\n      dup4\n        /* \"#utility.yul\":16334:16351   */\n      add\n        /* \"#utility.yul\":16327:16374   */\n      mstore\n        /* \"#utility.yul\":16391:16522   */\n      tag_360\n        /* \"#utility.yul\":16517:16521   */\n      dup2\n        /* \"#utility.yul\":16391:16522   */\n      tag_310\n      jump\t// in\n    tag_360:\n        /* \"#utility.yul\":16383:16522   */\n      swap1\n      pop\n        /* \"#utility.yul\":16281:16529   */\n      swap2\n      swap1\n      pop\n      jump\t// out\n        /* \"#utility.yul\":16535:16954   */\n    tag_68:\n      0x00\n        /* \"#utility.yul\":16739:16741   */\n      0x20\n        /* \"#utility.yul\":16728:16737   */\n      dup3\n        /* \"#utility.yul\":16724:16742   */\n      add\n        /* \"#utility.yul\":16716:16742   */\n      swap1\n      pop\n        /* \"#utility.yul\":16788:16797   */\n      dup2\n        /* \"#utility.yul\":16782:16786   */\n      dup2\n        /* \"#utility.yul\":16778:16798   */\n      sub\n        /* \"#utility.yul\":16774:16775   */\n      0x00\n        /* \"#utility.yul\":16763:16772   */\n      dup4\n        /* \"#utility.yul\":16759:16776   */\n      add\n        /* \"#utility.yul\":16752:16799   */\n      mstore\n        /* \"#utility.yul\":16816:16947   */\n      tag_362\n        /* \"#utility.yul\":16942:16946   */\n      dup2\n        /* \"#utility.yul\":16816:16947   */\n      tag_313\n      jump\t// in\n    tag_362:\n        /* \"#utility.yul\":16808:16947   */\n      swap1\n      pop\n        /* \"#utility.yul\":16706:16954   */\n      swap2\n      swap1\n      pop\n      jump\t// out\n        /* \"#utility.yul\":16960:17329   */\n    tag_35:\n      0x00\n        /* \"#utility.yul\":17139:17141   */\n      0x20\n        /* \"#utility.yul\":17128:17137   */\n      dup3\n        /* \"#utility.yul\":17124:17142   */\n      add\n        /* \"#utility.yul\":17116:17142   */\n      swap1\n      pop\n        /* \"#utility.yul\":17188:17197   */\n      dup2\n        /* \"#utility.yul\":17182:17186   */\n      dup2\n        /* \"#utility.yul\":17178:17198   */\n      sub\n        /* \"#utility.yul\":17174:17175   */\n      0x00\n        /* \"#utility.yul\":17163:17172   */\n      dup4\n        /* \"#utility.yul\":17159:17176   */\n      add\n        /* \"#utility.yul\":17152:17199   */\n      mstore\n        /* \"#utility.yul\":17216:17322   */\n      tag_364\n        /* \"#utility.yul\":17317:17321   */\n      dup2\n        /* \"#utility.yul\":17308:17314   */\n      dup5\n        /* \"#utility.yul\":17216:17322   */\n      tag_327\n      jump\t// in\n    tag_364:\n        /* \"#utility.yul\":17208:17322   */\n      swap1\n      pop\n        /* \"#utility.yul\":17106:17329   */\n      swap3\n      swap2\n      pop\n      pop\n      jump\t// out\n        /* \"#utility.yul\":17335:17557   */\n    tag_58:\n      0x00\n        /* \"#utility.yul\":17466:17468   */\n      0x20\n        /* \"#utility.yul\":17455:17464   */\n      dup3\n        /* \"#utility.yul\":17451:17469   */\n      add\n        /* \"#utility.yul\":17443:17469   */\n      swap1\n      pop\n        /* \"#utility.yul\":17479:17550   */\n      tag_366\n        /* \"#utility.yul\":17547:17548   */\n      0x00\n        /* \"#utility.yul\":17536:17545   */\n      dup4\n        /* \"#utility.yul\":17532:17549   */\n      add\n        /* \"#utility.yul\":17523:17529   */\n      dup5\n        /* \"#utility.yul\":17479:17550   */\n      tag_348\n      jump\t// in\n    tag_366:\n        /* \"#utility.yul\":17433:17557   */\n      swap3\n      swap2\n      pop\n      pop\n      jump\t// out\n        /* \"#utility.yul\":17563:19023   */\n    tag_22:\n      0x00\n        /* \"#utility.yul\":17992:17995   */\n      0x0120\n        /* \"#utility.yul\":17981:17990   */\n      dup3\n        /* \"#utility.yul\":17977:17996   */\n      add\n        /* \"#utility.yul\":17969:17996   */\n      swap1\n      pop\n        /* \"#utility.yul\":18006:18077   */\n      tag_368\n        /* \"#utility.yul\":18074:18075   */\n      0x00\n        /* \"#utility.yul\":18063:18072   */\n      dup4\n        /* \"#utility.yul\":18059:18076   */\n      add\n        /* \"#utility.yul\":18050:18056   */\n      dup13\n        /* \"#utility.yul\":18006:18077   */\n      tag_348\n      jump\t// in\n    tag_368:\n        /* \"#utility.yul\":18124:18133   */\n      dup2\n        /* \"#utility.yul\":18118:18122   */\n      dup2\n        /* \"#utility.yul\":18114:18134   */\n      sub\n        /* \"#utility.yul\":18109:18111   */\n      0x20\n        /* \"#utility.yul\":18098:18107   */\n      dup4\n        /* \"#utility.yul\":18094:18112   */\n      add\n        /* \"#utility.yul\":18087:18135   */\n      mstore\n        /* \"#utility.yul\":18152:18230   */\n      tag_369\n        /* \"#utility.yul\":18225:18229   */\n      dup2\n        /* \"#utility.yul\":18216:18222   */\n      dup12\n        /* \"#utility.yul\":18152:18230   */\n      tag_297\n      jump\t// in\n    tag_369:\n        /* \"#utility.yul\":18144:18230   */\n      swap1\n      pop\n        /* \"#utility.yul\":18277:18286   */\n      dup2\n        /* \"#utility.yul\":18271:18275   */\n      dup2\n        /* \"#utility.yul\":18267:18287   */\n      sub\n        /* \"#utility.yul\":18262:18264   */\n      0x40\n        /* \"#utility.yul\":18251:18260   */\n      dup4\n        /* \"#utility.yul\":18247:18265   */\n      add\n        /* \"#utility.yul\":18240:18288   */\n      mstore\n        /* \"#utility.yul\":18305:18383   */\n      tag_370\n        /* \"#utility.yul\":18378:18382   */\n      dup2\n        /* \"#utility.yul\":18369:18375   */\n      dup11\n        /* \"#utility.yul\":18305:18383   */\n      tag_297\n      jump\t// in\n    tag_370:\n        /* \"#utility.yul\":18297:18383   */\n      swap1\n      pop\n        /* \"#utility.yul\":18393:18465   */\n      tag_371\n        /* \"#utility.yul\":18461:18463   */\n      0x60\n        /* \"#utility.yul\":18450:18459   */\n      dup4\n        /* \"#utility.yul\":18446:18464   */\n      add\n        /* \"#utility.yul\":18437:18443   */\n      dup10\n        /* \"#utility.yul\":18393:18465   */\n      tag_348\n      jump\t// in\n    tag_371:\n        /* \"#utility.yul\":18475:18548   */\n      tag_372\n        /* \"#utility.yul\":18543:18546   */\n      0x80\n        /* \"#utility.yul\":18532:18541   */\n      dup4\n        /* \"#utility.yul\":18528:18547   */\n      add\n        /* \"#utility.yul\":18519:18525   */\n      dup9\n        /* \"#utility.yul\":18475:18548   */\n      tag_348\n      jump\t// in\n    tag_372:\n        /* \"#utility.yul\":18596:18605   */\n      dup2\n        /* \"#utility.yul\":18590:18594   */\n      dup2\n        /* \"#utility.yul\":18586:18606   */\n      sub\n        /* \"#utility.yul\":18580:18583   */\n      0xa0\n        /* \"#utility.yul\":18569:18578   */\n      dup4\n        /* \"#utility.yul\":18565:18584   */\n      add\n        /* \"#utility.yul\":18558:18607   */\n      mstore\n        /* \"#utility.yul\":18624:18702   */\n      tag_373\n        /* \"#utility.yul\":18697:18701   */\n      dup2\n        /* \"#utility.yul\":18688:18694   */\n      dup8\n        /* \"#utility.yul\":18624:18702   */\n      tag_297\n      jump\t// in\n    tag_373:\n        /* \"#utility.yul\":18616:18702   */\n      swap1\n      pop\n        /* \"#utility.yul\":18712:18785   */\n      tag_374\n        /* \"#utility.yul\":18780:18783   */\n      0xc0\n        /* \"#utility.yul\":18769:18778   */\n      dup4\n        /* \"#utility.yul\":18765:18784   */\n      add\n        /* \"#utility.yul\":18756:18762   */\n      dup7\n        /* \"#utility.yul\":18712:18785   */\n      tag_249\n      jump\t// in\n    tag_374:\n        /* \"#utility.yul\":18795:18862   */\n      tag_375\n        /* \"#utility.yul\":18857:18860   */\n      0xe0\n        /* \"#utility.yul\":18846:18855   */\n      dup4\n        /* \"#utility.yul\":18842:18861   */\n      add\n        /* \"#utility.yul\":18833:18839   */\n      dup6\n        /* \"#utility.yul\":18795:18862   */\n      tag_284\n      jump\t// in\n    tag_375:\n        /* \"#utility.yul\":18910:18919   */\n      dup2\n        /* \"#utility.yul\":18904:18908   */\n      dup2\n        /* \"#utility.yul\":18900:18920   */\n      sub\n        /* \"#utility.yul\":18894:18897   */\n      0x0100\n        /* \"#utility.yul\":18883:18892   */\n      dup4\n        /* \"#utility.yul\":18879:18898   */\n      add\n        /* \"#utility.yul\":18872:18921   */\n      mstore\n        /* \"#utility.yul\":18938:19016   */\n      tag_376\n        /* \"#utility.yul\":19011:19015   */\n      dup2\n        /* \"#utility.yul\":19002:19008   */\n      dup5\n        /* \"#utility.yul\":18938:19016   */\n      tag_297\n      jump\t// in\n    tag_376:\n        /* \"#utility.yul\":18930:19016   */\n      swap1\n      pop\n        /* \"#utility.yul\":17959:19023   */\n      swap11\n      swap10\n      pop\n      pop\n      pop\n      pop\n      pop\n      pop\n      pop\n      pop\n      pop\n      pop\n      jump\t// out\n        /* \"#utility.yul\":19029:19792   */\n    tag_29:\n      0x00\n        /* \"#utility.yul\":19294:19297   */\n      0xc0\n        /* \"#utility.yul\":19283:19292   */\n      dup3\n        /* \"#utility.yul\":19279:19298   */\n      add\n        /* \"#utility.yul\":19271:19298   */\n      swap1\n      pop\n        /* \"#utility.yul\":19308:19379   */\n      tag_378\n        /* \"#utility.yul\":19376:19377   */\n      0x00\n        /* \"#utility.yul\":19365:19374   */\n      dup4\n        /* \"#utility.yul\":19361:19378   */\n      add\n        /* \"#utility.yul\":19352:19358   */\n      dup10\n        /* \"#utility.yul\":19308:19379   */\n      tag_348\n      jump\t// in\n    tag_378:\n        /* \"#utility.yul\":19389:19461   */\n      tag_379\n        /* \"#utility.yul\":19457:19459   */\n      0x20\n        /* \"#utility.yul\":19446:19455   */\n      dup4\n        /* \"#utility.yul\":19442:19460   */\n      add\n        /* \"#utility.yul\":19433:19439   */\n      dup9\n        /* \"#utility.yul\":19389:19461   */\n      tag_348\n      jump\t// in\n    tag_379:\n        /* \"#utility.yul\":19471:19543   */\n      tag_380\n        /* \"#utility.yul\":19539:19541   */\n      0x40\n        /* \"#utility.yul\":19528:19537   */\n      dup4\n        /* \"#utility.yul\":19524:19542   */\n      add\n        /* \"#utility.yul\":19515:19521   */\n      dup8\n        /* \"#utility.yul\":19471:19543   */\n      tag_249\n      jump\t// in\n    tag_380:\n        /* \"#utility.yul\":19553:19625   */\n      tag_381\n        /* \"#utility.yul\":19621:19623   */\n      0x60\n        /* \"#utility.yul\":19610:19619   */\n      dup4\n        /* \"#utility.yul\":19606:19624   */\n      add\n        /* \"#utility.yul\":19597:19603   */\n      dup7\n        /* \"#utility.yul\":19553:19625   */\n      tag_249\n      jump\t// in\n    tag_381:\n        /* \"#utility.yul\":19635:19708   */\n      tag_382\n        /* \"#utility.yul\":19703:19706   */\n      0x80\n        /* \"#utility.yul\":19692:19701   */\n      dup4\n        /* \"#utility.yul\":19688:19707   */\n      add\n        /* \"#utility.yul\":19679:19685   */\n      dup6\n        /* \"#utility.yul\":19635:19708   */\n      tag_348\n      jump\t// in\n    tag_382:\n        /* \"#utility.yul\":19718:19785   */\n      tag_383\n        /* \"#utility.yul\":19780:19783   */\n      0xa0\n        /* \"#utility.yul\":19769:19778   */\n      dup4\n        /* \"#utility.yul\":19765:19784   */\n      add\n        /* \"#utility.yul\":19756:19762   */\n      dup5\n        /* \"#utility.yul\":19718:19785   */\n      tag_284\n      jump\t// in\n    tag_383:\n        /* \"#utility.yul\":19261:19792   */\n      swap8\n      swap7\n      pop\n      pop\n      pop\n      pop\n      pop\n      pop\n      pop\n      jump\t// out\n        /* \"#utility.yul\":19798:20081   */\n    tag_202:\n      0x00\n        /* \"#utility.yul\":19864:19866   */\n      0x40\n        /* \"#utility.yul\":19858:19867   */\n      mload\n        /* \"#utility.yul\":19848:19867   */\n      swap1\n      pop\n        /* \"#utility.yul\":19906:19910   */\n      dup2\n        /* \"#utility.yul\":19898:19904   */\n      dup2\n        /* \"#utility.yul\":19894:19911   */\n      add\n        /* \"#utility.yul\":20013:20019   */\n      dup2\n        /* \"#utility.yul\":20001:20011   */\n      dup2\n        /* \"#utility.yul\":19998:20020   */\n      lt\n        /* \"#utility.yul\":19977:19995   */\n      0xffffffffffffffff\n        /* \"#utility.yul\":19965:19975   */\n      dup3\n        /* \"#utility.yul\":19962:19996   */\n      gt\n        /* \"#utility.yul\":19959:20021   */\n      or\n        /* \"#utility.yul\":19956:19958   */\n      iszero\n      tag_385\n      jumpi\n        /* \"#utility.yul\":20024:20042   */\n      tag_386\n      tag_387\n      jump\t// in\n    tag_386:\n        /* \"#utility.yul\":19956:19958   */\n    tag_385:\n        /* \"#utility.yul\":20064:20074   */\n      dup1\n        /* \"#utility.yul\":20060:20062   */\n      0x40\n        /* \"#utility.yul\":20053:20075   */\n      mstore\n        /* \"#utility.yul\":19838:20081   */\n      pop\n      swap2\n      swap1\n      pop\n      jump\t// out\n        /* \"#utility.yul\":20087:20419   */\n    tag_201:\n      0x00\n        /* \"#utility.yul\":20239:20257   */\n      0xffffffffffffffff\n        /* \"#utility.yul\":20231:20237   */\n      dup3\n        /* \"#utility.yul\":20228:20258   */\n      gt\n        /* \"#utility.yul\":20225:20227   */\n      iszero\n      tag_389\n      jumpi\n        /* \"#utility.yul\":20261:20279   */\n      tag_390\n      tag_387\n      jump\t// in\n    tag_390:\n        /* \"#utility.yul\":20225:20227   */\n    tag_389:\n        /* \"#utility.yul\":20346:20350   */\n      0x1f\n        /* \"#utility.yul\":20342:20351   */\n      not\n        /* \"#utility.yul\":20335:20339   */\n      0x1f\n        /* \"#utility.yul\":20327:20333   */\n      dup4\n        /* \"#utility.yul\":20323:20340   */\n      add\n        /* \"#utility.yul\":20319:20352   */\n      and\n        /* \"#utility.yul\":20311:20352   */\n      swap1\n      pop\n        /* \"#utility.yul\":20407:20411   */\n      0x20\n        /* \"#utility.yul\":20401:20405   */\n      dup2\n        /* \"#utility.yul\":20397:20412   */\n      add\n        /* \"#utility.yul\":20389:20412   */\n      swap1\n      pop\n        /* \"#utility.yul\":20154:20419   */\n      swap2\n      swap1\n      pop\n      jump\t// out\n        /* \"#utility.yul\":20425:20581   */\n    tag_259:\n      0x00\n        /* \"#utility.yul\":20539:20542   */\n      dup2\n        /* \"#utility.yul\":20531:20542   */\n      swap1\n      pop\n        /* \"#utility.yul\":20569:20573   */\n      0x20\n        /* \"#utility.yul\":20564:20567   */\n      dup3\n        /* \"#utility.yul\":20560:20574   */\n      add\n        /* \"#utility.yul\":20552:20574   */\n      swap1\n      pop\n        /* \"#utility.yul\":20521:20581   */\n      swap2\n      swap1\n      pop\n      jump\t// out\n        /* \"#utility.yul\":20587:20746   */\n    tag_273:\n      0x00\n        /* \"#utility.yul\":20704:20707   */\n      dup2\n        /* \"#utility.yul\":20696:20707   */\n      swap1\n      pop\n        /* \"#utility.yul\":20734:20738   */\n      0x20\n        /* \"#utility.yul\":20729:20732   */\n      dup3\n        /* \"#utility.yul\":20725:20739   */\n      add\n        /* \"#utility.yul\":20717:20739   */\n      swap1\n      pop\n        /* \"#utility.yul\":20686:20746   */\n      swap2\n      swap1\n      pop\n      jump\t// out\n        /* \"#utility.yul\":20752:20890   */\n    tag_255:\n      0x00\n        /* \"#utility.yul\":20877:20882   */\n      dup2\n        /* \"#utility.yul\":20871:20883   */\n      mload\n        /* \"#utility.yul\":20861:20883   */\n      swap1\n      pop\n        /* \"#utility.yul\":20850:20890   */\n      swap2\n      swap1\n      pop\n      jump\t// out\n        /* \"#utility.yul\":20896:21037   */\n    tag_269:\n      0x00\n        /* \"#utility.yul\":21024:21029   */\n      dup2\n        /* \"#utility.yul\":21018:21030   */\n      mload\n        /* \"#utility.yul\":21008:21030   */\n      swap1\n      pop\n        /* \"#utility.yul\":20997:21037   */\n      swap2\n      swap1\n      pop\n      jump\t// out\n        /* \"#utility.yul\":21043:21142   */\n    tag_290:\n      0x00\n        /* \"#utility.yul\":21129:21134   */\n      dup2\n        /* \"#utility.yul\":21123:21135   */\n      mload\n        /* \"#utility.yul\":21113:21135   */\n      swap1\n      pop\n        /* \"#utility.yul\":21102:21142   */\n      swap2\n      swap1\n      pop\n      jump\t// out\n        /* \"#utility.yul\":21148:21285   */\n    tag_265:\n      0x00\n        /* \"#utility.yul\":21274:21278   */\n      0x20\n        /* \"#utility.yul\":21269:21272   */\n      dup3\n        /* \"#utility.yul\":21265:21279   */\n      add\n        /* \"#utility.yul\":21257:21279   */\n      swap1\n      pop\n        /* \"#utility.yul\":21247:21285   */\n      swap2\n      swap1\n      pop\n      jump\t// out\n        /* \"#utility.yul\":21291:21431   */\n    tag_279:\n      0x00\n        /* \"#utility.yul\":21420:21424   */\n      0x20\n        /* \"#utility.yul\":21415:21418   */\n      dup3\n        /* \"#utility.yul\":21411:21425   */\n      add\n        /* \"#utility.yul\":21403:21425   */\n      swap1\n      pop\n        /* \"#utility.yul\":21393:21431   */\n      swap2\n      swap1\n      pop\n      jump\t// out\n        /* \"#utility.yul\":21437:21645   */\n    tag_257:\n      0x00\n        /* \"#utility.yul\":21594:21600   */\n      dup3\n        /* \"#utility.yul\":21589:21592   */\n      dup3\n        /* \"#utility.yul\":21582:21601   */\n      mstore\n        /* \"#utility.yul\":21634:21638   */\n      0x20\n        /* \"#utility.yul\":21629:21632   */\n      dup3\n        /* \"#utility.yul\":21625:21639   */\n      add\n        /* \"#utility.yul\":21610:21639   */\n      swap1\n      pop\n        /* \"#utility.yul\":21572:21645   */\n      swap3\n      swap2\n      pop\n      pop\n      jump\t// out\n        /* \"#utility.yul\":21651:21862   */\n    tag_271:\n      0x00\n        /* \"#utility.yul\":21811:21817   */\n      dup3\n        /* \"#utility.yul\":21806:21809   */\n      dup3\n        /* \"#utility.yul\":21799:21818   */\n      mstore\n        /* \"#utility.yul\":21851:21855   */\n      0x20\n        /* \"#utility.yul\":21846:21849   */\n      dup3\n        /* \"#utility.yul\":21842:21856   */\n      add\n        /* \"#utility.yul\":21827:21856   */\n      swap1\n      pop\n        /* \"#utility.yul\":21789:21862   */\n      swap3\n      swap2\n      pop\n      pop\n      jump\t// out\n        /* \"#utility.yul\":21868:22027   */\n    tag_292:\n      0x00\n        /* \"#utility.yul\":21976:21982   */\n      dup3\n        /* \"#utility.yul\":21971:21974   */\n      dup3\n        /* \"#utility.yul\":21964:21983   */\n      mstore\n        /* \"#utility.yul\":22016:22020   */\n      0x20\n        /* \"#utility.yul\":22011:22014   */\n      dup3\n        /* \"#utility.yul\":22007:22021   */\n      add\n        /* \"#utility.yul\":21992:22021   */\n      swap1\n      pop\n        /* \"#utility.yul\":21954:22027   */\n      swap3\n      swap2\n      pop\n      pop\n      jump\t// out\n        /* \"#utility.yul\":22033:22202   */\n    tag_301:\n      0x00\n        /* \"#utility.yul\":22151:22157   */\n      dup3\n        /* \"#utility.yul\":22146:22149   */\n      dup3\n        /* \"#utility.yul\":22139:22158   */\n      mstore\n        /* \"#utility.yul\":22191:22195   */\n      0x20\n        /* \"#utility.yul\":22186:22189   */\n      dup3\n        /* \"#utility.yul\":22182:22196   */\n      add\n        /* \"#utility.yul\":22167:22196   */\n      swap1\n      pop\n        /* \"#utility.yul\":22129:22202   */\n      swap3\n      swap2\n      pop\n      pop\n      jump\t// out\n        /* \"#utility.yul\":22208:22513   */\n    tag_70:\n      0x00\n        /* \"#utility.yul\":22267:22287   */\n      tag_403\n        /* \"#utility.yul\":22285:22286   */\n      dup3\n        /* \"#utility.yul\":22267:22287   */\n      tag_347\n      jump\t// in\n    tag_403:\n        /* \"#utility.yul\":22262:22287   */\n      swap2\n      pop\n        /* \"#utility.yul\":22301:22321   */\n      tag_404\n        /* \"#utility.yul\":22319:22320   */\n      dup4\n        /* \"#utility.yul\":22301:22321   */\n      tag_347\n      jump\t// in\n    tag_404:\n        /* \"#utility.yul\":22296:22321   */\n      swap3\n      pop\n        /* \"#utility.yul\":22455:22456   */\n      dup3\n        /* \"#utility.yul\":22387:22453   */\n      0xffffffffffffffffffffffffffffffffffffffffffffffffffffffffffffffff\n        /* \"#utility.yul\":22383:22457   */\n      sub\n        /* \"#utility.yul\":22380:22381   */\n      dup3\n        /* \"#utility.yul\":22377:22458   */\n      gt\n        /* \"#utility.yul\":22374:22376   */\n      iszero\n      tag_405\n      jumpi\n        /* \"#utility.yul\":22461:22479   */\n      tag_406\n      tag_407\n      jump\t// in\n    tag_406:\n        /* \"#utility.yul\":22374:22376   */\n    tag_405:\n        /* \"#utility.yul\":22505:22506   */\n      dup3\n        /* \"#utility.yul\":22502:22503   */\n      dup3\n        /* \"#utility.yul\":22498:22507   */\n      add\n        /* \"#utility.yul\":22491:22507   */\n      swap1\n      pop\n        /* \"#utility.yul\":22252:22513   */\n      swap3\n      swap2\n      pop\n      pop\n      jump\t// out\n        /* \"#utility.yul\":22519:22710   */\n    tag_129:\n      0x00\n        /* \"#utility.yul\":22579:22599   */\n      tag_409\n        /* \"#utility.yul\":22597:22598   */\n      dup3\n        /* \"#utility.yul\":22579:22599   */\n      tag_347\n      jump\t// in\n    tag_409:\n        /* \"#utility.yul\":22574:22599   */\n      swap2\n      pop\n        /* \"#utility.yul\":22613:22633   */\n      tag_410\n        /* \"#utility.yul\":22631:22632   */\n      dup4\n        /* \"#utility.yul\":22613:22633   */\n      tag_347\n      jump\t// in\n    tag_410:\n        /* \"#utility.yul\":22608:22633   */\n      swap3\n      pop\n        /* \"#utility.yul\":22652:22653   */\n      dup3\n        /* \"#utility.yul\":22649:22650   */\n      dup3\n        /* \"#utility.yul\":22646:22654   */\n      lt\n        /* \"#utility.yul\":22643:22645   */\n      iszero\n      tag_411\n      jumpi\n        /* \"#utility.yul\":22657:22675   */\n      tag_412\n      tag_407\n      jump\t// in\n    tag_412:\n        /* \"#utility.yul\":22643:22645   */\n    tag_411:\n        /* \"#utility.yul\":22702:22703   */\n      dup3\n        /* \"#utility.yul\":22699:22700   */\n      dup3\n        /* \"#utility.yul\":22695:22704   */\n      sub\n        /* \"#utility.yul\":22687:22704   */\n      swap1\n      pop\n        /* \"#utility.yul\":22564:22710   */\n      swap3\n      swap2\n      pop\n      pop\n      jump\t// out\n        /* \"#utility.yul\":22716:22812   */\n    tag_248:\n      0x00\n        /* \"#utility.yul\":22782:22806   */\n      tag_414\n        /* \"#utility.yul\":22800:22805   */\n      dup3\n        /* \"#utility.yul\":22782:22806   */\n      tag_415\n      jump\t// in\n    tag_414:\n        /* \"#utility.yul\":22771:22806   */\n      swap1\n      pop\n        /* \"#utility.yul\":22761:22812   */\n      swap2\n      swap1\n      pop\n      jump\t// out\n        /* \"#utility.yul\":22818:22908   */\n    tag_283:\n      0x00\n        /* \"#utility.yul\":22895:22900   */\n      dup2\n        /* \"#utility.yul\":22888:22901   */\n      iszero\n        /* \"#utility.yul\":22881:22902   */\n      iszero\n        /* \"#utility.yul\":22870:22902   */\n      swap1\n      pop\n        /* \"#utility.yul\":22860:22908   */\n      swap2\n      swap1\n      pop\n      jump\t// out\n        /* \"#utility.yul\":22914:23040   */\n    tag_415:\n      0x00\n        /* \"#utility.yul\":22991:23033   */\n      0xffffffffffffffffffffffffffffffffffffffff\n        /* \"#utility.yul\":22984:22989   */\n      dup3\n        /* \"#utility.yul\":22980:23034   */\n      and\n        /* \"#utility.yul\":22969:23034   */\n      swap1\n      pop\n        /* \"#utility.yul\":22959:23040   */\n      swap2\n      swap1\n      pop\n      jump\t// out\n        /* \"#utility.yul\":23046:23123   */\n    tag_347:\n      0x00\n        /* \"#utility.yul\":23112:23117   */\n      dup2\n        /* \"#utility.yul\":23101:23117   */\n      swap1\n      pop\n        /* \"#utility.yul\":23091:23123   */\n      swap2\n      swap1\n      pop\n      jump\t// out\n        /* \"#utility.yul\":23129:23283   */\n    tag_205:\n        /* \"#utility.yul\":23213:23219   */\n      dup3\n        /* \"#utility.yul\":23208:23211   */\n      dup2\n        /* \"#utility.yul\":23203:23206   */\n      dup4\n        /* \"#utility.yul\":23190:23220   */\n      calldatacopy\n        /* \"#utility.yul\":23275:23276   */\n      0x00\n        /* \"#utility.yul\":23266:23272   */\n      dup4\n        /* \"#utility.yul\":23261:23264   */\n      dup4\n        /* \"#utility.yul\":23257:23273   */\n      add\n        /* \"#utility.yul\":23250:23277   */\n      mstore\n        /* \"#utility.yul\":23180:23283   */\n      pop\n      pop\n      pop\n      jump\t// out\n        /* \"#utility.yul\":23289:23596   */\n    tag_294:\n        /* \"#utility.yul\":23357:23358   */\n      0x00\n        /* \"#utility.yul\":23367:23480   */\n    tag_421:\n        /* \"#utility.yul\":23381:23387   */\n      dup4\n        /* \"#utility.yul\":23378:23379   */\n      dup2\n        /* \"#utility.yul\":23375:23388   */\n      lt\n        /* \"#utility.yul\":23367:23480   */\n      iszero\n      tag_423\n      jumpi\n        /* \"#utility.yul\":23466:23467   */\n      dup1\n        /* \"#utility.yul\":23461:23464   */\n      dup3\n        /* \"#utility.yul\":23457:23468   */\n      add\n        /* \"#utility.yul\":23451:23469   */\n      mload\n        /* \"#utility.yul\":23447:23448   */\n      dup2\n        /* \"#utility.yul\":23442:23445   */\n      dup5\n        /* \"#utility.yul\":23438:23449   */\n      add\n        /* \"#utility.yul\":23431:23470   */\n      mstore\n        /* \"#utility.yul\":23403:23405   */\n      0x20\n        /* \"#utility.yul\":23400:23401   */\n      dup2\n        /* \"#utility.yul\":23396:23406   */\n      add\n        /* \"#utility.yul\":23391:23406   */\n      swap1\n      pop\n        /* \"#utility.yul\":23367:23480   */\n      jump(tag_421)\n    tag_423:\n        /* \"#utility.yul\":23498:23504   */\n      dup4\n        /* \"#utility.yul\":23495:23496   */\n      dup2\n        /* \"#utility.yul\":23492:23505   */\n      gt\n        /* \"#utility.yul\":23489:23491   */\n      iszero\n      tag_424\n      jumpi\n        /* \"#utility.yul\":23578:23579   */\n      0x00\n        /* \"#utility.yul\":23569:23575   */\n      dup5\n        /* \"#utility.yul\":23564:23567   */\n      dup5\n        /* \"#utility.yul\":23560:23576   */\n      add\n        /* \"#utility.yul\":23553:23580   */\n      mstore\n        /* \"#utility.yul\":23489:23491   */\n    tag_424:\n        /* \"#utility.yul\":23338:23596   */\n      pop\n      pop\n      pop\n      pop\n      jump\t// out\n        /* \"#utility.yul\":23602:23922   */\n    tag_74:\n      0x00\n        /* \"#utility.yul\":23683:23684   */\n      0x02\n        /* \"#utility.yul\":23677:23681   */\n      dup3\n        /* \"#utility.yul\":23673:23685   */\n      div\n        /* \"#utility.yul\":23663:23685   */\n      swap1\n      pop\n        /* \"#utility.yul\":23730:23731   */\n      0x01\n        /* \"#utility.yul\":23724:23728   */\n      dup3\n        /* \"#utility.yul\":23720:23732   */\n      and\n        /* \"#utility.yul\":23751:23769   */\n      dup1\n        /* \"#utility.yul\":23741:23743   */\n      tag_426\n      jumpi\n        /* \"#utility.yul\":23807:23811   */\n      0x7f\n        /* \"#utility.yul\":23799:23805   */\n      dup3\n        /* \"#utility.yul\":23795:23812   */\n      and\n        /* \"#utility.yul\":23785:23812   */\n      swap2\n      pop\n        /* \"#utility.yul\":23741:23743   */\n    tag_426:\n        /* \"#utility.yul\":23869:23871   */\n      0x20\n        /* \"#utility.yul\":23861:23867   */\n      dup3\n        /* \"#utility.yul\":23858:23872   */\n      lt\n        /* \"#utility.yul\":23838:23856   */\n      dup2\n        /* \"#utility.yul\":23835:23873   */\n      eq\n        /* \"#utility.yul\":23832:23834   */\n      iszero\n      tag_427\n      jumpi\n        /* \"#utility.yul\":23888:23906   */\n      tag_428\n      tag_429\n      jump\t// in\n    tag_428:\n        /* \"#utility.yul\":23832:23834   */\n    tag_427:\n        /* \"#utility.yul\":23653:23922   */\n      pop\n      swap2\n      swap1\n      pop\n      jump\t// out\n        /* \"#utility.yul\":23928:24161   */\n    tag_170:\n      0x00\n        /* \"#utility.yul\":23990:24014   */\n      tag_431\n        /* \"#utility.yul\":24008:24013   */\n      dup3\n        /* \"#utility.yul\":23990:24014   */\n      tag_347\n      jump\t// in\n    tag_431:\n        /* \"#utility.yul\":23981:24014   */\n      swap2\n      pop\n        /* \"#utility.yul\":24036:24102   */\n      0xffffffffffffffffffffffffffffffffffffffffffffffffffffffffffffffff\n        /* \"#utility.yul\":24029:24034   */\n      dup3\n        /* \"#utility.yul\":24026:24103   */\n      eq\n        /* \"#utility.yul\":24023:24025   */\n      iszero\n      tag_432\n      jumpi\n        /* \"#utility.yul\":24106:24124   */\n      tag_433\n      tag_407\n      jump\t// in\n    tag_433:\n        /* \"#utility.yul\":24023:24025   */\n    tag_432:\n        /* \"#utility.yul\":24153:24154   */\n      0x01\n        /* \"#utility.yul\":24146:24151   */\n      dup3\n        /* \"#utility.yul\":24142:24155   */\n      add\n        /* \"#utility.yul\":24135:24155   */\n      swap1\n      pop\n        /* \"#utility.yul\":23971:24161   */\n      swap2\n      swap1\n      pop\n      jump\t// out\n        /* \"#utility.yul\":24167:24347   */\n    tag_407:\n        /* \"#utility.yul\":24215:24292   */\n      0x4e487b7100000000000000000000000000000000000000000000000000000000\n        /* \"#utility.yul\":24212:24213   */\n      0x00\n        /* \"#utility.yul\":24205:24293   */\n      mstore\n        /* \"#utility.yul\":24312:24316   */\n      0x11\n        /* \"#utility.yul\":24309:24310   */\n      0x04\n        /* \"#utility.yul\":24302:24317   */\n      mstore\n        /* \"#utility.yul\":24336:24340   */\n      0x24\n        /* \"#utility.yul\":24333:24334   */\n      0x00\n        /* \"#utility.yul\":24326:24341   */\n      revert\n        /* \"#utility.yul\":24353:24533   */\n    tag_429:\n        /* \"#utility.yul\":24401:24478   */\n      0x4e487b7100000000000000000000000000000000000000000000000000000000\n        /* \"#utility.yul\":24398:24399   */\n      0x00\n        /* \"#utility.yul\":24391:24479   */\n      mstore\n        /* \"#utility.yul\":24498:24502   */\n      0x22\n        /* \"#utility.yul\":24495:24496   */\n      0x04\n        /* \"#utility.yul\":24488:24503   */\n      mstore\n        /* \"#utility.yul\":24522:24526   */\n      0x24\n        /* \"#utility.yul\":24519:24520   */\n      0x00\n        /* \"#utility.yul\":24512:24527   */\n      revert\n        /* \"#utility.yul\":24539:24719   */\n    tag_387:\n        /* \"#utility.yul\":24587:24664   */\n      0x4e487b7100000000000000000000000000000000000000000000000000000000\n        /* \"#utility.yul\":24584:24585   */\n      0x00\n        /* \"#utility.yul\":24577:24665   */\n      mstore\n        /* \"#utility.yul\":24684:24688   */\n      0x41\n        /* \"#utility.yul\":24681:24682   */\n      0x04\n        /* \"#utility.yul\":24674:24689   */\n      mstore\n        /* \"#utility.yul\":24708:24712   */\n      0x24\n        /* \"#utility.yul\":24705:24706   */\n      0x00\n        /* \"#utility.yul\":24698:24713   */\n      revert\n        /* \"#utility.yul\":24725:24827   */\n    tag_296:\n      0x00\n        /* \"#utility.yul\":24817:24819   */\n      0x1f\n        /* \"#utility.yul\":24813:24820   */\n      not\n        /* \"#utility.yul\":24808:24810   */\n      0x1f\n        /* \"#utility.yul\":24801:24806   */\n      dup4\n        /* \"#utility.yul\":24797:24811   */\n      add\n        /* \"#utility.yul\":24793:24821   */\n      and\n        /* \"#utility.yul\":24783:24821   */\n      swap1\n      pop\n        /* \"#utility.yul\":24773:24827   */\n      swap2\n      swap1\n      pop\n      jump\t// out\n        /* \"#utility.yul\":24833:24949   */\n    tag_209:\n        /* \"#utility.yul\":24903:24924   */\n      tag_439\n        /* \"#utility.yul\":24918:24923   */\n      dup2\n        /* \"#utility.yul\":24903:24924   */\n      tag_283\n      jump\t// in\n    tag_439:\n        /* \"#utility.yul\":24896:24901   */\n      dup2\n        /* \"#utility.yul\":24893:24925   */\n      eq\n        /* \"#utility.yul\":24883:24885   */\n      tag_440\n      jumpi\n        /* \"#utility.yul\":24939:24940   */\n      0x00\n        /* \"#utility.yul\":24936:24937   */\n      dup1\n        /* \"#utility.yul\":24929:24941   */\n      revert\n        /* \"#utility.yul\":24883:24885   */\n    tag_440:\n        /* \"#utility.yul\":24873:24949   */\n      pop\n      jump\t// out\n        /* \"#utility.yul\":24955:25077   */\n    tag_217:\n        /* \"#utility.yul\":25028:25052   */\n      tag_442\n        /* \"#utility.yul\":25046:25051   */\n      dup2\n        /* \"#utility.yul\":25028:25052   */\n      tag_347\n      jump\t// in\n    tag_442:\n        /* \"#utility.yul\":25021:25026   */\n      dup2\n        /* \"#utility.yul\":25018:25053   */\n      eq\n        /* \"#utility.yul\":25008:25010   */\n      tag_443\n      jumpi\n        /* \"#utility.yul\":25067:25068   */\n      0x00\n        /* \"#utility.yul\":25064:25065   */\n      dup1\n        /* \"#utility.yul\":25057:25069   */\n      revert\n        /* \"#utility.yul\":25008:25010   */\n    tag_443:\n        /* \"#utility.yul\":24998:25077   */\n      pop\n      jump\t// out\n\n    auxdata: 0xa26469706673582212203b2551629d8a1c4ddf82df96929faa86c9f316abf68342618f59f1a8e110f88864736f6c63430008000033\n}\n",
				"bytecode": {
					"linkReferences": {},
					"object": "608060405234801561001057600080fd5b506122ab806100206000396000f3fe6080604052600436106100915760003560e01c80637597019311610059578063759701931461019f57806386cdf604146101c8578063af3db180146101f3578063fca604d71461021c578063fe7aacf11461024757610091565b80630b7ef89b14610096578063141961bc146100b25780632fe797f9146100f75780635598f8cc146101395780636dcbcfc214610176575b600080fd5b6100b060048036038101906100ab919061173e565b610284565b005b3480156100be57600080fd5b506100d960048036038101906100d4919061173e565b61049c565b6040516100ee99989796959493929190611e10565b60405180910390f35b34801561010357600080fd5b5061011e60048036038101906101199190611767565b610737565b60405161013096959493929190611eb9565b60405180910390f35b34801561014557600080fd5b50610160600480360381019061015b919061173e565b6107dd565b60405161016d9190611dd3565b60405180910390f35b34801561018257600080fd5b5061019d60048036038101906101989190611767565b610ae1565b005b3480156101ab57600080fd5b506101c660048036038101906101c1919061173e565b610c53565b005b3480156101d457600080fd5b506101dd610da1565b6040516101ea9190611d0f565b60405180910390f35b3480156101ff57600080fd5b5061021a60048036038101906102159190611655565b611193565b005b34801561022857600080fd5b5061023161131f565b60405161023e9190611df5565b60405180910390f35b34801561025357600080fd5b5061026e6004803603810190610269919061173e565b611325565b60405161027b9190611d31565b60405180910390f35b60008082815260200190815260200160002060060160149054906101000a900460ff166102e6576040517f08c379a00000000000000000000000000000000000000000000000000000000081526004016102dd90611db3565b60405180910390fd5b34600080838152602001908152602001600020600401600082825461030b919061201a565b92505081905550600160008281526020019081526020016000206040518060c00160405280600180600086815260200190815260200160002080549050610352919061201a565b81526020013481526020013073ffffffffffffffffffffffffffffffffffffffff1681526020013373ffffffffffffffffffffffffffffffffffffffff168152602001838152602001600115158152509080600181540180825580915050600190039060005260206000209060060201600090919091909150600082015181600001556020820151816001015560408201518160020160006101000a81548173ffffffffffffffffffffffffffffffffffffffff021916908373ffffffffffffffffffffffffffffffffffffffff16021790555060608201518160030160006101000a81548173ffffffffffffffffffffffffffffffffffffffff021916908373ffffffffffffffffffffffffffffffffffffffff1602179055506080820151816004015560a08201518160050160006101000a81548160ff021916908315150217905550505050565b60006020528060005260406000206000915090508060000154908060010180546104c59061212e565b80601f01602080910402602001604051908101604052809291908181526020018280546104f19061212e565b801561053e5780601f106105135761010080835404028352916020019161053e565b820191906000526020600020905b81548152906001019060200180831161052157829003601f168201915b5050505050908060020180546105539061212e565b80601f016020809104026020016040519081016040528092919081815260200182805461057f9061212e565b80156105cc5780601f106105a1576101008083540402835291602001916105cc565b820191906000526020600020905b8154815290600101906020018083116105af57829003601f168201915b5050505050908060030154908060040154908060050180546105ed9061212e565b80601f01602080910402602001604051908101604052809291908181526020018280546106199061212e565b80156106665780601f1061063b57610100808354040283529160200191610666565b820191906000526020600020905b81548152906001019060200180831161064957829003601f168201915b5050505050908060060160009054906101000a900473ffffffffffffffffffffffffffffffffffffffff16908060060160149054906101000a900460ff16908060070180546106b49061212e565b80601f01602080910402602001604051908101604052809291908181526020018280546106e09061212e565b801561072d5780601f106107025761010080835404028352916020019161072d565b820191906000526020600020905b81548152906001019060200180831161071057829003601f168201915b5050505050905089565b6001602052816000526040600020818154811061075357600080fd5b9060005260206000209060060201600091509150508060000154908060010154908060020160009054906101000a900473ffffffffffffffffffffffffffffffffffffffff16908060030160009054906101000a900473ffffffffffffffffffffffffffffffffffffffff16908060040154908060050160009054906101000a900460ff16905086565b6107e561147c565b600080838152602001908152602001600020604051806101200160405290816000820154815260200160018201805461081d9061212e565b80601f01602080910402602001604051908101604052809291908181526020018280546108499061212e565b80156108965780601f1061086b57610100808354040283529160200191610896565b820191906000526020600020905b81548152906001019060200180831161087957829003601f168201915b505050505081526020016002820180546108af9061212e565b80601f01602080910402602001604051908101604052809291908181526020018280546108db9061212e565b80156109285780601f106108fd57610100808354040283529160200191610928565b820191906000526020600020905b81548152906001019060200180831161090b57829003601f168201915b5050505050815260200160038201548152602001600482015481526020016005820180546109559061212e565b80601f01602080910402602001604051908101604052809291908181526020018280546109819061212e565b80156109ce5780601f106109a3576101008083540402835291602001916109ce565b820191906000526020600020905b8154815290600101906020018083116109b157829003601f168201915b505050505081526020016006820160009054906101000a900473ffffffffffffffffffffffffffffffffffffffff1673ffffffffffffffffffffffffffffffffffffffff1673ffffffffffffffffffffffffffffffffffffffff1681526020016006820160149054906101000a900460ff16151515158152602001600782018054610a589061212e565b80601f0160208091040260200160405190810160405280929190818152602001828054610a849061212e565b8015610ad15780601f10610aa657610100808354040283529160200191610ad1565b820191906000526020600020905b815481529060010190602001808311610ab457829003601f168201915b5050505050815250509050919050565b60008083815260200190815260200160002060060160009054906101000a900473ffffffffffffffffffffffffffffffffffffffff1673ffffffffffffffffffffffffffffffffffffffff163373ffffffffffffffffffffffffffffffffffffffff1614610b84576040517f08c379a0000000000000000000000000000000000000000000000000000000008152600401610b7b90611d73565b60405180910390fd5b60008083815260200190815260200160002060040154811115610bdc576040517f08c379a0000000000000000000000000000000000000000000000000000000008152600401610bd390611d53565b60405180910390fd5b3373ffffffffffffffffffffffffffffffffffffffff166108fc829081150290604051600060405180830381858888f19350505050158015610c22573d6000803e3d6000fd5b50806000808481526020019081526020016000206004016000828254610c489190612070565b925050819055505050565b60008082815260200190815260200160002060060160009054906101000a900473ffffffffffffffffffffffffffffffffffffffff1673ffffffffffffffffffffffffffffffffffffffff163373ffffffffffffffffffffffffffffffffffffffff1614610cf6576040517f08c379a0000000000000000000000000000000000000000000000000000000008152600401610ced90611d93565b60405180910390fd5b600080828152602001908152602001600020600080820160009055600182016000610d2191906114e0565b600282016000610d3191906114e0565b60038201600090556004820160009055600582016000610d5191906114e0565b6006820160006101000a81549073ffffffffffffffffffffffffffffffffffffffff02191690556006820160146101000a81549060ff0219169055600782016000610d9c91906114e0565b505050565b6060600060025467ffffffffffffffff811115610de7577f4e487b7100000000000000000000000000000000000000000000000000000000600052604160045260246000fd5b604051908082528060200260200182016040528015610e2057816020015b610e0d61147c565b815260200190600190039081610e055790505b5090506000600190505b600254811161118b576000808281526020019081526020016000206040518061012001604052908160008201548152602001600182018054610e6b9061212e565b80601f0160208091040260200160405190810160405280929190818152602001828054610e979061212e565b8015610ee45780601f10610eb957610100808354040283529160200191610ee4565b820191906000526020600020905b815481529060010190602001808311610ec757829003601f168201915b50505050508152602001600282018054610efd9061212e565b80601f0160208091040260200160405190810160405280929190818152602001828054610f299061212e565b8015610f765780601f10610f4b57610100808354040283529160200191610f76565b820191906000526020600020905b815481529060010190602001808311610f5957829003601f168201915b505050505081526020016003820154815260200160048201548152602001600582018054610fa39061212e565b80601f0160208091040260200160405190810160405280929190818152602001828054610fcf9061212e565b801561101c5780601f10610ff15761010080835404028352916020019161101c565b820191906000526020600020905b815481529060010190602001808311610fff57829003601f168201915b505050505081526020016006820160009054906101000a900473ffffffffffffffffffffffffffffffffffffffff1673ffffffffffffffffffffffffffffffffffffffff1673ffffffffffffffffffffffffffffffffffffffff1681526020016006820160149054906101000a900460ff161515151581526020016007820180546110a69061212e565b80601f01602080910402602001604051908101604052809291908181526020018280546110d29061212e565b801561111f5780601f106110f45761010080835404028352916020019161111f565b820191906000526020600020905b81548152906001019060200180831161110257829003601f168201915b505050505081525050826001836111369190612070565b8151811061116d577f4e487b7100000000000000000000000000000000000000000000000000000000600052603260045260246000fd5b6020026020010181905250808061118390612160565b915050610e2a565b508091505090565b600260008154809291906111a690612160565b91905055506040518061012001604052806002548152602001878152602001868152602001858152602001600081526020018481526020013373ffffffffffffffffffffffffffffffffffffffff1681526020018315158152602001828152506000806002548152602001908152602001600020600082015181600001556020820151816001019080519060200190611240929190611520565b50604082015181600201908051906020019061125d929190611520565b50606082015181600301556080820151816004015560a082015181600501908051906020019061128e929190611520565b5060c08201518160060160006101000a81548173ffffffffffffffffffffffffffffffffffffffff021916908373ffffffffffffffffffffffffffffffffffffffff16021790555060e08201518160060160146101000a81548160ff021916908315150217905550610100820151816007019080519060200190611313929190611520565b50905050505050505050565b60025481565b606060016000838152602001908152602001600020805480602002602001604051908101604052809291908181526020016000905b8282101561147157838290600052602060002090600602016040518060c001604052908160008201548152602001600182015481526020016002820160009054906101000a900473ffffffffffffffffffffffffffffffffffffffff1673ffffffffffffffffffffffffffffffffffffffff1673ffffffffffffffffffffffffffffffffffffffff1681526020016003820160009054906101000a900473ffffffffffffffffffffffffffffffffffffffff1673ffffffffffffffffffffffffffffffffffffffff1673ffffffffffffffffffffffffffffffffffffffff168152602001600482015481526020016005820160009054906101000a900460ff1615151515815250508152602001906001019061135a565b505050509050919050565b604051806101200160405280600081526020016060815260200160608152602001600081526020016000815260200160608152602001600073ffffffffffffffffffffffffffffffffffffffff168152602001600015158152602001606081525090565b5080546114ec9061212e565b6000825580601f106114fe575061151d565b601f01602090049060005260206000209081019061151c91906115a6565b5b50565b82805461152c9061212e565b90600052602060002090601f01602090048101928261154e5760008555611595565b82601f1061156757805160ff1916838001178555611595565b82800160010185558215611595579182015b82811115611594578251825591602001919060010190611579565b5b5090506115a291906115a6565b5090565b5b808211156115bf5760008160009055506001016115a7565b5090565b60006115d66115d184611f4b565b611f1a565b9050828152602081018484840111156115ee57600080fd5b6115f98482856120ec565b509392505050565b60008135905061161081612247565b92915050565b600082601f83011261162757600080fd5b81356116378482602086016115c3565b91505092915050565b60008135905061164f8161225e565b92915050565b60008060008060008060c0878903121561166e57600080fd5b600087013567ffffffffffffffff81111561168857600080fd5b61169489828a01611616565b965050602087013567ffffffffffffffff8111156116b157600080fd5b6116bd89828a01611616565b95505060406116ce89828a01611640565b945050606087013567ffffffffffffffff8111156116eb57600080fd5b6116f789828a01611616565b935050608061170889828a01611601565b92505060a087013567ffffffffffffffff81111561172557600080fd5b61173189828a01611616565b9150509295509295509295565b60006020828403121561175057600080fd5b600061175e84828501611640565b91505092915050565b6000806040838503121561177a57600080fd5b600061178885828601611640565b925050602061179985828601611640565b9150509250929050565b60006117af8383611ac2565b905092915050565b60006117c38383611c76565b60c08301905092915050565b6117d8816120a4565b82525050565b6117e7816120a4565b82525050565b60006117f882611f9b565b6118028185611fd6565b93508360208202850161181485611f7b565b8060005b85811015611850578484038952815161183185826117a3565b945061183c83611fbc565b925060208a01995050600181019050611818565b50829750879550505050505092915050565b600061186d82611fa6565b6118778185611fe7565b935061188283611f8b565b8060005b838110156118b357815161189a88826117b7565b97506118a583611fc9565b925050600181019050611886565b5085935050505092915050565b6118c9816120b6565b82525050565b6118d8816120b6565b82525050565b60006118e982611fb1565b6118f38185611ff8565b93506119038185602086016120fb565b61190c81612236565b840191505092915050565b600061192282611fb1565b61192c8185612009565b935061193c8185602086016120fb565b61194581612236565b840191505092915050565b600061195d602683612009565b91507f5769746864726177616c20616d6f756e7420657863656564732072616973656460008301527f2066756e647300000000000000000000000000000000000000000000000000006020830152604082019050919050565b60006119c3602f83612009565b91507f4f6e6c79207468652063726561746f722063616e20776974686472617720667260008301527f6f6d207468652063616d706169676e00000000000000000000000000000000006020830152604082019050919050565b6000611a29602883612009565b91507f4f6e6c79207468652063726561746f722063616e2064656c657465207468652060008301527f63616d706169676e0000000000000000000000000000000000000000000000006020830152604082019050919050565b6000611a8f601683612009565b91507f43616d706169676e206973206e6f7420616374697665000000000000000000006000830152602082019050919050565b600061012083016000830151611adb6000860182611cf1565b5060208301518482036020860152611af382826118de565b91505060408301518482036040860152611b0d82826118de565b9150506060830151611b226060860182611cf1565b506080830151611b356080860182611cf1565b5060a083015184820360a0860152611b4d82826118de565b91505060c0830151611b6260c08601826117cf565b5060e0830151611b7560e08601826118c0565b50610100830151848203610100860152611b8f82826118de565b9150508091505092915050565b600061012083016000830151611bb56000860182611cf1565b5060208301518482036020860152611bcd82826118de565b91505060408301518482036040860152611be782826118de565b9150506060830151611bfc6060860182611cf1565b506080830151611c0f6080860182611cf1565b5060a083015184820360a0860152611c2782826118de565b91505060c0830151611c3c60c08601826117cf565b5060e0830151611c4f60e08601826118c0565b50610100830151848203610100860152611c6982826118de565b9150508091505092915050565b60c082016000820151611c8c6000850182611cf1565b506020820151611c9f6020850182611cf1565b506040820151611cb260408501826117cf565b506060820151611cc560608501826117cf565b506080820151611cd86080850182611cf1565b5060a0820151611ceb60a08501826118c0565b50505050565b611cfa816120e2565b82525050565b611d09816120e2565b82525050565b60006020820190508181036000830152611d2981846117ed565b905092915050565b60006020820190508181036000830152611d4b8184611862565b905092915050565b60006020820190508181036000830152611d6c81611950565b9050919050565b60006020820190508181036000830152611d8c816119b6565b9050919050565b60006020820190508181036000830152611dac81611a1c565b9050919050565b60006020820190508181036000830152611dcc81611a82565b9050919050565b60006020820190508181036000830152611ded8184611b9c565b905092915050565b6000602082019050611e0a6000830184611d00565b92915050565b600061012082019050611e26600083018c611d00565b8181036020830152611e38818b611917565b90508181036040830152611e4c818a611917565b9050611e5b6060830189611d00565b611e686080830188611d00565b81810360a0830152611e7a8187611917565b9050611e8960c08301866117de565b611e9660e08301856118cf565b818103610100830152611ea98184611917565b90509a9950505050505050505050565b600060c082019050611ece6000830189611d00565b611edb6020830188611d00565b611ee860408301876117de565b611ef560608301866117de565b611f026080830185611d00565b611f0f60a08301846118cf565b979650505050505050565b6000604051905081810181811067ffffffffffffffff82111715611f4157611f40612207565b5b8060405250919050565b600067ffffffffffffffff821115611f6657611f65612207565b5b601f19601f8301169050602081019050919050565b6000819050602082019050919050565b6000819050602082019050919050565b600081519050919050565b600081519050919050565b600081519050919050565b6000602082019050919050565b6000602082019050919050565b600082825260208201905092915050565b600082825260208201905092915050565b600082825260208201905092915050565b600082825260208201905092915050565b6000612025826120e2565b9150612030836120e2565b9250827fffffffffffffffffffffffffffffffffffffffffffffffffffffffffffffffff03821115612065576120646121a9565b5b828201905092915050565b600061207b826120e2565b9150612086836120e2565b925082821015612099576120986121a9565b5b828203905092915050565b60006120af826120c2565b9050919050565b60008115159050919050565b600073ffffffffffffffffffffffffffffffffffffffff82169050919050565b6000819050919050565b82818337600083830152505050565b60005b838110156121195780820151818401526020810190506120fe565b83811115612128576000848401525b50505050565b6000600282049050600182168061214657607f821691505b6020821081141561215a576121596121d8565b5b50919050565b600061216b826120e2565b91507fffffffffffffffffffffffffffffffffffffffffffffffffffffffffffffffff82141561219e5761219d6121a9565b5b600182019050919050565b7f4e487b7100000000000000000000000000000000000000000000000000000000600052601160045260246000fd5b7f4e487b7100000000000000000000000000000000000000000000000000000000600052602260045260246000fd5b7f4e487b7100000000000000000000000000000000000000000000000000000000600052604160045260246000fd5b6000601f19601f8301169050919050565b612250816120b6565b811461225b57600080fd5b50565b612267816120e2565b811461227257600080fd5b5056fea26469706673582212203b2551629d8a1c4ddf82df96929faa86c9f316abf68342618f59f1a8e110f88864736f6c63430008000033",
					"opcodes": "PUSH1 0x80 PUSH1 0x40 MSTORE CALLVALUE DUP1 ISZERO PUSH2 0x10 JUMPI PUSH1 0x0 DUP1 REVERT JUMPDEST POP PUSH2 0x22AB DUP1 PUSH2 0x20 PUSH1 0x0 CODECOPY PUSH1 0x0 RETURN INVALID PUSH1 0x80 PUSH1 0x40 MSTORE PUSH1 0x4 CALLDATASIZE LT PUSH2 0x91 JUMPI PUSH1 0x0 CALLDATALOAD PUSH1 0xE0 SHR DUP1 PUSH4 0x75970193 GT PUSH2 0x59 JUMPI DUP1 PUSH4 0x75970193 EQ PUSH2 0x19F JUMPI DUP1 PUSH4 0x86CDF604 EQ PUSH2 0x1C8 JUMPI DUP1 PUSH4 0xAF3DB180 EQ PUSH2 0x1F3 JUMPI DUP1 PUSH4 0xFCA604D7 EQ PUSH2 0x21C JUMPI DUP1 PUSH4 0xFE7AACF1 EQ PUSH2 0x247 JUMPI PUSH2 0x91 JUMP JUMPDEST DUP1 PUSH4 0xB7EF89B EQ PUSH2 0x96 JUMPI DUP1 PUSH4 0x141961BC EQ PUSH2 0xB2 JUMPI DUP1 PUSH4 0x2FE797F9 EQ PUSH2 0xF7 JUMPI DUP1 PUSH4 0x5598F8CC EQ PUSH2 0x139 JUMPI DUP1 PUSH4 0x6DCBCFC2 EQ PUSH2 0x176 JUMPI JUMPDEST PUSH1 0x0 DUP1 REVERT JUMPDEST PUSH2 0xB0 PUSH1 0x4 DUP1 CALLDATASIZE SUB DUP2 ADD SWAP1 PUSH2 0xAB SWAP2 SWAP1 PUSH2 0x173E JUMP JUMPDEST PUSH2 0x284 JUMP JUMPDEST STOP JUMPDEST CALLVALUE DUP1 ISZERO PUSH2 0xBE JUMPI PUSH1 0x0 DUP1 REVERT JUMPDEST POP PUSH2 0xD9 PUSH1 0x4 DUP1 CALLDATASIZE SUB DUP2 ADD SWAP1 PUSH2 0xD4 SWAP2 SWAP1 PUSH2 0x173E JUMP JUMPDEST PUSH2 0x49C JUMP JUMPDEST PUSH1 0x40 MLOAD PUSH2 0xEE SWAP10 SWAP9 SWAP8 SWAP7 SWAP6 SWAP5 SWAP4 SWAP3 SWAP2 SWAP1 PUSH2 0x1E10 JUMP JUMPDEST PUSH1 0x40 MLOAD DUP1 SWAP2 SUB SWAP1 RETURN JUMPDEST CALLVALUE DUP1 ISZERO PUSH2 0x103 JUMPI PUSH1 0x0 DUP1 REVERT JUMPDEST POP PUSH2 0x11E PUSH1 0x4 DUP1 CALLDATASIZE SUB DUP2 ADD SWAP1 PUSH2 0x119 SWAP2 SWAP1 PUSH2 0x1767 JUMP JUMPDEST PUSH2 0x737 JUMP JUMPDEST PUSH1 0x40 MLOAD PUSH2 0x130 SWAP7 SWAP6 SWAP5 SWAP4 SWAP3 SWAP2 SWAP1 PUSH2 0x1EB9 JUMP JUMPDEST PUSH1 0x40 MLOAD DUP1 SWAP2 SUB SWAP1 RETURN JUMPDEST CALLVALUE DUP1 ISZERO PUSH2 0x145 JUMPI PUSH1 0x0 DUP1 REVERT JUMPDEST POP PUSH2 0x160 PUSH1 0x4 DUP1 CALLDATASIZE SUB DUP2 ADD SWAP1 PUSH2 0x15B SWAP2 SWAP1 PUSH2 0x173E JUMP JUMPDEST PUSH2 0x7DD JUMP JUMPDEST PUSH1 0x40 MLOAD PUSH2 0x16D SWAP2 SWAP1 PUSH2 0x1DD3 JUMP JUMPDEST PUSH1 0x40 MLOAD DUP1 SWAP2 SUB SWAP1 RETURN JUMPDEST CALLVALUE DUP1 ISZERO PUSH2 0x182 JUMPI PUSH1 0x0 DUP1 REVERT JUMPDEST POP PUSH2 0x19D PUSH1 0x4 DUP1 CALLDATASIZE SUB DUP2 ADD SWAP1 PUSH2 0x198 SWAP2 SWAP1 PUSH2 0x1767 JUMP JUMPDEST PUSH2 0xAE1 JUMP JUMPDEST STOP JUMPDEST CALLVALUE DUP1 ISZERO PUSH2 0x1AB JUMPI PUSH1 0x0 DUP1 REVERT JUMPDEST POP PUSH2 0x1C6 PUSH1 0x4 DUP1 CALLDATASIZE SUB DUP2 ADD SWAP1 PUSH2 0x1C1 SWAP2 SWAP1 PUSH2 0x173E JUMP JUMPDEST PUSH2 0xC53 JUMP JUMPDEST STOP JUMPDEST CALLVALUE DUP1 ISZERO PUSH2 0x1D4 JUMPI PUSH1 0x0 DUP1 REVERT JUMPDEST POP PUSH2 0x1DD PUSH2 0xDA1 JUMP JUMPDEST PUSH1 0x40 MLOAD PUSH2 0x1EA SWAP2 SWAP1 PUSH2 0x1D0F JUMP JUMPDEST PUSH1 0x40 MLOAD DUP1 SWAP2 SUB SWAP1 RETURN JUMPDEST CALLVALUE DUP1 ISZERO PUSH2 0x1FF JUMPI PUSH1 0x0 DUP1 REVERT JUMPDEST POP PUSH2 0x21A PUSH1 0x4 DUP1 CALLDATASIZE SUB DUP2 ADD SWAP1 PUSH2 0x215 SWAP2 SWAP1 PUSH2 0x1655 JUMP JUMPDEST PUSH2 0x1193 JUMP JUMPDEST STOP JUMPDEST CALLVALUE DUP1 ISZERO PUSH2 0x228 JUMPI PUSH1 0x0 DUP1 REVERT JUMPDEST POP PUSH2 0x231 PUSH2 0x131F JUMP JUMPDEST PUSH1 0x40 MLOAD PUSH2 0x23E SWAP2 SWAP1 PUSH2 0x1DF5 JUMP JUMPDEST PUSH1 0x40 MLOAD DUP1 SWAP2 SUB SWAP1 RETURN JUMPDEST CALLVALUE DUP1 ISZERO PUSH2 0x253 JUMPI PUSH1 0x0 DUP1 REVERT JUMPDEST POP PUSH2 0x26E PUSH1 0x4 DUP1 CALLDATASIZE SUB DUP2 ADD SWAP1 PUSH2 0x269 SWAP2 SWAP1 PUSH2 0x173E JUMP JUMPDEST PUSH2 0x1325 JUMP JUMPDEST PUSH1 0x40 MLOAD PUSH2 0x27B SWAP2 SWAP1 PUSH2 0x1D31 JUMP JUMPDEST PUSH1 0x40 MLOAD DUP1 SWAP2 SUB SWAP1 RETURN JUMPDEST PUSH1 0x0 DUP1 DUP3 DUP2 MSTORE PUSH1 0x20 ADD SWAP1 DUP2 MSTORE PUSH1 0x20 ADD PUSH1 0x0 KECCAK256 PUSH1 0x6 ADD PUSH1 0x14 SWAP1 SLOAD SWAP1 PUSH2 0x100 EXP SWAP1 DIV PUSH1 0xFF AND PUSH2 0x2E6 JUMPI PUSH1 0x40 MLOAD PUSH32 0x8C379A000000000000000000000000000000000000000000000000000000000 DUP2 MSTORE PUSH1 0x4 ADD PUSH2 0x2DD SWAP1 PUSH2 0x1DB3 JUMP JUMPDEST PUSH1 0x40 MLOAD DUP1 SWAP2 SUB SWAP1 REVERT JUMPDEST CALLVALUE PUSH1 0x0 DUP1 DUP4 DUP2 MSTORE PUSH1 0x20 ADD SWAP1 DUP2 MSTORE PUSH1 0x20 ADD PUSH1 0x0 KECCAK256 PUSH1 0x4 ADD PUSH1 0x0 DUP3 DUP3 SLOAD PUSH2 0x30B SWAP2 SWAP1 PUSH2 0x201A JUMP JUMPDEST SWAP3 POP POP DUP2 SWAP1 SSTORE POP PUSH1 0x1 PUSH1 0x0 DUP3 DUP2 MSTORE PUSH1 0x20 ADD SWAP1 DUP2 MSTORE PUSH1 0x20 ADD PUSH1 0x0 KECCAK256 PUSH1 0x40 MLOAD DUP1 PUSH1 0xC0 ADD PUSH1 0x40 MSTORE DUP1 PUSH1 0x1 DUP1 PUSH1 0x0 DUP7 DUP2 MSTORE PUSH1 0x20 ADD SWAP1 DUP2 MSTORE PUSH1 0x20 ADD PUSH1 0x0 KECCAK256 DUP1 SLOAD SWAP1 POP PUSH2 0x352 SWAP2 SWAP1 PUSH2 0x201A JUMP JUMPDEST DUP2 MSTORE PUSH1 0x20 ADD CALLVALUE DUP2 MSTORE PUSH1 0x20 ADD ADDRESS PUSH20 0xFFFFFFFFFFFFFFFFFFFFFFFFFFFFFFFFFFFFFFFF AND DUP2 MSTORE PUSH1 0x20 ADD CALLER PUSH20 0xFFFFFFFFFFFFFFFFFFFFFFFFFFFFFFFFFFFFFFFF AND DUP2 MSTORE PUSH1 0x20 ADD DUP4 DUP2 MSTORE PUSH1 0x20 ADD PUSH1 0x1 ISZERO ISZERO DUP2 MSTORE POP SWAP1 DUP1 PUSH1 0x1 DUP2 SLOAD ADD DUP1 DUP3 SSTORE DUP1 SWAP2 POP POP PUSH1 0x1 SWAP1 SUB SWAP1 PUSH1 0x0 MSTORE PUSH1 0x20 PUSH1 0x0 KECCAK256 SWAP1 PUSH1 0x6 MUL ADD PUSH1 0x0 SWAP1 SWAP2 SWAP1 SWAP2 SWAP1 SWAP2 POP PUSH1 0x0 DUP3 ADD MLOAD DUP2 PUSH1 0x0 ADD SSTORE PUSH1 0x20 DUP3 ADD MLOAD DUP2 PUSH1 0x1 ADD SSTORE PUSH1 0x40 DUP3 ADD MLOAD DUP2 PUSH1 0x2 ADD PUSH1 0x0 PUSH2 0x100 EXP DUP2 SLOAD DUP2 PUSH20 0xFFFFFFFFFFFFFFFFFFFFFFFFFFFFFFFFFFFFFFFF MUL NOT AND SWAP1 DUP4 PUSH20 0xFFFFFFFFFFFFFFFFFFFFFFFFFFFFFFFFFFFFFFFF AND MUL OR SWAP1 SSTORE POP PUSH1 0x60 DUP3 ADD MLOAD DUP2 PUSH1 0x3 ADD PUSH1 0x0 PUSH2 0x100 EXP DUP2 SLOAD DUP2 PUSH20 0xFFFFFFFFFFFFFFFFFFFFFFFFFFFFFFFFFFFFFFFF MUL NOT AND SWAP1 DUP4 PUSH20 0xFFFFFFFFFFFFFFFFFFFFFFFFFFFFFFFFFFFFFFFF AND MUL OR SWAP1 SSTORE POP PUSH1 0x80 DUP3 ADD MLOAD DUP2 PUSH1 0x4 ADD SSTORE PUSH1 0xA0 DUP3 ADD MLOAD DUP2 PUSH1 0x5 ADD PUSH1 0x0 PUSH2 0x100 EXP DUP2 SLOAD DUP2 PUSH1 0xFF MUL NOT AND SWAP1 DUP4 ISZERO ISZERO MUL OR SWAP1 SSTORE POP POP POP POP JUMP JUMPDEST PUSH1 0x0 PUSH1 0x20 MSTORE DUP1 PUSH1 0x0 MSTORE PUSH1 0x40 PUSH1 0x0 KECCAK256 PUSH1 0x0 SWAP2 POP SWAP1 POP DUP1 PUSH1 0x0 ADD SLOAD SWAP1 DUP1 PUSH1 0x1 ADD DUP1 SLOAD PUSH2 0x4C5 SWAP1 PUSH2 0x212E JUMP JUMPDEST DUP1 PUSH1 0x1F ADD PUSH1 0x20 DUP1 SWAP2 DIV MUL PUSH1 0x20 ADD PUSH1 0x40 MLOAD SWAP1 DUP2 ADD PUSH1 0x40 MSTORE DUP1 SWAP3 SWAP2 SWAP1 DUP2 DUP2 MSTORE PUSH1 0x20 ADD DUP3 DUP1 SLOAD PUSH2 0x4F1 SWAP1 PUSH2 0x212E JUMP JUMPDEST DUP1 ISZERO PUSH2 0x53E JUMPI DUP1 PUSH1 0x1F LT PUSH2 0x513 JUMPI PUSH2 0x100 DUP1 DUP4 SLOAD DIV MUL DUP4 MSTORE SWAP2 PUSH1 0x20 ADD SWAP2 PUSH2 0x53E JUMP JUMPDEST DUP3 ADD SWAP2 SWAP1 PUSH1 0x0 MSTORE PUSH1 0x20 PUSH1 0x0 KECCAK256 SWAP1 JUMPDEST DUP2 SLOAD DUP2 MSTORE SWAP1 PUSH1 0x1 ADD SWAP1 PUSH1 0x20 ADD DUP1 DUP4 GT PUSH2 0x521 JUMPI DUP3 SWAP1 SUB PUSH1 0x1F AND DUP3 ADD SWAP2 JUMPDEST POP POP POP POP POP SWAP1 DUP1 PUSH1 0x2 ADD DUP1 SLOAD PUSH2 0x553 SWAP1 PUSH2 0x212E JUMP JUMPDEST DUP1 PUSH1 0x1F ADD PUSH1 0x20 DUP1 SWAP2 DIV MUL PUSH1 0x20 ADD PUSH1 0x40 MLOAD SWAP1 DUP2 ADD PUSH1 0x40 MSTORE DUP1 SWAP3 SWAP2 SWAP1 DUP2 DUP2 MSTORE PUSH1 0x20 ADD DUP3 DUP1 SLOAD PUSH2 0x57F SWAP1 PUSH2 0x212E JUMP JUMPDEST DUP1 ISZERO PUSH2 0x5CC JUMPI DUP1 PUSH1 0x1F LT PUSH2 0x5A1 JUMPI PUSH2 0x100 DUP1 DUP4 SLOAD DIV MUL DUP4 MSTORE SWAP2 PUSH1 0x20 ADD SWAP2 PUSH2 0x5CC JUMP JUMPDEST DUP3 ADD SWAP2 SWAP1 PUSH1 0x0 MSTORE PUSH1 0x20 PUSH1 0x0 KECCAK256 SWAP1 JUMPDEST DUP2 SLOAD DUP2 MSTORE SWAP1 PUSH1 0x1 ADD SWAP1 PUSH1 0x20 ADD DUP1 DUP4 GT PUSH2 0x5AF JUMPI DUP3 SWAP1 SUB PUSH1 0x1F AND DUP3 ADD SWAP2 JUMPDEST POP POP POP POP POP SWAP1 DUP1 PUSH1 0x3 ADD SLOAD SWAP1 DUP1 PUSH1 0x4 ADD SLOAD SWAP1 DUP1 PUSH1 0x5 ADD DUP1 SLOAD PUSH2 0x5ED SWAP1 PUSH2 0x212E JUMP JUMPDEST DUP1 PUSH1 0x1F ADD PUSH1 0x20 DUP1 SWAP2 DIV MUL PUSH1 0x20 ADD PUSH1 0x40 MLOAD SWAP1 DUP2 ADD PUSH1 0x40 MSTORE DUP1 SWAP3 SWAP2 SWAP1 DUP2 DUP2 MSTORE PUSH1 0x20 ADD DUP3 DUP1 SLOAD PUSH2 0x619 SWAP1 PUSH2 0x212E JUMP JUMPDEST DUP1 ISZERO PUSH2 0x666 JUMPI DUP1 PUSH1 0x1F LT PUSH2 0x63B JUMPI PUSH2 0x100 DUP1 DUP4 SLOAD DIV MUL DUP4 MSTORE SWAP2 PUSH1 0x20 ADD SWAP2 PUSH2 0x666 JUMP JUMPDEST DUP3 ADD SWAP2 SWAP1 PUSH1 0x0 MSTORE PUSH1 0x20 PUSH1 0x0 KECCAK256 SWAP1 JUMPDEST DUP2 SLOAD DUP2 MSTORE SWAP1 PUSH1 0x1 ADD SWAP1 PUSH1 0x20 ADD DUP1 DUP4 GT PUSH2 0x649 JUMPI DUP3 SWAP1 SUB PUSH1 0x1F AND DUP3 ADD SWAP2 JUMPDEST POP POP POP POP POP SWAP1 DUP1 PUSH1 0x6 ADD PUSH1 0x0 SWAP1 SLOAD SWAP1 PUSH2 0x100 EXP SWAP1 DIV PUSH20 0xFFFFFFFFFFFFFFFFFFFFFFFFFFFFFFFFFFFFFFFF AND SWAP1 DUP1 PUSH1 0x6 ADD PUSH1 0x14 SWAP1 SLOAD SWAP1 PUSH2 0x100 EXP SWAP1 DIV PUSH1 0xFF AND SWAP1 DUP1 PUSH1 0x7 ADD DUP1 SLOAD PUSH2 0x6B4 SWAP1 PUSH2 0x212E JUMP JUMPDEST DUP1 PUSH1 0x1F ADD PUSH1 0x20 DUP1 SWAP2 DIV MUL PUSH1 0x20 ADD PUSH1 0x40 MLOAD SWAP1 DUP2 ADD PUSH1 0x40 MSTORE DUP1 SWAP3 SWAP2 SWAP1 DUP2 DUP2 MSTORE PUSH1 0x20 ADD DUP3 DUP1 SLOAD PUSH2 0x6E0 SWAP1 PUSH2 0x212E JUMP JUMPDEST DUP1 ISZERO PUSH2 0x72D JUMPI DUP1 PUSH1 0x1F LT PUSH2 0x702 JUMPI PUSH2 0x100 DUP1 DUP4 SLOAD DIV MUL DUP4 MSTORE SWAP2 PUSH1 0x20 ADD SWAP2 PUSH2 0x72D JUMP JUMPDEST DUP3 ADD SWAP2 SWAP1 PUSH1 0x0 MSTORE PUSH1 0x20 PUSH1 0x0 KECCAK256 SWAP1 JUMPDEST DUP2 SLOAD DUP2 MSTORE SWAP1 PUSH1 0x1 ADD SWAP1 PUSH1 0x20 ADD DUP1 DUP4 GT PUSH2 0x710 JUMPI DUP3 SWAP1 SUB PUSH1 0x1F AND DUP3 ADD SWAP2 JUMPDEST POP POP POP POP POP SWAP1 POP DUP10 JUMP JUMPDEST PUSH1 0x1 PUSH1 0x20 MSTORE DUP2 PUSH1 0x0 MSTORE PUSH1 0x40 PUSH1 0x0 KECCAK256 DUP2 DUP2 SLOAD DUP2 LT PUSH2 0x753 JUMPI PUSH1 0x0 DUP1 REVERT JUMPDEST SWAP1 PUSH1 0x0 MSTORE PUSH1 0x20 PUSH1 0x0 KECCAK256 SWAP1 PUSH1 0x6 MUL ADD PUSH1 0x0 SWAP2 POP SWAP2 POP POP DUP1 PUSH1 0x0 ADD SLOAD SWAP1 DUP1 PUSH1 0x1 ADD SLOAD SWAP1 DUP1 PUSH1 0x2 ADD PUSH1 0x0 SWAP1 SLOAD SWAP1 PUSH2 0x100 EXP SWAP1 DIV PUSH20 0xFFFFFFFFFFFFFFFFFFFFFFFFFFFFFFFFFFFFFFFF AND SWAP1 DUP1 PUSH1 0x3 ADD PUSH1 0x0 SWAP1 SLOAD SWAP1 PUSH2 0x100 EXP SWAP1 DIV PUSH20 0xFFFFFFFFFFFFFFFFFFFFFFFFFFFFFFFFFFFFFFFF AND SWAP1 DUP1 PUSH1 0x4 ADD SLOAD SWAP1 DUP1 PUSH1 0x5 ADD PUSH1 0x0 SWAP1 SLOAD SWAP1 PUSH2 0x100 EXP SWAP1 DIV PUSH1 0xFF AND SWAP1 POP DUP7 JUMP JUMPDEST PUSH2 0x7E5 PUSH2 0x147C JUMP JUMPDEST PUSH1 0x0 DUP1 DUP4 DUP2 MSTORE PUSH1 0x20 ADD SWAP1 DUP2 MSTORE PUSH1 0x20 ADD PUSH1 0x0 KECCAK256 PUSH1 0x40 MLOAD DUP1 PUSH2 0x120 ADD PUSH1 0x40 MSTORE SWAP1 DUP2 PUSH1 0x0 DUP3 ADD SLOAD DUP2 MSTORE PUSH1 0x20 ADD PUSH1 0x1 DUP3 ADD DUP1 SLOAD PUSH2 0x81D SWAP1 PUSH2 0x212E JUMP JUMPDEST DUP1 PUSH1 0x1F ADD PUSH1 0x20 DUP1 SWAP2 DIV MUL PUSH1 0x20 ADD PUSH1 0x40 MLOAD SWAP1 DUP2 ADD PUSH1 0x40 MSTORE DUP1 SWAP3 SWAP2 SWAP1 DUP2 DUP2 MSTORE PUSH1 0x20 ADD DUP3 DUP1 SLOAD PUSH2 0x849 SWAP1 PUSH2 0x212E JUMP JUMPDEST DUP1 ISZERO PUSH2 0x896 JUMPI DUP1 PUSH1 0x1F LT PUSH2 0x86B JUMPI PUSH2 0x100 DUP1 DUP4 SLOAD DIV MUL DUP4 MSTORE SWAP2 PUSH1 0x20 ADD SWAP2 PUSH2 0x896 JUMP JUMPDEST DUP3 ADD SWAP2 SWAP1 PUSH1 0x0 MSTORE PUSH1 0x20 PUSH1 0x0 KECCAK256 SWAP1 JUMPDEST DUP2 SLOAD DUP2 MSTORE SWAP1 PUSH1 0x1 ADD SWAP1 PUSH1 0x20 ADD DUP1 DUP4 GT PUSH2 0x879 JUMPI DUP3 SWAP1 SUB PUSH1 0x1F AND DUP3 ADD SWAP2 JUMPDEST POP POP POP POP POP DUP2 MSTORE PUSH1 0x20 ADD PUSH1 0x2 DUP3 ADD DUP1 SLOAD PUSH2 0x8AF SWAP1 PUSH2 0x212E JUMP JUMPDEST DUP1 PUSH1 0x1F ADD PUSH1 0x20 DUP1 SWAP2 DIV MUL PUSH1 0x20 ADD PUSH1 0x40 MLOAD SWAP1 DUP2 ADD PUSH1 0x40 MSTORE DUP1 SWAP3 SWAP2 SWAP1 DUP2 DUP2 MSTORE PUSH1 0x20 ADD DUP3 DUP1 SLOAD PUSH2 0x8DB SWAP1 PUSH2 0x212E JUMP JUMPDEST DUP1 ISZERO PUSH2 0x928 JUMPI DUP1 PUSH1 0x1F LT PUSH2 0x8FD JUMPI PUSH2 0x100 DUP1 DUP4 SLOAD DIV MUL DUP4 MSTORE SWAP2 PUSH1 0x20 ADD SWAP2 PUSH2 0x928 JUMP JUMPDEST DUP3 ADD SWAP2 SWAP1 PUSH1 0x0 MSTORE PUSH1 0x20 PUSH1 0x0 KECCAK256 SWAP1 JUMPDEST DUP2 SLOAD DUP2 MSTORE SWAP1 PUSH1 0x1 ADD SWAP1 PUSH1 0x20 ADD DUP1 DUP4 GT PUSH2 0x90B JUMPI DUP3 SWAP1 SUB PUSH1 0x1F AND DUP3 ADD SWAP2 JUMPDEST POP POP POP POP POP DUP2 MSTORE PUSH1 0x20 ADD PUSH1 0x3 DUP3 ADD SLOAD DUP2 MSTORE PUSH1 0x20 ADD PUSH1 0x4 DUP3 ADD SLOAD DUP2 MSTORE PUSH1 0x20 ADD PUSH1 0x5 DUP3 ADD DUP1 SLOAD PUSH2 0x955 SWAP1 PUSH2 0x212E JUMP JUMPDEST DUP1 PUSH1 0x1F ADD PUSH1 0x20 DUP1 SWAP2 DIV MUL PUSH1 0x20 ADD PUSH1 0x40 MLOAD SWAP1 DUP2 ADD PUSH1 0x40 MSTORE DUP1 SWAP3 SWAP2 SWAP1 DUP2 DUP2 MSTORE PUSH1 0x20 ADD DUP3 DUP1 SLOAD PUSH2 0x981 SWAP1 PUSH2 0x212E JUMP JUMPDEST DUP1 ISZERO PUSH2 0x9CE JUMPI DUP1 PUSH1 0x1F LT PUSH2 0x9A3 JUMPI PUSH2 0x100 DUP1 DUP4 SLOAD DIV MUL DUP4 MSTORE SWAP2 PUSH1 0x20 ADD SWAP2 PUSH2 0x9CE JUMP JUMPDEST DUP3 ADD SWAP2 SWAP1 PUSH1 0x0 MSTORE PUSH1 0x20 PUSH1 0x0 KECCAK256 SWAP1 JUMPDEST DUP2 SLOAD DUP2 MSTORE SWAP1 PUSH1 0x1 ADD SWAP1 PUSH1 0x20 ADD DUP1 DUP4 GT PUSH2 0x9B1 JUMPI DUP3 SWAP1 SUB PUSH1 0x1F AND DUP3 ADD SWAP2 JUMPDEST POP POP POP POP POP DUP2 MSTORE PUSH1 0x20 ADD PUSH1 0x6 DUP3 ADD PUSH1 0x0 SWAP1 SLOAD SWAP1 PUSH2 0x100 EXP SWAP1 DIV PUSH20 0xFFFFFFFFFFFFFFFFFFFFFFFFFFFFFFFFFFFFFFFF AND PUSH20 0xFFFFFFFFFFFFFFFFFFFFFFFFFFFFFFFFFFFFFFFF AND PUSH20 0xFFFFFFFFFFFFFFFFFFFFFFFFFFFFFFFFFFFFFFFF AND DUP2 MSTORE PUSH1 0x20 ADD PUSH1 0x6 DUP3 ADD PUSH1 0x14 SWAP1 SLOAD SWAP1 PUSH2 0x100 EXP SWAP1 DIV PUSH1 0xFF AND ISZERO ISZERO ISZERO ISZERO DUP2 MSTORE PUSH1 0x20 ADD PUSH1 0x7 DUP3 ADD DUP1 SLOAD PUSH2 0xA58 SWAP1 PUSH2 0x212E JUMP JUMPDEST DUP1 PUSH1 0x1F ADD PUSH1 0x20 DUP1 SWAP2 DIV MUL PUSH1 0x20 ADD PUSH1 0x40 MLOAD SWAP1 DUP2 ADD PUSH1 0x40 MSTORE DUP1 SWAP3 SWAP2 SWAP1 DUP2 DUP2 MSTORE PUSH1 0x20 ADD DUP3 DUP1 SLOAD PUSH2 0xA84 SWAP1 PUSH2 0x212E JUMP JUMPDEST DUP1 ISZERO PUSH2 0xAD1 JUMPI DUP1 PUSH1 0x1F LT PUSH2 0xAA6 JUMPI PUSH2 0x100 DUP1 DUP4 SLOAD DIV MUL DUP4 MSTORE SWAP2 PUSH1 0x20 ADD SWAP2 PUSH2 0xAD1 JUMP JUMPDEST DUP3 ADD SWAP2 SWAP1 PUSH1 0x0 MSTORE PUSH1 0x20 PUSH1 0x0 KECCAK256 SWAP1 JUMPDEST DUP2 SLOAD DUP2 MSTORE SWAP1 PUSH1 0x1 ADD SWAP1 PUSH1 0x20 ADD DUP1 DUP4 GT PUSH2 0xAB4 JUMPI DUP3 SWAP1 SUB PUSH1 0x1F AND DUP3 ADD SWAP2 JUMPDEST POP POP POP POP POP DUP2 MSTORE POP POP SWAP1 POP SWAP2 SWAP1 POP JUMP JUMPDEST PUSH1 0x0 DUP1 DUP4 DUP2 MSTORE PUSH1 0x20 ADD SWAP1 DUP2 MSTORE PUSH1 0x20 ADD PUSH1 0x0 KECCAK256 PUSH1 0x6 ADD PUSH1 0x0 SWAP1 SLOAD SWAP1 PUSH2 0x100 EXP SWAP1 DIV PUSH20 0xFFFFFFFFFFFFFFFFFFFFFFFFFFFFFFFFFFFFFFFF AND PUSH20 0xFFFFFFFFFFFFFFFFFFFFFFFFFFFFFFFFFFFFFFFF AND CALLER PUSH20 0xFFFFFFFFFFFFFFFFFFFFFFFFFFFFFFFFFFFFFFFF AND EQ PUSH2 0xB84 JUMPI PUSH1 0x40 MLOAD PUSH32 0x8C379A000000000000000000000000000000000000000000000000000000000 DUP2 MSTORE PUSH1 0x4 ADD PUSH2 0xB7B SWAP1 PUSH2 0x1D73 JUMP JUMPDEST PUSH1 0x40 MLOAD DUP1 SWAP2 SUB SWAP1 REVERT JUMPDEST PUSH1 0x0 DUP1 DUP4 DUP2 MSTORE PUSH1 0x20 ADD SWAP1 DUP2 MSTORE PUSH1 0x20 ADD PUSH1 0x0 KECCAK256 PUSH1 0x4 ADD SLOAD DUP2 GT ISZERO PUSH2 0xBDC JUMPI PUSH1 0x40 MLOAD PUSH32 0x8C379A000000000000000000000000000000000000000000000000000000000 DUP2 MSTORE PUSH1 0x4 ADD PUSH2 0xBD3 SWAP1 PUSH2 0x1D53 JUMP JUMPDEST PUSH1 0x40 MLOAD DUP1 SWAP2 SUB SWAP1 REVERT JUMPDEST CALLER PUSH20 0xFFFFFFFFFFFFFFFFFFFFFFFFFFFFFFFFFFFFFFFF AND PUSH2 0x8FC DUP3 SWAP1 DUP2 ISZERO MUL SWAP1 PUSH1 0x40 MLOAD PUSH1 0x0 PUSH1 0x40 MLOAD DUP1 DUP4 SUB DUP2 DUP6 DUP9 DUP9 CALL SWAP4 POP POP POP POP ISZERO DUP1 ISZERO PUSH2 0xC22 JUMPI RETURNDATASIZE PUSH1 0x0 DUP1 RETURNDATACOPY RETURNDATASIZE PUSH1 0x0 REVERT JUMPDEST POP DUP1 PUSH1 0x0 DUP1 DUP5 DUP2 MSTORE PUSH1 0x20 ADD SWAP1 DUP2 MSTORE PUSH1 0x20 ADD PUSH1 0x0 KECCAK256 PUSH1 0x4 ADD PUSH1 0x0 DUP3 DUP3 SLOAD PUSH2 0xC48 SWAP2 SWAP1 PUSH2 0x2070 JUMP JUMPDEST SWAP3 POP POP DUP2 SWAP1 SSTORE POP POP POP JUMP JUMPDEST PUSH1 0x0 DUP1 DUP3 DUP2 MSTORE PUSH1 0x20 ADD SWAP1 DUP2 MSTORE PUSH1 0x20 ADD PUSH1 0x0 KECCAK256 PUSH1 0x6 ADD PUSH1 0x0 SWAP1 SLOAD SWAP1 PUSH2 0x100 EXP SWAP1 DIV PUSH20 0xFFFFFFFFFFFFFFFFFFFFFFFFFFFFFFFFFFFFFFFF AND PUSH20 0xFFFFFFFFFFFFFFFFFFFFFFFFFFFFFFFFFFFFFFFF AND CALLER PUSH20 0xFFFFFFFFFFFFFFFFFFFFFFFFFFFFFFFFFFFFFFFF AND EQ PUSH2 0xCF6 JUMPI PUSH1 0x40 MLOAD PUSH32 0x8C379A000000000000000000000000000000000000000000000000000000000 DUP2 MSTORE PUSH1 0x4 ADD PUSH2 0xCED SWAP1 PUSH2 0x1D93 JUMP JUMPDEST PUSH1 0x40 MLOAD DUP1 SWAP2 SUB SWAP1 REVERT JUMPDEST PUSH1 0x0 DUP1 DUP3 DUP2 MSTORE PUSH1 0x20 ADD SWAP1 DUP2 MSTORE PUSH1 0x20 ADD PUSH1 0x0 KECCAK256 PUSH1 0x0 DUP1 DUP3 ADD PUSH1 0x0 SWAP1 SSTORE PUSH1 0x1 DUP3 ADD PUSH1 0x0 PUSH2 0xD21 SWAP2 SWAP1 PUSH2 0x14E0 JUMP JUMPDEST PUSH1 0x2 DUP3 ADD PUSH1 0x0 PUSH2 0xD31 SWAP2 SWAP1 PUSH2 0x14E0 JUMP JUMPDEST PUSH1 0x3 DUP3 ADD PUSH1 0x0 SWAP1 SSTORE PUSH1 0x4 DUP3 ADD PUSH1 0x0 SWAP1 SSTORE PUSH1 0x5 DUP3 ADD PUSH1 0x0 PUSH2 0xD51 SWAP2 SWAP1 PUSH2 0x14E0 JUMP JUMPDEST PUSH1 0x6 DUP3 ADD PUSH1 0x0 PUSH2 0x100 EXP DUP2 SLOAD SWAP1 PUSH20 0xFFFFFFFFFFFFFFFFFFFFFFFFFFFFFFFFFFFFFFFF MUL NOT AND SWAP1 SSTORE PUSH1 0x6 DUP3 ADD PUSH1 0x14 PUSH2 0x100 EXP DUP2 SLOAD SWAP1 PUSH1 0xFF MUL NOT AND SWAP1 SSTORE PUSH1 0x7 DUP3 ADD PUSH1 0x0 PUSH2 0xD9C SWAP2 SWAP1 PUSH2 0x14E0 JUMP JUMPDEST POP POP POP JUMP JUMPDEST PUSH1 0x60 PUSH1 0x0 PUSH1 0x2 SLOAD PUSH8 0xFFFFFFFFFFFFFFFF DUP2 GT ISZERO PUSH2 0xDE7 JUMPI PUSH32 0x4E487B7100000000000000000000000000000000000000000000000000000000 PUSH1 0x0 MSTORE PUSH1 0x41 PUSH1 0x4 MSTORE PUSH1 0x24 PUSH1 0x0 REVERT JUMPDEST PUSH1 0x40 MLOAD SWAP1 DUP1 DUP3 MSTORE DUP1 PUSH1 0x20 MUL PUSH1 0x20 ADD DUP3 ADD PUSH1 0x40 MSTORE DUP1 ISZERO PUSH2 0xE20 JUMPI DUP2 PUSH1 0x20 ADD JUMPDEST PUSH2 0xE0D PUSH2 0x147C JUMP JUMPDEST DUP2 MSTORE PUSH1 0x20 ADD SWAP1 PUSH1 0x1 SWAP1 SUB SWAP1 DUP2 PUSH2 0xE05 JUMPI SWAP1 POP JUMPDEST POP SWAP1 POP PUSH1 0x0 PUSH1 0x1 SWAP1 POP JUMPDEST PUSH1 0x2 SLOAD DUP2 GT PUSH2 0x118B JUMPI PUSH1 0x0 DUP1 DUP3 DUP2 MSTORE PUSH1 0x20 ADD SWAP1 DUP2 MSTORE PUSH1 0x20 ADD PUSH1 0x0 KECCAK256 PUSH1 0x40 MLOAD DUP1 PUSH2 0x120 ADD PUSH1 0x40 MSTORE SWAP1 DUP2 PUSH1 0x0 DUP3 ADD SLOAD DUP2 MSTORE PUSH1 0x20 ADD PUSH1 0x1 DUP3 ADD DUP1 SLOAD PUSH2 0xE6B SWAP1 PUSH2 0x212E JUMP JUMPDEST DUP1 PUSH1 0x1F ADD PUSH1 0x20 DUP1 SWAP2 DIV MUL PUSH1 0x20 ADD PUSH1 0x40 MLOAD SWAP1 DUP2 ADD PUSH1 0x40 MSTORE DUP1 SWAP3 SWAP2 SWAP1 DUP2 DUP2 MSTORE PUSH1 0x20 ADD DUP3 DUP1 SLOAD PUSH2 0xE97 SWAP1 PUSH2 0x212E JUMP JUMPDEST DUP1 ISZERO PUSH2 0xEE4 JUMPI DUP1 PUSH1 0x1F LT PUSH2 0xEB9 JUMPI PUSH2 0x100 DUP1 DUP4 SLOAD DIV MUL DUP4 MSTORE SWAP2 PUSH1 0x20 ADD SWAP2 PUSH2 0xEE4 JUMP JUMPDEST DUP3 ADD SWAP2 SWAP1 PUSH1 0x0 MSTORE PUSH1 0x20 PUSH1 0x0 KECCAK256 SWAP1 JUMPDEST DUP2 SLOAD DUP2 MSTORE SWAP1 PUSH1 0x1 ADD SWAP1 PUSH1 0x20 ADD DUP1 DUP4 GT PUSH2 0xEC7 JUMPI DUP3 SWAP1 SUB PUSH1 0x1F AND DUP3 ADD SWAP2 JUMPDEST POP POP POP POP POP DUP2 MSTORE PUSH1 0x20 ADD PUSH1 0x2 DUP3 ADD DUP1 SLOAD PUSH2 0xEFD SWAP1 PUSH2 0x212E JUMP JUMPDEST DUP1 PUSH1 0x1F ADD PUSH1 0x20 DUP1 SWAP2 DIV MUL PUSH1 0x20 ADD PUSH1 0x40 MLOAD SWAP1 DUP2 ADD PUSH1 0x40 MSTORE DUP1 SWAP3 SWAP2 SWAP1 DUP2 DUP2 MSTORE PUSH1 0x20 ADD DUP3 DUP1 SLOAD PUSH2 0xF29 SWAP1 PUSH2 0x212E JUMP JUMPDEST DUP1 ISZERO PUSH2 0xF76 JUMPI DUP1 PUSH1 0x1F LT PUSH2 0xF4B JUMPI PUSH2 0x100 DUP1 DUP4 SLOAD DIV MUL DUP4 MSTORE SWAP2 PUSH1 0x20 ADD SWAP2 PUSH2 0xF76 JUMP JUMPDEST DUP3 ADD SWAP2 SWAP1 PUSH1 0x0 MSTORE PUSH1 0x20 PUSH1 0x0 KECCAK256 SWAP1 JUMPDEST DUP2 SLOAD DUP2 MSTORE SWAP1 PUSH1 0x1 ADD SWAP1 PUSH1 0x20 ADD DUP1 DUP4 GT PUSH2 0xF59 JUMPI DUP3 SWAP1 SUB PUSH1 0x1F AND DUP3 ADD SWAP2 JUMPDEST POP POP POP POP POP DUP2 MSTORE PUSH1 0x20 ADD PUSH1 0x3 DUP3 ADD SLOAD DUP2 MSTORE PUSH1 0x20 ADD PUSH1 0x4 DUP3 ADD SLOAD DUP2 MSTORE PUSH1 0x20 ADD PUSH1 0x5 DUP3 ADD DUP1 SLOAD PUSH2 0xFA3 SWAP1 PUSH2 0x212E JUMP JUMPDEST DUP1 PUSH1 0x1F ADD PUSH1 0x20 DUP1 SWAP2 DIV MUL PUSH1 0x20 ADD PUSH1 0x40 MLOAD SWAP1 DUP2 ADD PUSH1 0x40 MSTORE DUP1 SWAP3 SWAP2 SWAP1 DUP2 DUP2 MSTORE PUSH1 0x20 ADD DUP3 DUP1 SLOAD PUSH2 0xFCF SWAP1 PUSH2 0x212E JUMP JUMPDEST DUP1 ISZERO PUSH2 0x101C JUMPI DUP1 PUSH1 0x1F LT PUSH2 0xFF1 JUMPI PUSH2 0x100 DUP1 DUP4 SLOAD DIV MUL DUP4 MSTORE SWAP2 PUSH1 0x20 ADD SWAP2 PUSH2 0x101C JUMP JUMPDEST DUP3 ADD SWAP2 SWAP1 PUSH1 0x0 MSTORE PUSH1 0x20 PUSH1 0x0 KECCAK256 SWAP1 JUMPDEST DUP2 SLOAD DUP2 MSTORE SWAP1 PUSH1 0x1 ADD SWAP1 PUSH1 0x20 ADD DUP1 DUP4 GT PUSH2 0xFFF JUMPI DUP3 SWAP1 SUB PUSH1 0x1F AND DUP3 ADD SWAP2 JUMPDEST POP POP POP POP POP DUP2 MSTORE PUSH1 0x20 ADD PUSH1 0x6 DUP3 ADD PUSH1 0x0 SWAP1 SLOAD SWAP1 PUSH2 0x100 EXP SWAP1 DIV PUSH20 0xFFFFFFFFFFFFFFFFFFFFFFFFFFFFFFFFFFFFFFFF AND PUSH20 0xFFFFFFFFFFFFFFFFFFFFFFFFFFFFFFFFFFFFFFFF AND PUSH20 0xFFFFFFFFFFFFFFFFFFFFFFFFFFFFFFFFFFFFFFFF AND DUP2 MSTORE PUSH1 0x20 ADD PUSH1 0x6 DUP3 ADD PUSH1 0x14 SWAP1 SLOAD SWAP1 PUSH2 0x100 EXP SWAP1 DIV PUSH1 0xFF AND ISZERO ISZERO ISZERO ISZERO DUP2 MSTORE PUSH1 0x20 ADD PUSH1 0x7 DUP3 ADD DUP1 SLOAD PUSH2 0x10A6 SWAP1 PUSH2 0x212E JUMP JUMPDEST DUP1 PUSH1 0x1F ADD PUSH1 0x20 DUP1 SWAP2 DIV MUL PUSH1 0x20 ADD PUSH1 0x40 MLOAD SWAP1 DUP2 ADD PUSH1 0x40 MSTORE DUP1 SWAP3 SWAP2 SWAP1 DUP2 DUP2 MSTORE PUSH1 0x20 ADD DUP3 DUP1 SLOAD PUSH2 0x10D2 SWAP1 PUSH2 0x212E JUMP JUMPDEST DUP1 ISZERO PUSH2 0x111F JUMPI DUP1 PUSH1 0x1F LT PUSH2 0x10F4 JUMPI PUSH2 0x100 DUP1 DUP4 SLOAD DIV MUL DUP4 MSTORE SWAP2 PUSH1 0x20 ADD SWAP2 PUSH2 0x111F JUMP JUMPDEST DUP3 ADD SWAP2 SWAP1 PUSH1 0x0 MSTORE PUSH1 0x20 PUSH1 0x0 KECCAK256 SWAP1 JUMPDEST DUP2 SLOAD DUP2 MSTORE SWAP1 PUSH1 0x1 ADD SWAP1 PUSH1 0x20 ADD DUP1 DUP4 GT PUSH2 0x1102 JUMPI DUP3 SWAP1 SUB PUSH1 0x1F AND DUP3 ADD SWAP2 JUMPDEST POP POP POP POP POP DUP2 MSTORE POP POP DUP3 PUSH1 0x1 DUP4 PUSH2 0x1136 SWAP2 SWAP1 PUSH2 0x2070 JUMP JUMPDEST DUP2 MLOAD DUP2 LT PUSH2 0x116D JUMPI PUSH32 0x4E487B7100000000000000000000000000000000000000000000000000000000 PUSH1 0x0 MSTORE PUSH1 0x32 PUSH1 0x4 MSTORE PUSH1 0x24 PUSH1 0x0 REVERT JUMPDEST PUSH1 0x20 MUL PUSH1 0x20 ADD ADD DUP2 SWAP1 MSTORE POP DUP1 DUP1 PUSH2 0x1183 SWAP1 PUSH2 0x2160 JUMP JUMPDEST SWAP2 POP POP PUSH2 0xE2A JUMP JUMPDEST POP DUP1 SWAP2 POP POP SWAP1 JUMP JUMPDEST PUSH1 0x2 PUSH1 0x0 DUP2 SLOAD DUP1 SWAP3 SWAP2 SWAP1 PUSH2 0x11A6 SWAP1 PUSH2 0x2160 JUMP JUMPDEST SWAP2 SWAP1 POP SSTORE POP PUSH1 0x40 MLOAD DUP1 PUSH2 0x120 ADD PUSH1 0x40 MSTORE DUP1 PUSH1 0x2 SLOAD DUP2 MSTORE PUSH1 0x20 ADD DUP8 DUP2 MSTORE PUSH1 0x20 ADD DUP7 DUP2 MSTORE PUSH1 0x20 ADD DUP6 DUP2 MSTORE PUSH1 0x20 ADD PUSH1 0x0 DUP2 MSTORE PUSH1 0x20 ADD DUP5 DUP2 MSTORE PUSH1 0x20 ADD CALLER PUSH20 0xFFFFFFFFFFFFFFFFFFFFFFFFFFFFFFFFFFFFFFFF AND DUP2 MSTORE PUSH1 0x20 ADD DUP4 ISZERO ISZERO DUP2 MSTORE PUSH1 0x20 ADD DUP3 DUP2 MSTORE POP PUSH1 0x0 DUP1 PUSH1 0x2 SLOAD DUP2 MSTORE PUSH1 0x20 ADD SWAP1 DUP2 MSTORE PUSH1 0x20 ADD PUSH1 0x0 KECCAK256 PUSH1 0x0 DUP3 ADD MLOAD DUP2 PUSH1 0x0 ADD SSTORE PUSH1 0x20 DUP3 ADD MLOAD DUP2 PUSH1 0x1 ADD SWAP1 DUP1 MLOAD SWAP1 PUSH1 0x20 ADD SWAP1 PUSH2 0x1240 SWAP3 SWAP2 SWAP1 PUSH2 0x1520 JUMP JUMPDEST POP PUSH1 0x40 DUP3 ADD MLOAD DUP2 PUSH1 0x2 ADD SWAP1 DUP1 MLOAD SWAP1 PUSH1 0x20 ADD SWAP1 PUSH2 0x125D SWAP3 SWAP2 SWAP1 PUSH2 0x1520 JUMP JUMPDEST POP PUSH1 0x60 DUP3 ADD MLOAD DUP2 PUSH1 0x3 ADD SSTORE PUSH1 0x80 DUP3 ADD MLOAD DUP2 PUSH1 0x4 ADD SSTORE PUSH1 0xA0 DUP3 ADD MLOAD DUP2 PUSH1 0x5 ADD SWAP1 DUP1 MLOAD SWAP1 PUSH1 0x20 ADD SWAP1 PUSH2 0x128E SWAP3 SWAP2 SWAP1 PUSH2 0x1520 JUMP JUMPDEST POP PUSH1 0xC0 DUP3 ADD MLOAD DUP2 PUSH1 0x6 ADD PUSH1 0x0 PUSH2 0x100 EXP DUP2 SLOAD DUP2 PUSH20 0xFFFFFFFFFFFFFFFFFFFFFFFFFFFFFFFFFFFFFFFF MUL NOT AND SWAP1 DUP4 PUSH20 0xFFFFFFFFFFFFFFFFFFFFFFFFFFFFFFFFFFFFFFFF AND MUL OR SWAP1 SSTORE POP PUSH1 0xE0 DUP3 ADD MLOAD DUP2 PUSH1 0x6 ADD PUSH1 0x14 PUSH2 0x100 EXP DUP2 SLOAD DUP2 PUSH1 0xFF MUL NOT AND SWAP1 DUP4 ISZERO ISZERO MUL OR SWAP1 SSTORE POP PUSH2 0x100 DUP3 ADD MLOAD DUP2 PUSH1 0x7 ADD SWAP1 DUP1 MLOAD SWAP1 PUSH1 0x20 ADD SWAP1 PUSH2 0x1313 SWAP3 SWAP2 SWAP1 PUSH2 0x1520 JUMP JUMPDEST POP SWAP1 POP POP POP POP POP POP POP POP JUMP JUMPDEST PUSH1 0x2 SLOAD DUP2 JUMP JUMPDEST PUSH1 0x60 PUSH1 0x1 PUSH1 0x0 DUP4 DUP2 MSTORE PUSH1 0x20 ADD SWAP1 DUP2 MSTORE PUSH1 0x20 ADD PUSH1 0x0 KECCAK256 DUP1 SLOAD DUP1 PUSH1 0x20 MUL PUSH1 0x20 ADD PUSH1 0x40 MLOAD SWAP1 DUP2 ADD PUSH1 0x40 MSTORE DUP1 SWAP3 SWAP2 SWAP1 DUP2 DUP2 MSTORE PUSH1 0x20 ADD PUSH1 0x0 SWAP1 JUMPDEST DUP3 DUP3 LT ISZERO PUSH2 0x1471 JUMPI DUP4 DUP3 SWAP1 PUSH1 0x0 MSTORE PUSH1 0x20 PUSH1 0x0 KECCAK256 SWAP1 PUSH1 0x6 MUL ADD PUSH1 0x40 MLOAD DUP1 PUSH1 0xC0 ADD PUSH1 0x40 MSTORE SWAP1 DUP2 PUSH1 0x0 DUP3 ADD SLOAD DUP2 MSTORE PUSH1 0x20 ADD PUSH1 0x1 DUP3 ADD SLOAD DUP2 MSTORE PUSH1 0x20 ADD PUSH1 0x2 DUP3 ADD PUSH1 0x0 SWAP1 SLOAD SWAP1 PUSH2 0x100 EXP SWAP1 DIV PUSH20 0xFFFFFFFFFFFFFFFFFFFFFFFFFFFFFFFFFFFFFFFF AND PUSH20 0xFFFFFFFFFFFFFFFFFFFFFFFFFFFFFFFFFFFFFFFF AND PUSH20 0xFFFFFFFFFFFFFFFFFFFFFFFFFFFFFFFFFFFFFFFF AND DUP2 MSTORE PUSH1 0x20 ADD PUSH1 0x3 DUP3 ADD PUSH1 0x0 SWAP1 SLOAD SWAP1 PUSH2 0x100 EXP SWAP1 DIV PUSH20 0xFFFFFFFFFFFFFFFFFFFFFFFFFFFFFFFFFFFFFFFF AND PUSH20 0xFFFFFFFFFFFFFFFFFFFFFFFFFFFFFFFFFFFFFFFF AND PUSH20 0xFFFFFFFFFFFFFFFFFFFFFFFFFFFFFFFFFFFFFFFF AND DUP2 MSTORE PUSH1 0x20 ADD PUSH1 0x4 DUP3 ADD SLOAD DUP2 MSTORE PUSH1 0x20 ADD PUSH1 0x5 DUP3 ADD PUSH1 0x0 SWAP1 SLOAD SWAP1 PUSH2 0x100 EXP SWAP1 DIV PUSH1 0xFF AND ISZERO ISZERO ISZERO ISZERO DUP2 MSTORE POP POP DUP2 MSTORE PUSH1 0x20 ADD SWAP1 PUSH1 0x1 ADD SWAP1 PUSH2 0x135A JUMP JUMPDEST POP POP POP POP SWAP1 POP SWAP2 SWAP1 POP JUMP JUMPDEST PUSH1 0x40 MLOAD DUP1 PUSH2 0x120 ADD PUSH1 0x40 MSTORE DUP1 PUSH1 0x0 DUP2 MSTORE PUSH1 0x20 ADD PUSH1 0x60 DUP2 MSTORE PUSH1 0x20 ADD PUSH1 0x60 DUP2 MSTORE PUSH1 0x20 ADD PUSH1 0x0 DUP2 MSTORE PUSH1 0x20 ADD PUSH1 0x0 DUP2 MSTORE PUSH1 0x20 ADD PUSH1 0x60 DUP2 MSTORE PUSH1 0x20 ADD PUSH1 0x0 PUSH20 0xFFFFFFFFFFFFFFFFFFFFFFFFFFFFFFFFFFFFFFFF AND DUP2 MSTORE PUSH1 0x20 ADD PUSH1 0x0 ISZERO ISZERO DUP2 MSTORE PUSH1 0x20 ADD PUSH1 0x60 DUP2 MSTORE POP SWAP1 JUMP JUMPDEST POP DUP1 SLOAD PUSH2 0x14EC SWAP1 PUSH2 0x212E JUMP JUMPDEST PUSH1 0x0 DUP3 SSTORE DUP1 PUSH1 0x1F LT PUSH2 0x14FE JUMPI POP PUSH2 0x151D JUMP JUMPDEST PUSH1 0x1F ADD PUSH1 0x20 SWAP1 DIV SWAP1 PUSH1 0x0 MSTORE PUSH1 0x20 PUSH1 0x0 KECCAK256 SWAP1 DUP2 ADD SWAP1 PUSH2 0x151C SWAP2 SWAP1 PUSH2 0x15A6 JUMP JUMPDEST JUMPDEST POP JUMP JUMPDEST DUP3 DUP1 SLOAD PUSH2 0x152C SWAP1 PUSH2 0x212E JUMP JUMPDEST SWAP1 PUSH1 0x0 MSTORE PUSH1 0x20 PUSH1 0x0 KECCAK256 SWAP1 PUSH1 0x1F ADD PUSH1 0x20 SWAP1 DIV DUP2 ADD SWAP3 DUP3 PUSH2 0x154E JUMPI PUSH1 0x0 DUP6 SSTORE PUSH2 0x1595 JUMP JUMPDEST DUP3 PUSH1 0x1F LT PUSH2 0x1567 JUMPI DUP1 MLOAD PUSH1 0xFF NOT AND DUP4 DUP1 ADD OR DUP6 SSTORE PUSH2 0x1595 JUMP JUMPDEST DUP3 DUP1 ADD PUSH1 0x1 ADD DUP6 SSTORE DUP3 ISZERO PUSH2 0x1595 JUMPI SWAP2 DUP3 ADD JUMPDEST DUP3 DUP2 GT ISZERO PUSH2 0x1594 JUMPI DUP3 MLOAD DUP3 SSTORE SWAP2 PUSH1 0x20 ADD SWAP2 SWAP1 PUSH1 0x1 ADD SWAP1 PUSH2 0x1579 JUMP JUMPDEST JUMPDEST POP SWAP1 POP PUSH2 0x15A2 SWAP2 SWAP1 PUSH2 0x15A6 JUMP JUMPDEST POP SWAP1 JUMP JUMPDEST JUMPDEST DUP1 DUP3 GT ISZERO PUSH2 0x15BF JUMPI PUSH1 0x0 DUP2 PUSH1 0x0 SWAP1 SSTORE POP PUSH1 0x1 ADD PUSH2 0x15A7 JUMP JUMPDEST POP SWAP1 JUMP JUMPDEST PUSH1 0x0 PUSH2 0x15D6 PUSH2 0x15D1 DUP5 PUSH2 0x1F4B JUMP JUMPDEST PUSH2 0x1F1A JUMP JUMPDEST SWAP1 POP DUP3 DUP2 MSTORE PUSH1 0x20 DUP2 ADD DUP5 DUP5 DUP5 ADD GT ISZERO PUSH2 0x15EE JUMPI PUSH1 0x0 DUP1 REVERT JUMPDEST PUSH2 0x15F9 DUP5 DUP3 DUP6 PUSH2 0x20EC JUMP JUMPDEST POP SWAP4 SWAP3 POP POP POP JUMP JUMPDEST PUSH1 0x0 DUP2 CALLDATALOAD SWAP1 POP PUSH2 0x1610 DUP2 PUSH2 0x2247 JUMP JUMPDEST SWAP3 SWAP2 POP POP JUMP JUMPDEST PUSH1 0x0 DUP3 PUSH1 0x1F DUP4 ADD SLT PUSH2 0x1627 JUMPI PUSH1 0x0 DUP1 REVERT JUMPDEST DUP2 CALLDATALOAD PUSH2 0x1637 DUP5 DUP3 PUSH1 0x20 DUP7 ADD PUSH2 0x15C3 JUMP JUMPDEST SWAP2 POP POP SWAP3 SWAP2 POP POP JUMP JUMPDEST PUSH1 0x0 DUP2 CALLDATALOAD SWAP1 POP PUSH2 0x164F DUP2 PUSH2 0x225E JUMP JUMPDEST SWAP3 SWAP2 POP POP JUMP JUMPDEST PUSH1 0x0 DUP1 PUSH1 0x0 DUP1 PUSH1 0x0 DUP1 PUSH1 0xC0 DUP8 DUP10 SUB SLT ISZERO PUSH2 0x166E JUMPI PUSH1 0x0 DUP1 REVERT JUMPDEST PUSH1 0x0 DUP8 ADD CALLDATALOAD PUSH8 0xFFFFFFFFFFFFFFFF DUP2 GT ISZERO PUSH2 0x1688 JUMPI PUSH1 0x0 DUP1 REVERT JUMPDEST PUSH2 0x1694 DUP10 DUP3 DUP11 ADD PUSH2 0x1616 JUMP JUMPDEST SWAP7 POP POP PUSH1 0x20 DUP8 ADD CALLDATALOAD PUSH8 0xFFFFFFFFFFFFFFFF DUP2 GT ISZERO PUSH2 0x16B1 JUMPI PUSH1 0x0 DUP1 REVERT JUMPDEST PUSH2 0x16BD DUP10 DUP3 DUP11 ADD PUSH2 0x1616 JUMP JUMPDEST SWAP6 POP POP PUSH1 0x40 PUSH2 0x16CE DUP10 DUP3 DUP11 ADD PUSH2 0x1640 JUMP JUMPDEST SWAP5 POP POP PUSH1 0x60 DUP8 ADD CALLDATALOAD PUSH8 0xFFFFFFFFFFFFFFFF DUP2 GT ISZERO PUSH2 0x16EB JUMPI PUSH1 0x0 DUP1 REVERT JUMPDEST PUSH2 0x16F7 DUP10 DUP3 DUP11 ADD PUSH2 0x1616 JUMP JUMPDEST SWAP4 POP POP PUSH1 0x80 PUSH2 0x1708 DUP10 DUP3 DUP11 ADD PUSH2 0x1601 JUMP JUMPDEST SWAP3 POP POP PUSH1 0xA0 DUP8 ADD CALLDATALOAD PUSH8 0xFFFFFFFFFFFFFFFF DUP2 GT ISZERO PUSH2 0x1725 JUMPI PUSH1 0x0 DUP1 REVERT JUMPDEST PUSH2 0x1731 DUP10 DUP3 DUP11 ADD PUSH2 0x1616 JUMP JUMPDEST SWAP2 POP POP SWAP3 SWAP6 POP SWAP3 SWAP6 POP SWAP3 SWAP6 JUMP JUMPDEST PUSH1 0x0 PUSH1 0x20 DUP3 DUP5 SUB SLT ISZERO PUSH2 0x1750 JUMPI PUSH1 0x0 DUP1 REVERT JUMPDEST PUSH1 0x0 PUSH2 0x175E DUP5 DUP3 DUP6 ADD PUSH2 0x1640 JUMP JUMPDEST SWAP2 POP POP SWAP3 SWAP2 POP POP JUMP JUMPDEST PUSH1 0x0 DUP1 PUSH1 0x40 DUP4 DUP6 SUB SLT ISZERO PUSH2 0x177A JUMPI PUSH1 0x0 DUP1 REVERT JUMPDEST PUSH1 0x0 PUSH2 0x1788 DUP6 DUP3 DUP7 ADD PUSH2 0x1640 JUMP JUMPDEST SWAP3 POP POP PUSH1 0x20 PUSH2 0x1799 DUP6 DUP3 DUP7 ADD PUSH2 0x1640 JUMP JUMPDEST SWAP2 POP POP SWAP3 POP SWAP3 SWAP1 POP JUMP JUMPDEST PUSH1 0x0 PUSH2 0x17AF DUP4 DUP4 PUSH2 0x1AC2 JUMP JUMPDEST SWAP1 POP SWAP3 SWAP2 POP POP JUMP JUMPDEST PUSH1 0x0 PUSH2 0x17C3 DUP4 DUP4 PUSH2 0x1C76 JUMP JUMPDEST PUSH1 0xC0 DUP4 ADD SWAP1 POP SWAP3 SWAP2 POP POP JUMP JUMPDEST PUSH2 0x17D8 DUP2 PUSH2 0x20A4 JUMP JUMPDEST DUP3 MSTORE POP POP JUMP JUMPDEST PUSH2 0x17E7 DUP2 PUSH2 0x20A4 JUMP JUMPDEST DUP3 MSTORE POP POP JUMP JUMPDEST PUSH1 0x0 PUSH2 0x17F8 DUP3 PUSH2 0x1F9B JUMP JUMPDEST PUSH2 0x1802 DUP2 DUP6 PUSH2 0x1FD6 JUMP JUMPDEST SWAP4 POP DUP4 PUSH1 0x20 DUP3 MUL DUP6 ADD PUSH2 0x1814 DUP6 PUSH2 0x1F7B JUMP JUMPDEST DUP1 PUSH1 0x0 JUMPDEST DUP6 DUP2 LT ISZERO PUSH2 0x1850 JUMPI DUP5 DUP5 SUB DUP10 MSTORE DUP2 MLOAD PUSH2 0x1831 DUP6 DUP3 PUSH2 0x17A3 JUMP JUMPDEST SWAP5 POP PUSH2 0x183C DUP4 PUSH2 0x1FBC JUMP JUMPDEST SWAP3 POP PUSH1 0x20 DUP11 ADD SWAP10 POP POP PUSH1 0x1 DUP2 ADD SWAP1 POP PUSH2 0x1818 JUMP JUMPDEST POP DUP3 SWAP8 POP DUP8 SWAP6 POP POP POP POP POP POP SWAP3 SWAP2 POP POP JUMP JUMPDEST PUSH1 0x0 PUSH2 0x186D DUP3 PUSH2 0x1FA6 JUMP JUMPDEST PUSH2 0x1877 DUP2 DUP6 PUSH2 0x1FE7 JUMP JUMPDEST SWAP4 POP PUSH2 0x1882 DUP4 PUSH2 0x1F8B JUMP JUMPDEST DUP1 PUSH1 0x0 JUMPDEST DUP4 DUP2 LT ISZERO PUSH2 0x18B3 JUMPI DUP2 MLOAD PUSH2 0x189A DUP9 DUP3 PUSH2 0x17B7 JUMP JUMPDEST SWAP8 POP PUSH2 0x18A5 DUP4 PUSH2 0x1FC9 JUMP JUMPDEST SWAP3 POP POP PUSH1 0x1 DUP2 ADD SWAP1 POP PUSH2 0x1886 JUMP JUMPDEST POP DUP6 SWAP4 POP POP POP POP SWAP3 SWAP2 POP POP JUMP JUMPDEST PUSH2 0x18C9 DUP2 PUSH2 0x20B6 JUMP JUMPDEST DUP3 MSTORE POP POP JUMP JUMPDEST PUSH2 0x18D8 DUP2 PUSH2 0x20B6 JUMP JUMPDEST DUP3 MSTORE POP POP JUMP JUMPDEST PUSH1 0x0 PUSH2 0x18E9 DUP3 PUSH2 0x1FB1 JUMP JUMPDEST PUSH2 0x18F3 DUP2 DUP6 PUSH2 0x1FF8 JUMP JUMPDEST SWAP4 POP PUSH2 0x1903 DUP2 DUP6 PUSH1 0x20 DUP7 ADD PUSH2 0x20FB JUMP JUMPDEST PUSH2 0x190C DUP2 PUSH2 0x2236 JUMP JUMPDEST DUP5 ADD SWAP2 POP POP SWAP3 SWAP2 POP POP JUMP JUMPDEST PUSH1 0x0 PUSH2 0x1922 DUP3 PUSH2 0x1FB1 JUMP JUMPDEST PUSH2 0x192C DUP2 DUP6 PUSH2 0x2009 JUMP JUMPDEST SWAP4 POP PUSH2 0x193C DUP2 DUP6 PUSH1 0x20 DUP7 ADD PUSH2 0x20FB JUMP JUMPDEST PUSH2 0x1945 DUP2 PUSH2 0x2236 JUMP JUMPDEST DUP5 ADD SWAP2 POP POP SWAP3 SWAP2 POP POP JUMP JUMPDEST PUSH1 0x0 PUSH2 0x195D PUSH1 0x26 DUP4 PUSH2 0x2009 JUMP JUMPDEST SWAP2 POP PUSH32 0x5769746864726177616C20616D6F756E74206578636565647320726169736564 PUSH1 0x0 DUP4 ADD MSTORE PUSH32 0x2066756E64730000000000000000000000000000000000000000000000000000 PUSH1 0x20 DUP4 ADD MSTORE PUSH1 0x40 DUP3 ADD SWAP1 POP SWAP2 SWAP1 POP JUMP JUMPDEST PUSH1 0x0 PUSH2 0x19C3 PUSH1 0x2F DUP4 PUSH2 0x2009 JUMP JUMPDEST SWAP2 POP PUSH32 0x4F6E6C79207468652063726561746F722063616E207769746864726177206672 PUSH1 0x0 DUP4 ADD MSTORE PUSH32 0x6F6D207468652063616D706169676E0000000000000000000000000000000000 PUSH1 0x20 DUP4 ADD MSTORE PUSH1 0x40 DUP3 ADD SWAP1 POP SWAP2 SWAP1 POP JUMP JUMPDEST PUSH1 0x0 PUSH2 0x1A29 PUSH1 0x28 DUP4 PUSH2 0x2009 JUMP JUMPDEST SWAP2 POP PUSH32 0x4F6E6C79207468652063726561746F722063616E2064656C6574652074686520 PUSH1 0x0 DUP4 ADD MSTORE PUSH32 0x63616D706169676E000000000000000000000000000000000000000000000000 PUSH1 0x20 DUP4 ADD MSTORE PUSH1 0x40 DUP3 ADD SWAP1 POP SWAP2 SWAP1 POP JUMP JUMPDEST PUSH1 0x0 PUSH2 0x1A8F PUSH1 0x16 DUP4 PUSH2 0x2009 JUMP JUMPDEST SWAP2 POP PUSH32 0x43616D706169676E206973206E6F742061637469766500000000000000000000 PUSH1 0x0 DUP4 ADD MSTORE PUSH1 0x20 DUP3 ADD SWAP1 POP SWAP2 SWAP1 POP JUMP JUMPDEST PUSH1 0x0 PUSH2 0x120 DUP4 ADD PUSH1 0x0 DUP4 ADD MLOAD PUSH2 0x1ADB PUSH1 0x0 DUP7 ADD DUP3 PUSH2 0x1CF1 JUMP JUMPDEST POP PUSH1 0x20 DUP4 ADD MLOAD DUP5 DUP3 SUB PUSH1 0x20 DUP7 ADD MSTORE PUSH2 0x1AF3 DUP3 DUP3 PUSH2 0x18DE JUMP JUMPDEST SWAP2 POP POP PUSH1 0x40 DUP4 ADD MLOAD DUP5 DUP3 SUB PUSH1 0x40 DUP7 ADD MSTORE PUSH2 0x1B0D DUP3 DUP3 PUSH2 0x18DE JUMP JUMPDEST SWAP2 POP POP PUSH1 0x60 DUP4 ADD MLOAD PUSH2 0x1B22 PUSH1 0x60 DUP7 ADD DUP3 PUSH2 0x1CF1 JUMP JUMPDEST POP PUSH1 0x80 DUP4 ADD MLOAD PUSH2 0x1B35 PUSH1 0x80 DUP7 ADD DUP3 PUSH2 0x1CF1 JUMP JUMPDEST POP PUSH1 0xA0 DUP4 ADD MLOAD DUP5 DUP3 SUB PUSH1 0xA0 DUP7 ADD MSTORE PUSH2 0x1B4D DUP3 DUP3 PUSH2 0x18DE JUMP JUMPDEST SWAP2 POP POP PUSH1 0xC0 DUP4 ADD MLOAD PUSH2 0x1B62 PUSH1 0xC0 DUP7 ADD DUP3 PUSH2 0x17CF JUMP JUMPDEST POP PUSH1 0xE0 DUP4 ADD MLOAD PUSH2 0x1B75 PUSH1 0xE0 DUP7 ADD DUP3 PUSH2 0x18C0 JUMP JUMPDEST POP PUSH2 0x100 DUP4 ADD MLOAD DUP5 DUP3 SUB PUSH2 0x100 DUP7 ADD MSTORE PUSH2 0x1B8F DUP3 DUP3 PUSH2 0x18DE JUMP JUMPDEST SWAP2 POP POP DUP1 SWAP2 POP POP SWAP3 SWAP2 POP POP JUMP JUMPDEST PUSH1 0x0 PUSH2 0x120 DUP4 ADD PUSH1 0x0 DUP4 ADD MLOAD PUSH2 0x1BB5 PUSH1 0x0 DUP7 ADD DUP3 PUSH2 0x1CF1 JUMP JUMPDEST POP PUSH1 0x20 DUP4 ADD MLOAD DUP5 DUP3 SUB PUSH1 0x20 DUP7 ADD MSTORE PUSH2 0x1BCD DUP3 DUP3 PUSH2 0x18DE JUMP JUMPDEST SWAP2 POP POP PUSH1 0x40 DUP4 ADD MLOAD DUP5 DUP3 SUB PUSH1 0x40 DUP7 ADD MSTORE PUSH2 0x1BE7 DUP3 DUP3 PUSH2 0x18DE JUMP JUMPDEST SWAP2 POP POP PUSH1 0x60 DUP4 ADD MLOAD PUSH2 0x1BFC PUSH1 0x60 DUP7 ADD DUP3 PUSH2 0x1CF1 JUMP JUMPDEST POP PUSH1 0x80 DUP4 ADD MLOAD PUSH2 0x1C0F PUSH1 0x80 DUP7 ADD DUP3 PUSH2 0x1CF1 JUMP JUMPDEST POP PUSH1 0xA0 DUP4 ADD MLOAD DUP5 DUP3 SUB PUSH1 0xA0 DUP7 ADD MSTORE PUSH2 0x1C27 DUP3 DUP3 PUSH2 0x18DE JUMP JUMPDEST SWAP2 POP POP PUSH1 0xC0 DUP4 ADD MLOAD PUSH2 0x1C3C PUSH1 0xC0 DUP7 ADD DUP3 PUSH2 0x17CF JUMP JUMPDEST POP PUSH1 0xE0 DUP4 ADD MLOAD PUSH2 0x1C4F PUSH1 0xE0 DUP7 ADD DUP3 PUSH2 0x18C0 JUMP JUMPDEST POP PUSH2 0x100 DUP4 ADD MLOAD DUP5 DUP3 SUB PUSH2 0x100 DUP7 ADD MSTORE PUSH2 0x1C69 DUP3 DUP3 PUSH2 0x18DE JUMP JUMPDEST SWAP2 POP POP DUP1 SWAP2 POP POP SWAP3 SWAP2 POP POP JUMP JUMPDEST PUSH1 0xC0 DUP3 ADD PUSH1 0x0 DUP3 ADD MLOAD PUSH2 0x1C8C PUSH1 0x0 DUP6 ADD DUP3 PUSH2 0x1CF1 JUMP JUMPDEST POP PUSH1 0x20 DUP3 ADD MLOAD PUSH2 0x1C9F PUSH1 0x20 DUP6 ADD DUP3 PUSH2 0x1CF1 JUMP JUMPDEST POP PUSH1 0x40 DUP3 ADD MLOAD PUSH2 0x1CB2 PUSH1 0x40 DUP6 ADD DUP3 PUSH2 0x17CF JUMP JUMPDEST POP PUSH1 0x60 DUP3 ADD MLOAD PUSH2 0x1CC5 PUSH1 0x60 DUP6 ADD DUP3 PUSH2 0x17CF JUMP JUMPDEST POP PUSH1 0x80 DUP3 ADD MLOAD PUSH2 0x1CD8 PUSH1 0x80 DUP6 ADD DUP3 PUSH2 0x1CF1 JUMP JUMPDEST POP PUSH1 0xA0 DUP3 ADD MLOAD PUSH2 0x1CEB PUSH1 0xA0 DUP6 ADD DUP3 PUSH2 0x18C0 JUMP JUMPDEST POP POP POP POP JUMP JUMPDEST PUSH2 0x1CFA DUP2 PUSH2 0x20E2 JUMP JUMPDEST DUP3 MSTORE POP POP JUMP JUMPDEST PUSH2 0x1D09 DUP2 PUSH2 0x20E2 JUMP JUMPDEST DUP3 MSTORE POP POP JUMP JUMPDEST PUSH1 0x0 PUSH1 0x20 DUP3 ADD SWAP1 POP DUP2 DUP2 SUB PUSH1 0x0 DUP4 ADD MSTORE PUSH2 0x1D29 DUP2 DUP5 PUSH2 0x17ED JUMP JUMPDEST SWAP1 POP SWAP3 SWAP2 POP POP JUMP JUMPDEST PUSH1 0x0 PUSH1 0x20 DUP3 ADD SWAP1 POP DUP2 DUP2 SUB PUSH1 0x0 DUP4 ADD MSTORE PUSH2 0x1D4B DUP2 DUP5 PUSH2 0x1862 JUMP JUMPDEST SWAP1 POP SWAP3 SWAP2 POP POP JUMP JUMPDEST PUSH1 0x0 PUSH1 0x20 DUP3 ADD SWAP1 POP DUP2 DUP2 SUB PUSH1 0x0 DUP4 ADD MSTORE PUSH2 0x1D6C DUP2 PUSH2 0x1950 JUMP JUMPDEST SWAP1 POP SWAP2 SWAP1 POP JUMP JUMPDEST PUSH1 0x0 PUSH1 0x20 DUP3 ADD SWAP1 POP DUP2 DUP2 SUB PUSH1 0x0 DUP4 ADD MSTORE PUSH2 0x1D8C DUP2 PUSH2 0x19B6 JUMP JUMPDEST SWAP1 POP SWAP2 SWAP1 POP JUMP JUMPDEST PUSH1 0x0 PUSH1 0x20 DUP3 ADD SWAP1 POP DUP2 DUP2 SUB PUSH1 0x0 DUP4 ADD MSTORE PUSH2 0x1DAC DUP2 PUSH2 0x1A1C JUMP JUMPDEST SWAP1 POP SWAP2 SWAP1 POP JUMP JUMPDEST PUSH1 0x0 PUSH1 0x20 DUP3 ADD SWAP1 POP DUP2 DUP2 SUB PUSH1 0x0 DUP4 ADD MSTORE PUSH2 0x1DCC DUP2 PUSH2 0x1A82 JUMP JUMPDEST SWAP1 POP SWAP2 SWAP1 POP JUMP JUMPDEST PUSH1 0x0 PUSH1 0x20 DUP3 ADD SWAP1 POP DUP2 DUP2 SUB PUSH1 0x0 DUP4 ADD MSTORE PUSH2 0x1DED DUP2 DUP5 PUSH2 0x1B9C JUMP JUMPDEST SWAP1 POP SWAP3 SWAP2 POP POP JUMP JUMPDEST PUSH1 0x0 PUSH1 0x20 DUP3 ADD SWAP1 POP PUSH2 0x1E0A PUSH1 0x0 DUP4 ADD DUP5 PUSH2 0x1D00 JUMP JUMPDEST SWAP3 SWAP2 POP POP JUMP JUMPDEST PUSH1 0x0 PUSH2 0x120 DUP3 ADD SWAP1 POP PUSH2 0x1E26 PUSH1 0x0 DUP4 ADD DUP13 PUSH2 0x1D00 JUMP JUMPDEST DUP2 DUP2 SUB PUSH1 0x20 DUP4 ADD MSTORE PUSH2 0x1E38 DUP2 DUP12 PUSH2 0x1917 JUMP JUMPDEST SWAP1 POP DUP2 DUP2 SUB PUSH1 0x40 DUP4 ADD MSTORE PUSH2 0x1E4C DUP2 DUP11 PUSH2 0x1917 JUMP JUMPDEST SWAP1 POP PUSH2 0x1E5B PUSH1 0x60 DUP4 ADD DUP10 PUSH2 0x1D00 JUMP JUMPDEST PUSH2 0x1E68 PUSH1 0x80 DUP4 ADD DUP9 PUSH2 0x1D00 JUMP JUMPDEST DUP2 DUP2 SUB PUSH1 0xA0 DUP4 ADD MSTORE PUSH2 0x1E7A DUP2 DUP8 PUSH2 0x1917 JUMP JUMPDEST SWAP1 POP PUSH2 0x1E89 PUSH1 0xC0 DUP4 ADD DUP7 PUSH2 0x17DE JUMP JUMPDEST PUSH2 0x1E96 PUSH1 0xE0 DUP4 ADD DUP6 PUSH2 0x18CF JUMP JUMPDEST DUP2 DUP2 SUB PUSH2 0x100 DUP4 ADD MSTORE PUSH2 0x1EA9 DUP2 DUP5 PUSH2 0x1917 JUMP JUMPDEST SWAP1 POP SWAP11 SWAP10 POP POP POP POP POP POP POP POP POP POP JUMP JUMPDEST PUSH1 0x0 PUSH1 0xC0 DUP3 ADD SWAP1 POP PUSH2 0x1ECE PUSH1 0x0 DUP4 ADD DUP10 PUSH2 0x1D00 JUMP JUMPDEST PUSH2 0x1EDB PUSH1 0x20 DUP4 ADD DUP9 PUSH2 0x1D00 JUMP JUMPDEST PUSH2 0x1EE8 PUSH1 0x40 DUP4 ADD DUP8 PUSH2 0x17DE JUMP JUMPDEST PUSH2 0x1EF5 PUSH1 0x60 DUP4 ADD DUP7 PUSH2 0x17DE JUMP JUMPDEST PUSH2 0x1F02 PUSH1 0x80 DUP4 ADD DUP6 PUSH2 0x1D00 JUMP JUMPDEST PUSH2 0x1F0F PUSH1 0xA0 DUP4 ADD DUP5 PUSH2 0x18CF JUMP JUMPDEST SWAP8 SWAP7 POP POP POP POP POP POP POP JUMP JUMPDEST PUSH1 0x0 PUSH1 0x40 MLOAD SWAP1 POP DUP2 DUP2 ADD DUP2 DUP2 LT PUSH8 0xFFFFFFFFFFFFFFFF DUP3 GT OR ISZERO PUSH2 0x1F41 JUMPI PUSH2 0x1F40 PUSH2 0x2207 JUMP JUMPDEST JUMPDEST DUP1 PUSH1 0x40 MSTORE POP SWAP2 SWAP1 POP JUMP JUMPDEST PUSH1 0x0 PUSH8 0xFFFFFFFFFFFFFFFF DUP3 GT ISZERO PUSH2 0x1F66 JUMPI PUSH2 0x1F65 PUSH2 0x2207 JUMP JUMPDEST JUMPDEST PUSH1 0x1F NOT PUSH1 0x1F DUP4 ADD AND SWAP1 POP PUSH1 0x20 DUP2 ADD SWAP1 POP SWAP2 SWAP1 POP JUMP JUMPDEST PUSH1 0x0 DUP2 SWAP1 POP PUSH1 0x20 DUP3 ADD SWAP1 POP SWAP2 SWAP1 POP JUMP JUMPDEST PUSH1 0x0 DUP2 SWAP1 POP PUSH1 0x20 DUP3 ADD SWAP1 POP SWAP2 SWAP1 POP JUMP JUMPDEST PUSH1 0x0 DUP2 MLOAD SWAP1 POP SWAP2 SWAP1 POP JUMP JUMPDEST PUSH1 0x0 DUP2 MLOAD SWAP1 POP SWAP2 SWAP1 POP JUMP JUMPDEST PUSH1 0x0 DUP2 MLOAD SWAP1 POP SWAP2 SWAP1 POP JUMP JUMPDEST PUSH1 0x0 PUSH1 0x20 DUP3 ADD SWAP1 POP SWAP2 SWAP1 POP JUMP JUMPDEST PUSH1 0x0 PUSH1 0x20 DUP3 ADD SWAP1 POP SWAP2 SWAP1 POP JUMP JUMPDEST PUSH1 0x0 DUP3 DUP3 MSTORE PUSH1 0x20 DUP3 ADD SWAP1 POP SWAP3 SWAP2 POP POP JUMP JUMPDEST PUSH1 0x0 DUP3 DUP3 MSTORE PUSH1 0x20 DUP3 ADD SWAP1 POP SWAP3 SWAP2 POP POP JUMP JUMPDEST PUSH1 0x0 DUP3 DUP3 MSTORE PUSH1 0x20 DUP3 ADD SWAP1 POP SWAP3 SWAP2 POP POP JUMP JUMPDEST PUSH1 0x0 DUP3 DUP3 MSTORE PUSH1 0x20 DUP3 ADD SWAP1 POP SWAP3 SWAP2 POP POP JUMP JUMPDEST PUSH1 0x0 PUSH2 0x2025 DUP3 PUSH2 0x20E2 JUMP JUMPDEST SWAP2 POP PUSH2 0x2030 DUP4 PUSH2 0x20E2 JUMP JUMPDEST SWAP3 POP DUP3 PUSH32 0xFFFFFFFFFFFFFFFFFFFFFFFFFFFFFFFFFFFFFFFFFFFFFFFFFFFFFFFFFFFFFFFF SUB DUP3 GT ISZERO PUSH2 0x2065 JUMPI PUSH2 0x2064 PUSH2 0x21A9 JUMP JUMPDEST JUMPDEST DUP3 DUP3 ADD SWAP1 POP SWAP3 SWAP2 POP POP JUMP JUMPDEST PUSH1 0x0 PUSH2 0x207B DUP3 PUSH2 0x20E2 JUMP JUMPDEST SWAP2 POP PUSH2 0x2086 DUP4 PUSH2 0x20E2 JUMP JUMPDEST SWAP3 POP DUP3 DUP3 LT ISZERO PUSH2 0x2099 JUMPI PUSH2 0x2098 PUSH2 0x21A9 JUMP JUMPDEST JUMPDEST DUP3 DUP3 SUB SWAP1 POP SWAP3 SWAP2 POP POP JUMP JUMPDEST PUSH1 0x0 PUSH2 0x20AF DUP3 PUSH2 0x20C2 JUMP JUMPDEST SWAP1 POP SWAP2 SWAP1 POP JUMP JUMPDEST PUSH1 0x0 DUP2 ISZERO ISZERO SWAP1 POP SWAP2 SWAP1 POP JUMP JUMPDEST PUSH1 0x0 PUSH20 0xFFFFFFFFFFFFFFFFFFFFFFFFFFFFFFFFFFFFFFFF DUP3 AND SWAP1 POP SWAP2 SWAP1 POP JUMP JUMPDEST PUSH1 0x0 DUP2 SWAP1 POP SWAP2 SWAP1 POP JUMP JUMPDEST DUP3 DUP2 DUP4 CALLDATACOPY PUSH1 0x0 DUP4 DUP4 ADD MSTORE POP POP POP JUMP JUMPDEST PUSH1 0x0 JUMPDEST DUP4 DUP2 LT ISZERO PUSH2 0x2119 JUMPI DUP1 DUP3 ADD MLOAD DUP2 DUP5 ADD MSTORE PUSH1 0x20 DUP2 ADD SWAP1 POP PUSH2 0x20FE JUMP JUMPDEST DUP4 DUP2 GT ISZERO PUSH2 0x2128 JUMPI PUSH1 0x0 DUP5 DUP5 ADD MSTORE JUMPDEST POP POP POP POP JUMP JUMPDEST PUSH1 0x0 PUSH1 0x2 DUP3 DIV SWAP1 POP PUSH1 0x1 DUP3 AND DUP1 PUSH2 0x2146 JUMPI PUSH1 0x7F DUP3 AND SWAP2 POP JUMPDEST PUSH1 0x20 DUP3 LT DUP2 EQ ISZERO PUSH2 0x215A JUMPI PUSH2 0x2159 PUSH2 0x21D8 JUMP JUMPDEST JUMPDEST POP SWAP2 SWAP1 POP JUMP JUMPDEST PUSH1 0x0 PUSH2 0x216B DUP3 PUSH2 0x20E2 JUMP JUMPDEST SWAP2 POP PUSH32 0xFFFFFFFFFFFFFFFFFFFFFFFFFFFFFFFFFFFFFFFFFFFFFFFFFFFFFFFFFFFFFFFF DUP3 EQ ISZERO PUSH2 0x219E JUMPI PUSH2 0x219D PUSH2 0x21A9 JUMP JUMPDEST JUMPDEST PUSH1 0x1 DUP3 ADD SWAP1 POP SWAP2 SWAP1 POP JUMP JUMPDEST PUSH32 0x4E487B7100000000000000000000000000000000000000000000000000000000 PUSH1 0x0 MSTORE PUSH1 0x11 PUSH1 0x4 MSTORE PUSH1 0x24 PUSH1 0x0 REVERT JUMPDEST PUSH32 0x4E487B7100000000000000000000000000000000000000000000000000000000 PUSH1 0x0 MSTORE PUSH1 0x22 PUSH1 0x4 MSTORE PUSH1 0x24 PUSH1 0x0 REVERT JUMPDEST PUSH32 0x4E487B7100000000000000000000000000000000000000000000000000000000 PUSH1 0x0 MSTORE PUSH1 0x41 PUSH1 0x4 MSTORE PUSH1 0x24 PUSH1 0x0 REVERT JUMPDEST PUSH1 0x0 PUSH1 0x1F NOT PUSH1 0x1F DUP4 ADD AND SWAP1 POP SWAP2 SWAP1 POP JUMP JUMPDEST PUSH2 0x2250 DUP2 PUSH2 0x20B6 JUMP JUMPDEST DUP2 EQ PUSH2 0x225B JUMPI PUSH1 0x0 DUP1 REVERT JUMPDEST POP JUMP JUMPDEST PUSH2 0x2267 DUP2 PUSH2 0x20E2 JUMP JUMPDEST DUP2 EQ PUSH2 0x2272 JUMPI PUSH1 0x0 DUP1 REVERT JUMPDEST POP JUMP INVALID LOG2 PUSH5 0x6970667358 0x22 SLT KECCAK256 EXTCODESIZE 0x25 MLOAD PUSH3 0x9D8A1C 0x4D 0xDF DUP3 0xDF SWAP7 SWAP3 SWAP16 0xAA DUP7 0xC9 RETURN AND 0xAB 0xF6 DUP4 TIMESTAMP PUSH2 0x8F59 CALL 0xA8 0xE1 LT 0xF8 DUP9 PUSH5 0x736F6C6343 STOP ADDMOD STOP STOP CALLER "
				},
				"gasEstimates": {
					"creation": {
						"codeDepositCost": "1775000",
						"executionCost": "1869",
						"totalCost": "1776869"
					},
					"external": {
						"addCampaign(string,string,uint256,string,bool,string)": "infinite",
						"campaignCounter()": "1195",
						"campaigns(uint256)": "infinite",
						"contributeToCampaign(uint256)": "infinite",
						"deleteCampaign(uint256)": "infinite",
						"getAllCampaigns()": "infinite",
						"getCampaign(uint256)": "infinite",
						"getTransactionsByCampaign(uint256)": "infinite",
						"transactionsByCampaign(uint256,uint256)": "infinite",
						"withdrawFromCampaign(uint256,uint256)": "infinite"
					}
				},
				"methodIdentifiers": {
					"addCampaign(string,string,uint256,string,bool,string)": "af3db180",
					"campaignCounter()": "fca604d7",
					"campaigns(uint256)": "141961bc",
					"contributeToCampaign(uint256)": "0b7ef89b",
					"deleteCampaign(uint256)": "75970193",
					"getAllCampaigns()": "86cdf604",
					"getCampaign(uint256)": "5598f8cc",
					"getTransactionsByCampaign(uint256)": "fe7aacf1",
					"transactionsByCampaign(uint256,uint256)": "2fe797f9",
					"withdrawFromCampaign(uint256,uint256)": "6dcbcfc2"
				}
			},
			"storageLayout": {
				"storage": [
					{
						"astId": 38,
						"contract": "contracts/Etherise_DApp.sol:Etherise",
						"label": "campaigns",
						"offset": 0,
						"slot": "0",
						"type": "t_mapping(t_uint256,t_struct(Campaign)20_storage)"
					},
					{
						"astId": 44,
						"contract": "contracts/Etherise_DApp.sol:Etherise",
						"label": "transactionsByCampaign",
						"offset": 0,
						"slot": "1",
						"type": "t_mapping(t_uint256,t_array(t_struct(Transaction)33_storage)dyn_storage)"
					},
					{
						"astId": 46,
						"contract": "contracts/Etherise_DApp.sol:Etherise",
						"label": "campaignCounter",
						"offset": 0,
						"slot": "2",
						"type": "t_uint256"
					}
				],
				"types": {
					"t_address": {
						"encoding": "inplace",
						"label": "address",
						"numberOfBytes": "20"
					},
					"t_array(t_struct(Transaction)33_storage)dyn_storage": {
						"base": "t_struct(Transaction)33_storage",
						"encoding": "dynamic_array",
						"label": "struct Etherise.Transaction[]",
						"numberOfBytes": "32"
					},
					"t_bool": {
						"encoding": "inplace",
						"label": "bool",
						"numberOfBytes": "1"
					},
					"t_mapping(t_uint256,t_array(t_struct(Transaction)33_storage)dyn_storage)": {
						"encoding": "mapping",
						"key": "t_uint256",
						"label": "mapping(uint256 => struct Etherise.Transaction[])",
						"numberOfBytes": "32",
						"value": "t_array(t_struct(Transaction)33_storage)dyn_storage"
					},
					"t_mapping(t_uint256,t_struct(Campaign)20_storage)": {
						"encoding": "mapping",
						"key": "t_uint256",
						"label": "mapping(uint256 => struct Etherise.Campaign)",
						"numberOfBytes": "32",
						"value": "t_struct(Campaign)20_storage"
					},
					"t_string_storage": {
						"encoding": "bytes",
						"label": "string",
						"numberOfBytes": "32"
					},
					"t_struct(Campaign)20_storage": {
						"encoding": "inplace",
						"label": "struct Etherise.Campaign",
						"members": [
							{
								"astId": 3,
								"contract": "contracts/Etherise_DApp.sol:Etherise",
								"label": "campaignID",
								"offset": 0,
								"slot": "0",
								"type": "t_uint256"
							},
							{
								"astId": 5,
								"contract": "contracts/Etherise_DApp.sol:Etherise",
								"label": "campaignTitle",
								"offset": 0,
								"slot": "1",
								"type": "t_string_storage"
							},
							{
								"astId": 7,
								"contract": "contracts/Etherise_DApp.sol:Etherise",
								"label": "aboutCampaign",
								"offset": 0,
								"slot": "2",
								"type": "t_string_storage"
							},
							{
								"astId": 9,
								"contract": "contracts/Etherise_DApp.sol:Etherise",
								"label": "ethGoal",
								"offset": 0,
								"slot": "3",
								"type": "t_uint256"
							},
							{
								"astId": 11,
								"contract": "contracts/Etherise_DApp.sol:Etherise",
								"label": "ethRaised",
								"offset": 0,
								"slot": "4",
								"type": "t_uint256"
							},
							{
								"astId": 13,
								"contract": "contracts/Etherise_DApp.sol:Etherise",
								"label": "businessName",
								"offset": 0,
								"slot": "5",
								"type": "t_string_storage"
							},
							{
								"astId": 15,
								"contract": "contracts/Etherise_DApp.sol:Etherise",
								"label": "creatorWallet",
								"offset": 0,
								"slot": "6",
								"type": "t_address"
							},
							{
								"astId": 17,
								"contract": "contracts/Etherise_DApp.sol:Etherise",
								"label": "isActive",
								"offset": 20,
								"slot": "6",
								"type": "t_bool"
							},
							{
								"astId": 19,
								"contract": "contracts/Etherise_DApp.sol:Etherise",
								"label": "coverImage",
								"offset": 0,
								"slot": "7",
								"type": "t_string_storage"
							}
						],
						"numberOfBytes": "256"
					},
					"t_struct(Transaction)33_storage": {
						"encoding": "inplace",
						"label": "struct Etherise.Transaction",
						"members": [
							{
								"astId": 22,
								"contract": "contracts/Etherise_DApp.sol:Etherise",
								"label": "transactionID",
								"offset": 0,
								"slot": "0",
								"type": "t_uint256"
							},
							{
								"astId": 24,
								"contract": "contracts/Etherise_DApp.sol:Etherise",
								"label": "amount",
								"offset": 0,
								"slot": "1",
								"type": "t_uint256"
							},
							{
								"astId": 26,
								"contract": "contracts/Etherise_DApp.sol:Etherise",
								"label": "contractAddress",
								"offset": 0,
								"slot": "2",
								"type": "t_address"
							},
							{
								"astId": 28,
								"contract": "contracts/Etherise_DApp.sol:Etherise",
								"label": "transactor",
								"offset": 0,
								"slot": "3",
								"type": "t_address"
							},
							{
								"astId": 30,
								"contract": "contracts/Etherise_DApp.sol:Etherise",
								"label": "campaignID",
								"offset": 0,
								"slot": "4",
								"type": "t_uint256"
							},
							{
								"astId": 32,
								"contract": "contracts/Etherise_DApp.sol:Etherise",
								"label": "isDeposit",
								"offset": 0,
								"slot": "5",
								"type": "t_bool"
							}
						],
						"numberOfBytes": "192"
					},
					"t_uint256": {
						"encoding": "inplace",
						"label": "uint256",
						"numberOfBytes": "32"
					}
				}
			},
			"userdoc": {
				"kind": "user",
				"methods": {},
				"version": 1
			}
		}
	}
}